{
  "contractName": "Tamablockhi",
  "abi": [
    {
      "inputs": [],
      "stateMutability": "nonpayable",
      "type": "constructor"
    },
    {
      "anonymous": false,
      "inputs": [
        {
          "indexed": true,
          "internalType": "address",
          "name": "account",
          "type": "address"
        },
        {
          "indexed": true,
          "internalType": "address",
          "name": "operator",
          "type": "address"
        },
        {
          "indexed": false,
          "internalType": "bool",
          "name": "approved",
          "type": "bool"
        }
      ],
      "name": "ApprovalForAll",
      "type": "event"
    },
    {
      "anonymous": false,
      "inputs": [
        {
          "indexed": true,
          "internalType": "address",
          "name": "previousOwner",
          "type": "address"
        },
        {
          "indexed": true,
          "internalType": "address",
          "name": "newOwner",
          "type": "address"
        }
      ],
      "name": "OwnershipTransferred",
      "type": "event"
    },
    {
      "anonymous": false,
      "inputs": [
        {
          "indexed": true,
          "internalType": "address",
          "name": "operator",
          "type": "address"
        },
        {
          "indexed": true,
          "internalType": "address",
          "name": "from",
          "type": "address"
        },
        {
          "indexed": true,
          "internalType": "address",
          "name": "to",
          "type": "address"
        },
        {
          "indexed": false,
          "internalType": "uint256[]",
          "name": "ids",
          "type": "uint256[]"
        },
        {
          "indexed": false,
          "internalType": "uint256[]",
          "name": "values",
          "type": "uint256[]"
        }
      ],
      "name": "TransferBatch",
      "type": "event"
    },
    {
      "anonymous": false,
      "inputs": [
        {
          "indexed": true,
          "internalType": "address",
          "name": "operator",
          "type": "address"
        },
        {
          "indexed": true,
          "internalType": "address",
          "name": "from",
          "type": "address"
        },
        {
          "indexed": true,
          "internalType": "address",
          "name": "to",
          "type": "address"
        },
        {
          "indexed": false,
          "internalType": "uint256",
          "name": "id",
          "type": "uint256"
        },
        {
          "indexed": false,
          "internalType": "uint256",
          "name": "value",
          "type": "uint256"
        }
      ],
      "name": "TransferSingle",
      "type": "event"
    },
    {
      "anonymous": false,
      "inputs": [
        {
          "indexed": false,
          "internalType": "string",
          "name": "value",
          "type": "string"
        },
        {
          "indexed": true,
          "internalType": "uint256",
          "name": "id",
          "type": "uint256"
        }
      ],
      "name": "URI",
      "type": "event"
    },
    {
      "inputs": [
        {
          "internalType": "address",
          "name": "account",
          "type": "address"
        },
        {
          "internalType": "uint256",
          "name": "id",
          "type": "uint256"
        }
      ],
      "name": "balanceOf",
      "outputs": [
        {
          "internalType": "uint256",
          "name": "",
          "type": "uint256"
        }
      ],
      "stateMutability": "view",
      "type": "function",
      "constant": true
    },
    {
      "inputs": [
        {
          "internalType": "address[]",
          "name": "accounts",
          "type": "address[]"
        },
        {
          "internalType": "uint256[]",
          "name": "ids",
          "type": "uint256[]"
        }
      ],
      "name": "balanceOfBatch",
      "outputs": [
        {
          "internalType": "uint256[]",
          "name": "",
          "type": "uint256[]"
        }
      ],
      "stateMutability": "view",
      "type": "function",
      "constant": true
    },
    {
      "inputs": [
        {
          "internalType": "uint256",
          "name": "id",
          "type": "uint256"
        }
      ],
      "name": "exists",
      "outputs": [
        {
          "internalType": "bool",
          "name": "",
          "type": "bool"
        }
      ],
      "stateMutability": "view",
      "type": "function",
      "constant": true
    },
    {
      "inputs": [
        {
          "internalType": "address",
          "name": "account",
          "type": "address"
        },
        {
          "internalType": "address",
          "name": "operator",
          "type": "address"
        }
      ],
      "name": "isApprovedForAll",
      "outputs": [
        {
          "internalType": "bool",
          "name": "",
          "type": "bool"
        }
      ],
      "stateMutability": "view",
      "type": "function",
      "constant": true
    },
    {
      "inputs": [],
      "name": "owner",
      "outputs": [
        {
          "internalType": "address",
          "name": "",
          "type": "address"
        }
      ],
      "stateMutability": "view",
      "type": "function",
      "constant": true
    },
    {
      "inputs": [],
      "name": "renounceOwnership",
      "outputs": [],
      "stateMutability": "nonpayable",
      "type": "function"
    },
    {
      "inputs": [
        {
          "internalType": "address",
          "name": "from",
          "type": "address"
        },
        {
          "internalType": "address",
          "name": "to",
          "type": "address"
        },
        {
          "internalType": "uint256[]",
          "name": "ids",
          "type": "uint256[]"
        },
        {
          "internalType": "uint256[]",
          "name": "amounts",
          "type": "uint256[]"
        },
        {
          "internalType": "bytes",
          "name": "data",
          "type": "bytes"
        }
      ],
      "name": "safeBatchTransferFrom",
      "outputs": [],
      "stateMutability": "nonpayable",
      "type": "function"
    },
    {
      "inputs": [
        {
          "internalType": "address",
          "name": "from",
          "type": "address"
        },
        {
          "internalType": "address",
          "name": "to",
          "type": "address"
        },
        {
          "internalType": "uint256",
          "name": "id",
          "type": "uint256"
        },
        {
          "internalType": "uint256",
          "name": "amount",
          "type": "uint256"
        },
        {
          "internalType": "bytes",
          "name": "data",
          "type": "bytes"
        }
      ],
      "name": "safeTransferFrom",
      "outputs": [],
      "stateMutability": "nonpayable",
      "type": "function"
    },
    {
      "inputs": [
        {
          "internalType": "address",
          "name": "operator",
          "type": "address"
        },
        {
          "internalType": "bool",
          "name": "approved",
          "type": "bool"
        }
      ],
      "name": "setApprovalForAll",
      "outputs": [],
      "stateMutability": "nonpayable",
      "type": "function"
    },
    {
      "inputs": [
        {
          "internalType": "bytes4",
          "name": "interfaceId",
          "type": "bytes4"
        }
      ],
      "name": "supportsInterface",
      "outputs": [
        {
          "internalType": "bool",
          "name": "",
          "type": "bool"
        }
      ],
      "stateMutability": "view",
      "type": "function",
      "constant": true
    },
    {
      "inputs": [
        {
          "internalType": "uint256",
          "name": "id",
          "type": "uint256"
        }
      ],
      "name": "totalSupply",
      "outputs": [
        {
          "internalType": "uint256",
          "name": "",
          "type": "uint256"
        }
      ],
      "stateMutability": "view",
      "type": "function",
      "constant": true
    },
    {
      "inputs": [
        {
          "internalType": "address",
          "name": "newOwner",
          "type": "address"
        }
      ],
      "name": "transferOwnership",
      "outputs": [],
      "stateMutability": "nonpayable",
      "type": "function"
    },
    {
      "inputs": [
        {
          "internalType": "uint256",
          "name": "",
          "type": "uint256"
        }
      ],
      "name": "uri",
      "outputs": [
        {
          "internalType": "string",
          "name": "",
          "type": "string"
        }
      ],
      "stateMutability": "view",
      "type": "function",
      "constant": true
    },
    {
      "inputs": [
        {
          "internalType": "string",
          "name": "newuri",
          "type": "string"
        }
      ],
      "name": "setURI",
      "outputs": [],
      "stateMutability": "nonpayable",
      "type": "function"
    },
    {
      "inputs": [
        {
          "internalType": "uint256",
          "name": "tokenId",
          "type": "uint256"
        },
        {
          "internalType": "bool",
          "name": "aliveCheck",
          "type": "bool"
        }
      ],
      "name": "getTamablockhiState",
      "outputs": [
        {
          "components": [
            {
              "internalType": "uint256",
              "name": "starvationBlock",
              "type": "uint256"
            },
            {
              "internalType": "uint256",
              "name": "dehydrationBlock",
              "type": "uint256"
            },
            {
              "internalType": "uint256[]",
              "name": "poopQueue",
              "type": "uint256[]"
            },
            {
              "internalType": "uint256[]",
              "name": "cropQueue",
              "type": "uint256[]"
            }
          ],
          "internalType": "struct Tamablockhi.TamablockhiState",
          "name": "",
          "type": "tuple"
        }
      ],
      "stateMutability": "view",
      "type": "function",
      "constant": true
    },
    {
      "inputs": [
        {
          "internalType": "address",
          "name": "account",
          "type": "address"
        }
      ],
      "name": "getTamablockhiIds",
      "outputs": [
        {
          "internalType": "uint256[]",
          "name": "",
          "type": "uint256[]"
        }
      ],
      "stateMutability": "view",
      "type": "function",
      "constant": true
    },
    {
      "inputs": [
        {
          "internalType": "address",
          "name": "account",
          "type": "address"
        },
        {
          "internalType": "bytes",
          "name": "data",
          "type": "bytes"
        }
      ],
      "name": "hatch",
      "outputs": [],
      "stateMutability": "nonpayable",
      "type": "function"
    },
    {
      "inputs": [
        {
          "internalType": "address",
          "name": "account",
          "type": "address"
        },
        {
          "internalType": "uint256",
          "name": "tokenId",
          "type": "uint256"
        },
        {
          "internalType": "uint256",
          "name": "foodAmount",
          "type": "uint256"
        }
      ],
      "name": "feed",
      "outputs": [],
      "stateMutability": "nonpayable",
      "type": "function"
    },
    {
      "inputs": [
        {
          "internalType": "address",
          "name": "account",
          "type": "address"
        },
        {
          "internalType": "uint256",
          "name": "tokenId",
          "type": "uint256"
        },
        {
          "internalType": "uint256",
          "name": "waterAmount",
          "type": "uint256"
        }
      ],
      "name": "water",
      "outputs": [],
      "stateMutability": "nonpayable",
      "type": "function"
    },
    {
      "inputs": [
        {
          "internalType": "address",
          "name": "account",
          "type": "address"
        },
        {
          "internalType": "uint256",
          "name": "tokenId",
          "type": "uint256"
        }
      ],
      "name": "clean",
      "outputs": [],
      "stateMutability": "nonpayable",
      "type": "function"
    },
    {
      "inputs": [
        {
          "internalType": "address",
          "name": "account",
          "type": "address"
        },
        {
          "internalType": "uint256",
          "name": "tokenId",
          "type": "uint256"
        }
      ],
      "name": "pet",
      "outputs": [],
      "stateMutability": "nonpayable",
      "type": "function"
    },
    {
      "inputs": [
        {
          "internalType": "address",
          "name": "account",
          "type": "address"
        },
        {
          "internalType": "uint256",
          "name": "tokenId",
          "type": "uint256"
        }
      ],
      "name": "plantFood",
      "outputs": [],
      "stateMutability": "nonpayable",
      "type": "function"
    },
    {
      "inputs": [
        {
          "internalType": "address",
          "name": "account",
          "type": "address"
        },
        {
          "internalType": "uint256",
          "name": "tokenId",
          "type": "uint256"
        }
      ],
      "name": "harvestFood",
      "outputs": [],
      "stateMutability": "nonpayable",
      "type": "function"
    },
    {
      "inputs": [
        {
          "internalType": "address",
          "name": "account",
          "type": "address"
        },
        {
          "internalType": "uint256",
          "name": "tamoIdOne",
          "type": "uint256"
        },
        {
          "internalType": "uint256",
          "name": "tamoIdTwo",
          "type": "uint256"
        }
      ],
      "name": "mate",
      "outputs": [],
      "stateMutability": "nonpayable",
      "type": "function"
    },
    {
      "inputs": [
        {
          "internalType": "uint256",
          "name": "tokenId",
          "type": "uint256"
        }
      ],
      "name": "requireAlive",
      "outputs": [],
      "stateMutability": "view",
      "type": "function",
      "constant": true
    },
    {
      "inputs": [
        {
          "internalType": "uint256",
          "name": "amountToAdd",
          "type": "uint256"
        },
        {
          "internalType": "uint256",
          "name": "currentAmount",
          "type": "uint256"
        },
        {
          "internalType": "uint256",
          "name": "maxAmount",
          "type": "uint256"
        }
      ],
      "name": "uAdjustedAmount",
      "outputs": [
        {
          "internalType": "uint256",
          "name": "",
          "type": "uint256"
        }
      ],
      "stateMutability": "pure",
      "type": "function",
      "constant": true
    }
  ],
  "bytecode": "0x60806040526040518060400160405280600181526020017f3100000000000000000000000000000000000000000000000000000000000000815250600590816200004a919062000ffd565b506040518060400160405280600181526020017f32000000000000000000000000000000000000000000000000000000000000008152506006908162000091919062000ffd565b506040518060400160405280600181526020017f330000000000000000000000000000000000000000000000000000000000000081525060079081620000d8919062000ffd565b506040518060400160405280600181526020017f3400000000000000000000000000000000000000000000000000000000000000815250600890816200011f919062000ffd565b506040518060400160405280600181526020017f35000000000000000000000000000000000000000000000000000000000000008152506009908162000166919062000ffd565b506040518060400160405280600181526020017f3600000000000000000000000000000000000000000000000000000000000000815250600a9081620001ad919062000ffd565b506040518060400160405280600181526020017f3700000000000000000000000000000000000000000000000000000000000000815250600b9081620001f4919062000ffd565b506040518060400160405280600181526020017f3800000000000000000000000000000000000000000000000000000000000000815250600c90816200023b919062000ffd565b506040518060400160405280600181526020017f3900000000000000000000000000000000000000000000000000000000000000815250600d908162000282919062000ffd565b506040518060400160405280600281526020017f3130000000000000000000000000000000000000000000000000000000000000815250600e9081620002c9919062000ffd565b506040518060400160405280600281526020017f3131000000000000000000000000000000000000000000000000000000000000815250600f908162000310919062000ffd565b506040518060400160405280600281526020017f31320000000000000000000000000000000000000000000000000000000000008152506010908162000357919062000ffd565b506040518060400160405280600281526020017f3133000000000000000000000000000000000000000000000000000000000000815250601190816200039e919062000ffd565b506000601260006101000a81548160ff021916908360ff1602179055506001601260016101000a81548160ff021916908360ff1602179055506002601260026101000a81548160ff021916908360ff1602179055506003601260036101000a81548160ff021916908360ff1602179055506004601260046101000a81548160ff021916908360ff160217905550600a601355601354601455614af1601560006101000a81548163ffffffff021916908363ffffffff160217905550614af1601560046101000a81548163ffffffff021916908363ffffffff160217905550614af1601560086101000a81548163ffffffff021916908363ffffffff160217905550348015620004ac57600080fd5b5060405180602001604052806000815250620004ce81620005c760201b60201c565b50620004ef620004e3620005dc60201b60201c565b620005e460201b60201c565b6200053562000503620006aa60201b60201c565b601260049054906101000a900460ff1660ff166122b860405180602001604052806000815250620006d460201b60201c565b6200057b62000549620006aa60201b60201c565b601260009054906101000a900460ff1660ff1661c35060405180602001604052806000815250620006d460201b60201c565b620005c16200058f620006aa60201b60201c565b601260029054906101000a900460ff1660ff1661c35060405180602001604052806000815250620006d460201b60201c565b620017c2565b8060029081620005d8919062000ffd565b5050565b600033905090565b6000600360009054906101000a900473ffffffffffffffffffffffffffffffffffffffff16905081600360006101000a81548173ffffffffffffffffffffffffffffffffffffffff021916908373ffffffffffffffffffffffffffffffffffffffff1602179055508173ffffffffffffffffffffffffffffffffffffffff168173ffffffffffffffffffffffffffffffffffffffff167f8be0079c531659141344cd1fd0a4f28419497f9722a3daafe3b4186f6b6457e060405160405180910390a35050565b6000600360009054906101000a900473ffffffffffffffffffffffffffffffffffffffff16905090565b600073ffffffffffffffffffffffffffffffffffffffff168473ffffffffffffffffffffffffffffffffffffffff160362000746576040517f08c379a00000000000000000000000000000000000000000000000000000000081526004016200073d906200116b565b60405180910390fd5b600062000758620005dc60201b60201c565b905060006200076d85620008bb60201b60201c565b905060006200078285620008bb60201b60201c565b90506200079b836000898585896200093c60201b60201c565b8460008088815260200190815260200160002060008973ffffffffffffffffffffffffffffffffffffffff1673ffffffffffffffffffffffffffffffffffffffff1681526020019081526020016000206000828254620007fc9190620011bc565b925050819055508673ffffffffffffffffffffffffffffffffffffffff16600073ffffffffffffffffffffffffffffffffffffffff168473ffffffffffffffffffffffffffffffffffffffff167fc3d58168c5ae7397731d063d5bbf3d657854427343f4c083240f7aacaa2d0f6289896040516200087c92919062001208565b60405180910390a46200089b836000898585896200095f60201b60201c565b620008b2836000898989896200096760201b60201c565b50505050505050565b60606000600167ffffffffffffffff811115620008dd57620008dc62000d8e565b5b6040519080825280602002602001820160405280156200090c5781602001602082028036833780820191505090505b509050828160008151811062000927576200092662001235565b5b60200260200101818152505080915050919050565b6200095786868686868662000b6060201b62001d6d1760201c565b505050505050565b505050505050565b620009938473ffffffffffffffffffffffffffffffffffffffff1662000d5860201b62001f3d1760201c565b1562000b58578373ffffffffffffffffffffffffffffffffffffffff1663f23a6e6187878686866040518663ffffffff1660e01b8152600401620009dc95949392919062001343565b6020604051808303816000875af192505050801562000a1b57506040513d601f19601f8201168201806040525081019062000a18919062001413565b60015b62000acc5762000a2a62001452565b806308c379a00362000a8d575062000a41620014ad565b8062000a4e575062000a8f565b806040517f08c379a000000000000000000000000000000000000000000000000000000000815260040162000a84919062001589565b60405180910390fd5b505b6040517f08c379a000000000000000000000000000000000000000000000000000000000815260040162000ac39062001623565b60405180910390fd5b63f23a6e6160e01b7bffffffffffffffffffffffffffffffffffffffffffffffffffffffff1916817bffffffffffffffffffffffffffffffffffffffffffffffffffffffff19161462000b56576040517f08c379a000000000000000000000000000000000000000000000000000000000815260040162000b4d90620016bb565b60405180910390fd5b505b505050505050565b62000b7b86868686868662000d7b60201b62001f601760201c565b600073ffffffffffffffffffffffffffffffffffffffff168573ffffffffffffffffffffffffffffffffffffffff160362000c395760005b835181101562000c375782818151811062000bd35762000bd262001235565b5b60200260200101516004600086848151811062000bf55762000bf462001235565b5b60200260200101518152602001908152602001600020600082825462000c1c9190620011bc565b925050819055508062000c2f90620016dd565b905062000bb3565b505b600073ffffffffffffffffffffffffffffffffffffffff168473ffffffffffffffffffffffffffffffffffffffff160362000d505760005b835181101562000d4e57600084828151811062000c935762000c9262001235565b5b60200260200101519050600084838151811062000cb55762000cb462001235565b5b602002602001015190506000600460008481526020019081526020016000205490508181101562000d1d576040517f08c379a000000000000000000000000000000000000000000000000000000000815260040162000d1490620017a0565b60405180910390fd5b81810360046000858152602001908152602001600020819055505050508062000d4690620016dd565b905062000c71565b505b505050505050565b6000808273ffffffffffffffffffffffffffffffffffffffff163b119050919050565b505050505050565b600081519050919050565b7f4e487b7100000000000000000000000000000000000000000000000000000000600052604160045260246000fd5b7f4e487b7100000000000000000000000000000000000000000000000000000000600052602260045260246000fd5b6000600282049050600182168062000e0557607f821691505b60208210810362000e1b5762000e1a62000dbd565b5b50919050565b60008190508160005260206000209050919050565b60006020601f8301049050919050565b600082821b905092915050565b60006008830262000e857fffffffffffffffffffffffffffffffffffffffffffffffffffffffffffffffff8262000e46565b62000e91868362000e46565b95508019841693508086168417925050509392505050565b6000819050919050565b6000819050919050565b600062000ede62000ed862000ed28462000ea9565b62000eb3565b62000ea9565b9050919050565b6000819050919050565b62000efa8362000ebd565b62000f1262000f098262000ee5565b84845462000e53565b825550505050565b600090565b62000f2962000f1a565b62000f3681848462000eef565b505050565b5b8181101562000f5e5762000f5260008262000f1f565b60018101905062000f3c565b5050565b601f82111562000fad5762000f778162000e21565b62000f828462000e36565b8101602085101562000f92578190505b62000faa62000fa18562000e36565b83018262000f3b565b50505b505050565b600082821c905092915050565b600062000fd26000198460080262000fb2565b1980831691505092915050565b600062000fed838362000fbf565b9150826002028217905092915050565b620010088262000d83565b67ffffffffffffffff81111562001024576200102362000d8e565b5b62001030825462000dec565b6200103d82828562000f62565b600060209050601f83116001811462001075576000841562001060578287015190505b6200106c858262000fdf565b865550620010dc565b601f198416620010858662000e21565b60005b82811015620010af5784890151825560018201915060208501945060208101905062001088565b86831015620010cf5784890151620010cb601f89168262000fbf565b8355505b6001600288020188555050505b505050505050565b600082825260208201905092915050565b7f455243313135353a206d696e7420746f20746865207a65726f2061646472657360008201527f7300000000000000000000000000000000000000000000000000000000000000602082015250565b600062001153602183620010e4565b91506200116082620010f5565b604082019050919050565b60006020820190508181036000830152620011868162001144565b9050919050565b7f4e487b7100000000000000000000000000000000000000000000000000000000600052601160045260246000fd5b6000620011c98262000ea9565b9150620011d68362000ea9565b9250828201905080821115620011f157620011f06200118d565b5b92915050565b620012028162000ea9565b82525050565b60006040820190506200121f6000830185620011f7565b6200122e6020830184620011f7565b9392505050565b7f4e487b7100000000000000000000000000000000000000000000000000000000600052603260045260246000fd5b600073ffffffffffffffffffffffffffffffffffffffff82169050919050565b6000620012918262001264565b9050919050565b620012a38162001284565b82525050565b600081519050919050565b600082825260208201905092915050565b60005b83811015620012e5578082015181840152602081019050620012c8565b60008484015250505050565b6000601f19601f8301169050919050565b60006200130f82620012a9565b6200131b8185620012b4565b93506200132d818560208601620012c5565b6200133881620012f1565b840191505092915050565b600060a0820190506200135a600083018862001298565b62001369602083018762001298565b620013786040830186620011f7565b620013876060830185620011f7565b81810360808301526200139b818462001302565b90509695505050505050565b6000604051905090565b600080fd5b60007fffffffff0000000000000000000000000000000000000000000000000000000082169050919050565b620013ed81620013b6565b8114620013f957600080fd5b50565b6000815190506200140d81620013e2565b92915050565b6000602082840312156200142c576200142b620013b1565b5b60006200143c84828501620013fc565b91505092915050565b60008160e01c9050919050565b600060033d1115620014745760046000803e6200147160005162001445565b90505b90565b6200148282620012f1565b810181811067ffffffffffffffff82111715620014a457620014a362000d8e565b5b80604052505050565b600060443d106200154557620014c2620013a7565b60043d036004823e80513d602482011167ffffffffffffffff82111715620014ec57505062001545565b808201805167ffffffffffffffff8111156200150c575050505062001545565b80602083010160043d0385018111156200152b57505050505062001545565b6200153c8260200185018662001477565b82955050505050505b90565b6000620015558262000d83565b620015618185620010e4565b935062001573818560208601620012c5565b6200157e81620012f1565b840191505092915050565b60006020820190508181036000830152620015a5818462001548565b905092915050565b7f455243313135353a207472616e7366657220746f206e6f6e204552433131353560008201527f526563656976657220696d706c656d656e746572000000000000000000000000602082015250565b60006200160b603483620010e4565b91506200161882620015ad565b604082019050919050565b600060208201905081810360008301526200163e81620015fc565b9050919050565b7f455243313135353a204552433131353552656365697665722072656a6563746560008201527f6420746f6b656e73000000000000000000000000000000000000000000000000602082015250565b6000620016a3602883620010e4565b9150620016b08262001645565b604082019050919050565b60006020820190508181036000830152620016d68162001694565b9050919050565b6000620016ea8262000ea9565b91507fffffffffffffffffffffffffffffffffffffffffffffffffffffffffffffffff82036200171f576200171e6200118d565b5b600182019050919050565b7f455243313135353a206275726e20616d6f756e74206578636565647320746f7460008201527f616c537570706c79000000000000000000000000000000000000000000000000602082015250565b600062001788602883620010e4565b915062001795826200172a565b604082019050919050565b60006020820190508181036000830152620017bb8162001779565b9050919050565b614e6680620017d26000396000f3fe608060405234801561001057600080fd5b506004361061018d5760003560e01c806353db7839116100de578063b0e2336e11610097578063f242432a11610071578063f242432a146104b2578063f2a7747d146104ce578063f2fde38b146104ea578063face85ed146105065761018d565b8063b0e2336e14610436578063bd85b03914610452578063e985e9c5146104825761018d565b806353db78391461039e57806361863fe3146103ba578063626fc553146103d6578063715018a6146103f25780638da5cb5b146103fc578063a22cb4651461041a5761018d565b80632eb2c2d61161014b5780634dffed7a116101255780634dffed7a146102f25780634e1273f4146103225780634f558e79146103525780634f56133e146103825761018d565b80632eb2c2d61461028a578063367ff61e146102a6578063428a60ce146102c25761018d565b8062fdd58e1461019257806301ffc9a7146101c257806302fe5305146101f25780630d921e561461020e5780630e89341c1461023e57806312c3448b1461026e575b600080fd5b6101ac60048036038101906101a791906132d0565b610522565b6040516101b9919061331f565b60405180910390f35b6101dc60048036038101906101d79190613392565b6105ea565b6040516101e991906133da565b60405180910390f35b61020c6004803603810190610207919061353b565b6106cc565b005b610228600480360381019061022391906135b0565b6106e0565b6040516102359190613718565b60405180910390f35b6102586004803603810190610253919061373a565b61085c565b60405161026591906137e6565b60405180910390f35b610288600480360381019061028391906132d0565b6108f0565b005b6102a4600480360381019061029f9190613971565b61092b565b005b6102c060048036038101906102bb91906132d0565b6109cc565b005b6102dc60048036038101906102d79190613a40565b610bfa565b6040516102e99190613adc565b60405180910390f35b61030c60048036038101906103079190613afe565b610cda565b604051610319919061331f565b60405180910390f35b61033c60048036038101906103379190613c14565b610d23565b6040516103499190613adc565b60405180910390f35b61036c6004803603810190610367919061373a565b610e3c565b60405161037991906133da565b60405180910390f35b61039c600480360381019061039791906132d0565b610e50565b005b6103b860048036038101906103b39190613c8c565b610f31565b005b6103d460048036038101906103cf91906132d0565b6110e8565b005b6103f060048036038101906103eb9190613cdf565b611271565b005b6103fa611464565b005b610404611478565b6040516104119190613d4a565b60405180910390f35b610434600480360381019061042f9190613d65565b6114a2565b005b610450600480360381019061044b9190613c8c565b6114b8565b005b61046c6004803603810190610467919061373a565b611765565b604051610479919061331f565b60405180910390f35b61049c60048036038101906104979190613da5565b611782565b6040516104a991906133da565b60405180910390f35b6104cc60048036038101906104c79190613de5565b611816565b005b6104e860048036038101906104e3919061373a565b6118b7565b005b61050460048036038101906104ff9190613a40565b611b5f565b005b610520600480360381019061051b9190613c8c565b611be2565b005b60008073ffffffffffffffffffffffffffffffffffffffff168373ffffffffffffffffffffffffffffffffffffffff1603610592576040517f08c379a000000000000000000000000000000000000000000000000000000000815260040161058990613eee565b60405180910390fd5b60008083815260200190815260200160002060008473ffffffffffffffffffffffffffffffffffffffff1673ffffffffffffffffffffffffffffffffffffffff16815260200190815260200160002054905092915050565b60007fd9b67a26000000000000000000000000000000000000000000000000000000007bffffffffffffffffffffffffffffffffffffffffffffffffffffffff1916827bffffffffffffffffffffffffffffffffffffffffffffffffffffffff191614806106b557507f0e89341c000000000000000000000000000000000000000000000000000000007bffffffffffffffffffffffffffffffffffffffffffffffffffffffff1916827bffffffffffffffffffffffffffffffffffffffffffffffffffffffff1916145b806106c557506106c482611f68565b5b9050919050565b6106d4611fd2565b6106dd81612050565b50565b6106e8613200565b81156106f8576106f7836118b7565b5b601354831015600590610741576040517f08c379a00000000000000000000000000000000000000000000000000000000081526004016107389190614007565b60405180910390fd5b5061074a613200565b601660008581526020019081526020016000206001015481602001818152505060166000858152602001908152602001600020600001548160000181815250506107e660166000868152602001908152602001600020600201601660008781526020019081526020016000206002016001015460166000888152602001908152602001600020600201600201546107e19190614058565b612063565b816040018190525061084a60166000868152602001908152602001600020600501601660008781526020019081526020016000206005016001015460166000888152602001908152602001600020600501600201546108459190614058565b612063565b81606001819052508091505092915050565b60606002805461086b90613f3d565b80601f016020809104026020016040519081016040528092919081815260200182805461089790613f3d565b80156108e45780601f106108b9576101008083540402835291602001916108e4565b820191906000526020600020905b8154815290600101906020018083116108c757829003601f168201915b50505050509050919050565b6108f9816118b7565b61092782601260039054906101000a900460ff1660ff1660016040518060200160405280600081525061211f565b5050565b6109336122cf565b73ffffffffffffffffffffffffffffffffffffffff168573ffffffffffffffffffffffffffffffffffffffff1614806109795750610978856109736122cf565b611782565b5b6109b8576040517f08c379a00000000000000000000000000000000000000000000000000000000081526004016109af906140fe565b60405180910390fd5b6109c585858585856122d7565b5050505050565b6109d46122cf565b73ffffffffffffffffffffffffffffffffffffffff168273ffffffffffffffffffffffffffffffffffffffff1614600b90610a45576040517f08c379a0000000000000000000000000000000000000000000000000000000008152600401610a3c9190614007565b60405180910390fd5b50610a4f816118b7565b6001610a6d83601260009054906101000a900460ff1660ff16610522565b1015600790610ab2576040517f08c379a0000000000000000000000000000000000000000000000000000000008152600401610aa99190614007565b60405180910390fd5b506001610ad183601260029054906101000a900460ff1660ff16610522565b1015600890610b16576040517f08c379a0000000000000000000000000000000000000000000000000000000008152600401610b0d9190614007565b60405180910390fd5b506003610b3583601260019054906101000a900460ff1660ff16610522565b1015600990610b7a576040517f08c379a0000000000000000000000000000000000000000000000000000000008152600401610b719190614007565b60405180910390fd5b50610b9982601260009054906101000a900460ff1660ff1660016125f8565b610bb782601260029054906101000a900460ff1660ff1660016125f8565b610bd582601260019054906101000a900460ff1660ff1660036125f8565b610bf6601660008381526020019081526020016000206005016118fb61283e565b5050565b6060610cd3601760008473ffffffffffffffffffffffffffffffffffffffff1673ffffffffffffffffffffffffffffffffffffffff168152602001908152602001600020601760008573ffffffffffffffffffffffffffffffffffffffff1673ffffffffffffffffffffffffffffffffffffffff16815260200190815260200160002060010154601760008673ffffffffffffffffffffffffffffffffffffffff1673ffffffffffffffffffffffffffffffffffffffff16815260200190815260200160002060020154610cce9190614058565b612063565b9050919050565b6000808385610ce9919061411e565b9050828111610cfb5784915050610d1c565b828410610d0c576000915050610d1c565b8383610d189190614058565b9150505b9392505050565b60608151835114610d69576040517f08c379a0000000000000000000000000000000000000000000000000000000008152600401610d60906141c4565b60405180910390fd5b6000835167ffffffffffffffff811115610d8657610d85613410565b5b604051908082528060200260200182016040528015610db45781602001602082028036833780820191505090505b50905060005b8451811015610e3157610e01858281518110610dd957610dd86141e4565b5b6020026020010151858381518110610df457610df36141e4565b5b6020026020010151610522565b828281518110610e1457610e136141e4565b5b60200260200101818152505080610e2a90614213565b9050610dba565b508091505092915050565b600080610e4883611765565b119050919050565b610e59816118b7565b6000610e7b601660008481526020019081526020016000206002016001612063565b600081518110610e8e57610e8d6141e4565b5b60200260200101519050438110600990610ede576040517f08c379a0000000000000000000000000000000000000000000000000000000008152600401610ed59190614007565b60405180910390fd5b50610efd6016600084815260200190815260200160002060020161287c565b50610f2c83601260019054906101000a900460ff1660ff1660016040518060200160405280600081525061211f565b505050565b610f396122cf565b73ffffffffffffffffffffffffffffffffffffffff168373ffffffffffffffffffffffffffffffffffffffff1614600b90610faa576040517f08c379a0000000000000000000000000000000000000000000000000000000008152600401610fa19190614007565b60405180910390fd5b50610fb4826118b7565b80610fd184601260009054906101000a900460ff1660ff16610522565b1015600790611016576040517f08c379a000000000000000000000000000000000000000000000000000000000815260040161100d9190614007565b60405180910390fd5b50600061106a6118fb8361102a919061425b565b601660008681526020019081526020016000206000015443601560009054906101000a900463ffffffff1663ffffffff16611065919061411e565b610cda565b905080601660008581526020019081526020016000206000016000828254611092919061411e565b925050819055506110c5601660008581526020019081526020016000206002016118fb436110c0919061411e565b61283e565b6110e284601260009054906101000a900460ff1660ff16846125f8565b50505050565b6110f1816118b7565b6110f96122cf565b73ffffffffffffffffffffffffffffffffffffffff168273ffffffffffffffffffffffffffffffffffffffff1614600b9061116a576040517f08c379a00000000000000000000000000000000000000000000000000000000081526004016111619190614007565b60405180910390fd5b50600061118d601660008481526020019081526020016000206002016001612063565b6000815181106111a05761119f6141e4565b5b602002602001015190508043116011906111f0576040517f08c379a00000000000000000000000000000000000000000000000000000000081526004016111e79190614007565b60405180910390fd5b5061120f6016600084815260200190815260200160002060050161287c565b5061123e83601260029054906101000a900460ff1660ff1660056040518060200160405280600081525061211f565b61126c83601260009054906101000a900460ff1660ff1660056040518060200160405280600081525061211f565b505050565b6112796122cf565b73ffffffffffffffffffffffffffffffffffffffff168273ffffffffffffffffffffffffffffffffffffffff1614600b906112ea576040517f08c379a00000000000000000000000000000000000000000000000000000000081526004016112e19190614007565b60405180910390fd5b50600161130983601260049054906101000a900460ff1660ff16610522565b101560069061134e576040517f08c379a00000000000000000000000000000000000000000000000000000000081526004016113459190614007565b60405180910390fd5b506014600081548092919061136290614213565b91905055506113768260145460018461211f565b6118fb43611384919061411e565b601660006014548152602001908152602001600020600001819055506118fb436113ae919061411e565b601660006014548152602001908152602001600020600101819055506113f86016600060145481526020019081526020016000206002016118fb436113f3919061411e565b61283e565b611442601760008473ffffffffffffffffffffffffffffffffffffffff1673ffffffffffffffffffffffffffffffffffffffff16815260200190815260200160002060145461283e565b61146082601260049054906101000a900460ff1660ff1660016125f8565b5050565b61146c611fd2565b61147660006128ed565b565b6000600360009054906101000a900473ffffffffffffffffffffffffffffffffffffffff16905090565b6114b46114ad6122cf565b83836129b3565b5050565b6114c1826118b7565b6114ca816118b7565b6114d26122cf565b73ffffffffffffffffffffffffffffffffffffffff168373ffffffffffffffffffffffffffffffffffffffff1614600b90611543576040517f08c379a000000000000000000000000000000000000000000000000000000000815260040161153a9190614007565b60405180910390fd5b5080821415600a9061158b576040517f08c379a00000000000000000000000000000000000000000000000000000000081526004016115829190614007565b60405180910390fd5b5060016115988484610522565b14600b906115dc576040517f08c379a00000000000000000000000000000000000000000000000000000000081526004016115d39190614007565b60405180910390fd5b5060016115e98483610522565b14600b9061162d576040517f08c379a00000000000000000000000000000000000000000000000000000000081526004016116249190614007565b60405180910390fd5b50600a61164c84601260009054906101000a900460ff1660ff16610522565b1015600790611691576040517f08c379a00000000000000000000000000000000000000000000000000000000081526004016116889190614007565b60405180910390fd5b50600a6116b084601260029054906101000a900460ff1660ff16610522565b10156008906116f5576040517f08c379a00000000000000000000000000000000000000000000000000000000081526004016116ec9190614007565b60405180910390fd5b5061171483601260009054906101000a900460ff1660ff16600a6125f8565b61173283601260029054906101000a900460ff1660ff16600a6125f8565b61176083601260049054906101000a900460ff1660ff1660016040518060200160405280600081525061211f565b505050565b600060046000838152602001908152602001600020549050919050565b6000600160008473ffffffffffffffffffffffffffffffffffffffff1673ffffffffffffffffffffffffffffffffffffffff16815260200190815260200160002060008373ffffffffffffffffffffffffffffffffffffffff1673ffffffffffffffffffffffffffffffffffffffff16815260200190815260200160002060009054906101000a900460ff16905092915050565b61181e6122cf565b73ffffffffffffffffffffffffffffffffffffffff168573ffffffffffffffffffffffffffffffffffffffff16148061186457506118638561185e6122cf565b611782565b5b6118a3576040517f08c379a000000000000000000000000000000000000000000000000000000000815260040161189a906140fe565b60405180910390fd5b6118b08585858585612b1f565b5050505050565b601354811015600590611900576040517f08c379a00000000000000000000000000000000000000000000000000000000081526004016118f79190614007565b60405180910390fd5b50600060166000838152602001908152602001600020600001541415600c9061195f576040517f08c379a00000000000000000000000000000000000000000000000000000000081526004016119569190614007565b60405180910390fd5b5060006016600083815260200190815260200160002060000154905060006016600084815260200190815260200160002060010154905060006119b8601660008681526020019081526020016000206002016001612063565b6000815181106119cb576119ca6141e4565b5b602002602001015190506000601560089054906101000a900463ffffffff1663ffffffff16826119fb919061411e565b90504360166000878152602001908152602001600020600101541115611a3557601660008681526020019081526020016000206001015492505b4384108015611a445750828411155b8015611a505750808411155b15611a9357600e6040517f08c379a0000000000000000000000000000000000000000000000000000000008152600401611a8a9190614007565b60405180910390fd5b4383108015611aa157508383105b8015611aac57508083105b15611aef57600f6040517f08c379a0000000000000000000000000000000000000000000000000000000008152600401611ae69190614007565b60405180910390fd5b60008214158015611aff57504381105b8015611b0a57508381105b8015611b1557508281105b15611b585760106040517f08c379a0000000000000000000000000000000000000000000000000000000008152600401611b4f9190614007565b60405180910390fd5b5050505050565b611b67611fd2565b600073ffffffffffffffffffffffffffffffffffffffff168173ffffffffffffffffffffffffffffffffffffffff1603611bd6576040517f08c379a0000000000000000000000000000000000000000000000000000000008152600401611bcd9061430f565b60405180910390fd5b611bdf816128ed565b50565b611bea6122cf565b73ffffffffffffffffffffffffffffffffffffffff168373ffffffffffffffffffffffffffffffffffffffff1614600b90611c5b576040517f08c379a0000000000000000000000000000000000000000000000000000000008152600401611c529190614007565b60405180910390fd5b50611c65826118b7565b80611c8284601260029054906101000a900460ff1660ff16610522565b1015600890611cc7576040517f08c379a0000000000000000000000000000000000000000000000000000000008152600401611cbe9190614007565b60405180910390fd5b506000611d1b6118fb83611cdb919061425b565b601660008681526020019081526020016000206001015443601560049054906101000a900463ffffffff1663ffffffff16611d16919061411e565b610cda565b905080601660008581526020019081526020016000206001016000828254611d43919061411e565b92505081905550611d6784601260029054906101000a900460ff1660ff16846125f8565b50505050565b611d7b868686868686611f60565b600073ffffffffffffffffffffffffffffffffffffffff168573ffffffffffffffffffffffffffffffffffffffff1603611e2c5760005b8351811015611e2a57828181518110611dce57611dcd6141e4565b5b602002602001015160046000868481518110611ded57611dec6141e4565b5b602002602001015181526020019081526020016000206000828254611e12919061411e565b9250508190555080611e2390614213565b9050611db2565b505b600073ffffffffffffffffffffffffffffffffffffffff168473ffffffffffffffffffffffffffffffffffffffff1603611f355760005b8351811015611f33576000848281518110611e8157611e806141e4565b5b602002602001015190506000848381518110611ea057611e9f6141e4565b5b6020026020010151905060006004600084815260200190815260200160002054905081811015611f05576040517f08c379a0000000000000000000000000000000000000000000000000000000008152600401611efc906143a1565b60405180910390fd5b818103600460008581526020019081526020016000208190555050505080611f2c90614213565b9050611e63565b505b505050505050565b6000808273ffffffffffffffffffffffffffffffffffffffff163b119050919050565b505050505050565b60007f01ffc9a7000000000000000000000000000000000000000000000000000000007bffffffffffffffffffffffffffffffffffffffffffffffffffffffff1916827bffffffffffffffffffffffffffffffffffffffffffffffffffffffff1916149050919050565b611fda6122cf565b73ffffffffffffffffffffffffffffffffffffffff16611ff8611478565b73ffffffffffffffffffffffffffffffffffffffff161461204e576040517f08c379a00000000000000000000000000000000000000000000000000000000081526004016120459061440d565b60405180910390fd5b565b806002908161205f91906145c4565b5050565b606060008267ffffffffffffffff81111561208157612080613410565b5b6040519080825280602002602001820160405280156120af5781602001602082028036833780820191505090505b50905060005b83811015612114578460000160008287600101546120d3919061411e565b8152602001908152602001600020548282815181106120f5576120f46141e4565b5b602002602001018181525050808061210c90614213565b9150506120b5565b508091505092915050565b600073ffffffffffffffffffffffffffffffffffffffff168473ffffffffffffffffffffffffffffffffffffffff160361218e576040517f08c379a000000000000000000000000000000000000000000000000000000000815260040161218590614708565b60405180910390fd5b60006121986122cf565b905060006121a585612dba565b905060006121b285612dba565b90506121c383600089858589612e34565b8460008088815260200190815260200160002060008973ffffffffffffffffffffffffffffffffffffffff1673ffffffffffffffffffffffffffffffffffffffff1681526020019081526020016000206000828254612222919061411e565b925050819055508673ffffffffffffffffffffffffffffffffffffffff16600073ffffffffffffffffffffffffffffffffffffffff168473ffffffffffffffffffffffffffffffffffffffff167fc3d58168c5ae7397731d063d5bbf3d657854427343f4c083240f7aacaa2d0f6289896040516122a0929190614728565b60405180910390a46122b783600089858589612e4a565b6122c683600089898989612e52565b50505050505050565b600033905090565b815183511461231b576040517f08c379a0000000000000000000000000000000000000000000000000000000008152600401612312906147c3565b60405180910390fd5b600073ffffffffffffffffffffffffffffffffffffffff168473ffffffffffffffffffffffffffffffffffffffff160361238a576040517f08c379a000000000000000000000000000000000000000000000000000000000815260040161238190614855565b60405180910390fd5b60006123946122cf565b90506123a4818787878787612e34565b60005b84518110156125555760008582815181106123c5576123c46141e4565b5b6020026020010151905060008583815181106123e4576123e36141e4565b5b60200260200101519050600080600084815260200190815260200160002060008b73ffffffffffffffffffffffffffffffffffffffff1673ffffffffffffffffffffffffffffffffffffffff16815260200190815260200160002054905081811015612485576040517f08c379a000000000000000000000000000000000000000000000000000000000815260040161247c906148e7565b60405180910390fd5b81810360008085815260200190815260200160002060008c73ffffffffffffffffffffffffffffffffffffffff1673ffffffffffffffffffffffffffffffffffffffff168152602001908152602001600020819055508160008085815260200190815260200160002060008b73ffffffffffffffffffffffffffffffffffffffff1673ffffffffffffffffffffffffffffffffffffffff168152602001908152602001600020600082825461253a919061411e565b925050819055505050508061254e90614213565b90506123a7565b508473ffffffffffffffffffffffffffffffffffffffff168673ffffffffffffffffffffffffffffffffffffffff168273ffffffffffffffffffffffffffffffffffffffff167f4a39dc06d4c0dbc64b70af90fd698a233a518aa5d07e595d983b8c0526c8f7fb87876040516125cc929190614907565b60405180910390a46125e2818787878787612e4a565b6125f0818787878787613029565b505050505050565b600073ffffffffffffffffffffffffffffffffffffffff168373ffffffffffffffffffffffffffffffffffffffff1603612667576040517f08c379a000000000000000000000000000000000000000000000000000000000815260040161265e906149b0565b60405180910390fd5b60006126716122cf565b9050600061267e84612dba565b9050600061268b84612dba565b90506126ab83876000858560405180602001604052806000815250612e34565b600080600087815260200190815260200160002060008873ffffffffffffffffffffffffffffffffffffffff1673ffffffffffffffffffffffffffffffffffffffff16815260200190815260200160002054905084811015612742576040517f08c379a000000000000000000000000000000000000000000000000000000000815260040161273990614a42565b60405180910390fd5b84810360008088815260200190815260200160002060008973ffffffffffffffffffffffffffffffffffffffff1673ffffffffffffffffffffffffffffffffffffffff16815260200190815260200160002081905550600073ffffffffffffffffffffffffffffffffffffffff168773ffffffffffffffffffffffffffffffffffffffff168573ffffffffffffffffffffffffffffffffffffffff167fc3d58168c5ae7397731d063d5bbf3d657854427343f4c083240f7aacaa2d0f62898960405161280f929190614728565b60405180910390a461283584886000868660405180602001604052806000815250612e4a565b50505050505050565b8082600001600084600201548152602001908152602001600020819055506001826002016000828254612871919061411e565b925050819055505050565b600081600101548260020154101561289357600080fd5b81600001600083600101548152602001908152602001600020549050816000016000836001015481526020019081526020016000206000905560018260010160008282546128e1919061411e565b92505081905550919050565b6000600360009054906101000a900473ffffffffffffffffffffffffffffffffffffffff16905081600360006101000a81548173ffffffffffffffffffffffffffffffffffffffff021916908373ffffffffffffffffffffffffffffffffffffffff1602179055508173ffffffffffffffffffffffffffffffffffffffff168173ffffffffffffffffffffffffffffffffffffffff167f8be0079c531659141344cd1fd0a4f28419497f9722a3daafe3b4186f6b6457e060405160405180910390a35050565b8173ffffffffffffffffffffffffffffffffffffffff168373ffffffffffffffffffffffffffffffffffffffff1603612a21576040517f08c379a0000000000000000000000000000000000000000000000000000000008152600401612a1890614ad4565b60405180910390fd5b80600160008573ffffffffffffffffffffffffffffffffffffffff1673ffffffffffffffffffffffffffffffffffffffff16815260200190815260200160002060008473ffffffffffffffffffffffffffffffffffffffff1673ffffffffffffffffffffffffffffffffffffffff16815260200190815260200160002060006101000a81548160ff0219169083151502179055508173ffffffffffffffffffffffffffffffffffffffff168373ffffffffffffffffffffffffffffffffffffffff167f17307eab39ab6107e8899845ad3d59bd9653f200f220920489ca2b5937696c3183604051612b1291906133da565b60405180910390a3505050565b600073ffffffffffffffffffffffffffffffffffffffff168473ffffffffffffffffffffffffffffffffffffffff1603612b8e576040517f08c379a0000000000000000000000000000000000000000000000000000000008152600401612b8590614855565b60405180910390fd5b6000612b986122cf565b90506000612ba585612dba565b90506000612bb285612dba565b9050612bc2838989858589612e34565b600080600088815260200190815260200160002060008a73ffffffffffffffffffffffffffffffffffffffff1673ffffffffffffffffffffffffffffffffffffffff16815260200190815260200160002054905085811015612c59576040517f08c379a0000000000000000000000000000000000000000000000000000000008152600401612c50906148e7565b60405180910390fd5b85810360008089815260200190815260200160002060008b73ffffffffffffffffffffffffffffffffffffffff1673ffffffffffffffffffffffffffffffffffffffff168152602001908152602001600020819055508560008089815260200190815260200160002060008a73ffffffffffffffffffffffffffffffffffffffff1673ffffffffffffffffffffffffffffffffffffffff1681526020019081526020016000206000828254612d0e919061411e565b925050819055508773ffffffffffffffffffffffffffffffffffffffff168973ffffffffffffffffffffffffffffffffffffffff168573ffffffffffffffffffffffffffffffffffffffff167fc3d58168c5ae7397731d063d5bbf3d657854427343f4c083240f7aacaa2d0f628a8a604051612d8b929190614728565b60405180910390a4612da1848a8a86868a612e4a565b612daf848a8a8a8a8a612e52565b505050505050505050565b60606000600167ffffffffffffffff811115612dd957612dd8613410565b5b604051908082528060200260200182016040528015612e075781602001602082028036833780820191505090505b5090508281600081518110612e1f57612e1e6141e4565b5b60200260200101818152505080915050919050565b612e42868686868686611d6d565b505050505050565b505050505050565b612e718473ffffffffffffffffffffffffffffffffffffffff16611f3d565b15613021578373ffffffffffffffffffffffffffffffffffffffff1663f23a6e6187878686866040518663ffffffff1660e01b8152600401612eb7959493929190614b49565b6020604051808303816000875af1925050508015612ef357506040513d601f19601f82011682018060405250810190612ef09190614bb8565b60015b612f9857612eff614bf2565b806308c379a003612f5b5750612f13614c14565b80612f1e5750612f5d565b806040517f08c379a0000000000000000000000000000000000000000000000000000000008152600401612f5291906137e6565b60405180910390fd5b505b6040517f08c379a0000000000000000000000000000000000000000000000000000000008152600401612f8f90614d16565b60405180910390fd5b63f23a6e6160e01b7bffffffffffffffffffffffffffffffffffffffffffffffffffffffff1916817bffffffffffffffffffffffffffffffffffffffffffffffffffffffff19161461301f576040517f08c379a000000000000000000000000000000000000000000000000000000000815260040161301690614da8565b60405180910390fd5b505b505050505050565b6130488473ffffffffffffffffffffffffffffffffffffffff16611f3d565b156131f8578373ffffffffffffffffffffffffffffffffffffffff1663bc197c8187878686866040518663ffffffff1660e01b815260040161308e959493929190614dc8565b6020604051808303816000875af19250505080156130ca57506040513d601f19601f820116820180604052508101906130c79190614bb8565b60015b61316f576130d6614bf2565b806308c379a00361313257506130ea614c14565b806130f55750613134565b806040517f08c379a000000000000000000000000000000000000000000000000000000000815260040161312991906137e6565b60405180910390fd5b505b6040517f08c379a000000000000000000000000000000000000000000000000000000000815260040161316690614d16565b60405180910390fd5b63bc197c8160e01b7bffffffffffffffffffffffffffffffffffffffffffffffffffffffff1916817bffffffffffffffffffffffffffffffffffffffffffffffffffffffff1916146131f6576040517f08c379a00000000000000000000000000000000000000000000000000000000081526004016131ed90614da8565b60405180910390fd5b505b505050505050565b6040518060800160405280600081526020016000815260200160608152602001606081525090565b6000604051905090565b600080fd5b600080fd5b600073ffffffffffffffffffffffffffffffffffffffff82169050919050565b60006132678261323c565b9050919050565b6132778161325c565b811461328257600080fd5b50565b6000813590506132948161326e565b92915050565b6000819050919050565b6132ad8161329a565b81146132b857600080fd5b50565b6000813590506132ca816132a4565b92915050565b600080604083850312156132e7576132e6613232565b5b60006132f585828601613285565b9250506020613306858286016132bb565b9150509250929050565b6133198161329a565b82525050565b60006020820190506133346000830184613310565b92915050565b60007fffffffff0000000000000000000000000000000000000000000000000000000082169050919050565b61336f8161333a565b811461337a57600080fd5b50565b60008135905061338c81613366565b92915050565b6000602082840312156133a8576133a7613232565b5b60006133b68482850161337d565b91505092915050565b60008115159050919050565b6133d4816133bf565b82525050565b60006020820190506133ef60008301846133cb565b92915050565b600080fd5b600080fd5b6000601f19601f8301169050919050565b7f4e487b7100000000000000000000000000000000000000000000000000000000600052604160045260246000fd5b613448826133ff565b810181811067ffffffffffffffff8211171561346757613466613410565b5b80604052505050565b600061347a613228565b9050613486828261343f565b919050565b600067ffffffffffffffff8211156134a6576134a5613410565b5b6134af826133ff565b9050602081019050919050565b82818337600083830152505050565b60006134de6134d98461348b565b613470565b9050828152602081018484840111156134fa576134f96133fa565b5b6135058482856134bc565b509392505050565b600082601f830112613522576135216133f5565b5b81356135328482602086016134cb565b91505092915050565b60006020828403121561355157613550613232565b5b600082013567ffffffffffffffff81111561356f5761356e613237565b5b61357b8482850161350d565b91505092915050565b61358d816133bf565b811461359857600080fd5b50565b6000813590506135aa81613584565b92915050565b600080604083850312156135c7576135c6613232565b5b60006135d5858286016132bb565b92505060206135e68582860161359b565b9150509250929050565b6135f98161329a565b82525050565b600081519050919050565b600082825260208201905092915050565b6000819050602082019050919050565b600061363783836135f0565b60208301905092915050565b6000602082019050919050565b600061365b826135ff565b613665818561360a565b93506136708361361b565b8060005b838110156136a1578151613688888261362b565b975061369383613643565b925050600181019050613674565b5085935050505092915050565b60006080830160008301516136c660008601826135f0565b5060208301516136d960208601826135f0565b50604083015184820360408601526136f18282613650565b9150506060830151848203606086015261370b8282613650565b9150508091505092915050565b6000602082019050818103600083015261373281846136ae565b905092915050565b6000602082840312156137505761374f613232565b5b600061375e848285016132bb565b91505092915050565b600081519050919050565b600082825260208201905092915050565b60005b838110156137a1578082015181840152602081019050613786565b60008484015250505050565b60006137b882613767565b6137c28185613772565b93506137d2818560208601613783565b6137db816133ff565b840191505092915050565b6000602082019050818103600083015261380081846137ad565b905092915050565b600067ffffffffffffffff82111561382357613822613410565b5b602082029050602081019050919050565b600080fd5b600061384c61384784613808565b613470565b9050808382526020820190506020840283018581111561386f5761386e613834565b5b835b81811015613898578061388488826132bb565b845260208401935050602081019050613871565b5050509392505050565b600082601f8301126138b7576138b66133f5565b5b81356138c7848260208601613839565b91505092915050565b600067ffffffffffffffff8211156138eb576138ea613410565b5b6138f4826133ff565b9050602081019050919050565b600061391461390f846138d0565b613470565b9050828152602081018484840111156139305761392f6133fa565b5b61393b8482856134bc565b509392505050565b600082601f830112613958576139576133f5565b5b8135613968848260208601613901565b91505092915050565b600080600080600060a0868803121561398d5761398c613232565b5b600061399b88828901613285565b95505060206139ac88828901613285565b945050604086013567ffffffffffffffff8111156139cd576139cc613237565b5b6139d9888289016138a2565b935050606086013567ffffffffffffffff8111156139fa576139f9613237565b5b613a06888289016138a2565b925050608086013567ffffffffffffffff811115613a2757613a26613237565b5b613a3388828901613943565b9150509295509295909350565b600060208284031215613a5657613a55613232565b5b6000613a6484828501613285565b91505092915050565b600082825260208201905092915050565b6000613a89826135ff565b613a938185613a6d565b9350613a9e8361361b565b8060005b83811015613acf578151613ab6888261362b565b9750613ac183613643565b925050600181019050613aa2565b5085935050505092915050565b60006020820190508181036000830152613af68184613a7e565b905092915050565b600080600060608486031215613b1757613b16613232565b5b6000613b25868287016132bb565b9350506020613b36868287016132bb565b9250506040613b47868287016132bb565b9150509250925092565b600067ffffffffffffffff821115613b6c57613b6b613410565b5b602082029050602081019050919050565b6000613b90613b8b84613b51565b613470565b90508083825260208201905060208402830185811115613bb357613bb2613834565b5b835b81811015613bdc5780613bc88882613285565b845260208401935050602081019050613bb5565b5050509392505050565b600082601f830112613bfb57613bfa6133f5565b5b8135613c0b848260208601613b7d565b91505092915050565b60008060408385031215613c2b57613c2a613232565b5b600083013567ffffffffffffffff811115613c4957613c48613237565b5b613c5585828601613be6565b925050602083013567ffffffffffffffff811115613c7657613c75613237565b5b613c82858286016138a2565b9150509250929050565b600080600060608486031215613ca557613ca4613232565b5b6000613cb386828701613285565b9350506020613cc4868287016132bb565b9250506040613cd5868287016132bb565b9150509250925092565b60008060408385031215613cf657613cf5613232565b5b6000613d0485828601613285565b925050602083013567ffffffffffffffff811115613d2557613d24613237565b5b613d3185828601613943565b9150509250929050565b613d448161325c565b82525050565b6000602082019050613d5f6000830184613d3b565b92915050565b60008060408385031215613d7c57613d7b613232565b5b6000613d8a85828601613285565b9250506020613d9b8582860161359b565b9150509250929050565b60008060408385031215613dbc57613dbb613232565b5b6000613dca85828601613285565b9250506020613ddb85828601613285565b9150509250929050565b600080600080600060a08688031215613e0157613e00613232565b5b6000613e0f88828901613285565b9550506020613e2088828901613285565b9450506040613e31888289016132bb565b9350506060613e42888289016132bb565b925050608086013567ffffffffffffffff811115613e6357613e62613237565b5b613e6f88828901613943565b9150509295509295909350565b7f455243313135353a2061646472657373207a65726f206973206e6f742061207660008201527f616c6964206f776e657200000000000000000000000000000000000000000000602082015250565b6000613ed8602a83613772565b9150613ee382613e7c565b604082019050919050565b60006020820190508181036000830152613f0781613ecb565b9050919050565b7f4e487b7100000000000000000000000000000000000000000000000000000000600052602260045260246000fd5b60006002820490506001821680613f5557607f821691505b602082108103613f6857613f67613f0e565b5b50919050565b60008190508160005260206000209050919050565b60008154613f9081613f3d565b613f9a8186613772565b94506001821660008114613fb55760018114613fcb57613ffe565b60ff198316865281151560200286019350613ffe565b613fd485613f6e565b60005b83811015613ff657815481890152600182019150602081019050613fd7565b808801955050505b50505092915050565b600060208201905081810360008301526140218184613f83565b905092915050565b7f4e487b7100000000000000000000000000000000000000000000000000000000600052601160045260246000fd5b60006140638261329a565b915061406e8361329a565b925082820390508181111561408657614085614029565b5b92915050565b7f455243313135353a2063616c6c6572206973206e6f7420746f6b656e206f776e60008201527f6572206e6f7220617070726f7665640000000000000000000000000000000000602082015250565b60006140e8602f83613772565b91506140f38261408c565b604082019050919050565b60006020820190508181036000830152614117816140db565b9050919050565b60006141298261329a565b91506141348361329a565b925082820190508082111561414c5761414b614029565b5b92915050565b7f455243313135353a206163636f756e747320616e6420696473206c656e67746860008201527f206d69736d617463680000000000000000000000000000000000000000000000602082015250565b60006141ae602983613772565b91506141b982614152565b604082019050919050565b600060208201905081810360008301526141dd816141a1565b9050919050565b7f4e487b7100000000000000000000000000000000000000000000000000000000600052603260045260246000fd5b600061421e8261329a565b91507fffffffffffffffffffffffffffffffffffffffffffffffffffffffffffffffff82036142505761424f614029565b5b600182019050919050565b60006142668261329a565b91506142718361329a565b925082820261427f8161329a565b9150828204841483151761429657614295614029565b5b5092915050565b7f4f776e61626c653a206e6577206f776e657220697320746865207a65726f206160008201527f6464726573730000000000000000000000000000000000000000000000000000602082015250565b60006142f9602683613772565b91506143048261429d565b604082019050919050565b60006020820190508181036000830152614328816142ec565b9050919050565b7f455243313135353a206275726e20616d6f756e74206578636565647320746f7460008201527f616c537570706c79000000000000000000000000000000000000000000000000602082015250565b600061438b602883613772565b91506143968261432f565b604082019050919050565b600060208201905081810360008301526143ba8161437e565b9050919050565b7f4f776e61626c653a2063616c6c6572206973206e6f7420746865206f776e6572600082015250565b60006143f7602083613772565b9150614402826143c1565b602082019050919050565b60006020820190508181036000830152614426816143ea565b9050919050565b60006020601f8301049050919050565b600082821b905092915050565b60006008830261447a7fffffffffffffffffffffffffffffffffffffffffffffffffffffffffffffffff8261443d565b614484868361443d565b95508019841693508086168417925050509392505050565b6000819050919050565b60006144c16144bc6144b78461329a565b61449c565b61329a565b9050919050565b6000819050919050565b6144db836144a6565b6144ef6144e7826144c8565b84845461444a565b825550505050565b600090565b6145046144f7565b61450f8184846144d2565b505050565b5b81811015614533576145286000826144fc565b600181019050614515565b5050565b601f8211156145785761454981613f6e565b6145528461442d565b81016020851015614561578190505b61457561456d8561442d565b830182614514565b50505b505050565b600082821c905092915050565b600061459b6000198460080261457d565b1980831691505092915050565b60006145b4838361458a565b9150826002028217905092915050565b6145cd82613767565b67ffffffffffffffff8111156145e6576145e5613410565b5b6145f08254613f3d565b6145fb828285614537565b600060209050601f83116001811461462e576000841561461c578287015190505b61462685826145a8565b86555061468e565b601f19841661463c86613f6e565b60005b828110156146645784890151825560018201915060208501945060208101905061463f565b86831015614681578489015161467d601f89168261458a565b8355505b6001600288020188555050505b505050505050565b7f455243313135353a206d696e7420746f20746865207a65726f2061646472657360008201527f7300000000000000000000000000000000000000000000000000000000000000602082015250565b60006146f2602183613772565b91506146fd82614696565b604082019050919050565b60006020820190508181036000830152614721816146e5565b9050919050565b600060408201905061473d6000830185613310565b61474a6020830184613310565b9392505050565b7f455243313135353a2069647320616e6420616d6f756e7473206c656e6774682060008201527f6d69736d61746368000000000000000000000000000000000000000000000000602082015250565b60006147ad602883613772565b91506147b882614751565b604082019050919050565b600060208201905081810360008301526147dc816147a0565b9050919050565b7f455243313135353a207472616e7366657220746f20746865207a65726f20616460008201527f6472657373000000000000000000000000000000000000000000000000000000602082015250565b600061483f602583613772565b915061484a826147e3565b604082019050919050565b6000602082019050818103600083015261486e81614832565b9050919050565b7f455243313135353a20696e73756666696369656e742062616c616e636520666f60008201527f72207472616e7366657200000000000000000000000000000000000000000000602082015250565b60006148d1602a83613772565b91506148dc82614875565b604082019050919050565b60006020820190508181036000830152614900816148c4565b9050919050565b600060408201905081810360008301526149218185613a7e565b905081810360208301526149358184613a7e565b90509392505050565b7f455243313135353a206275726e2066726f6d20746865207a65726f206164647260008201527f6573730000000000000000000000000000000000000000000000000000000000602082015250565b600061499a602383613772565b91506149a58261493e565b604082019050919050565b600060208201905081810360008301526149c98161498d565b9050919050565b7f455243313135353a206275726e20616d6f756e7420657863656564732062616c60008201527f616e636500000000000000000000000000000000000000000000000000000000602082015250565b6000614a2c602483613772565b9150614a37826149d0565b604082019050919050565b60006020820190508181036000830152614a5b81614a1f565b9050919050565b7f455243313135353a2073657474696e6720617070726f76616c2073746174757360008201527f20666f722073656c660000000000000000000000000000000000000000000000602082015250565b6000614abe602983613772565b9150614ac982614a62565b604082019050919050565b60006020820190508181036000830152614aed81614ab1565b9050919050565b600081519050919050565b600082825260208201905092915050565b6000614b1b82614af4565b614b258185614aff565b9350614b35818560208601613783565b614b3e816133ff565b840191505092915050565b600060a082019050614b5e6000830188613d3b565b614b6b6020830187613d3b565b614b786040830186613310565b614b856060830185613310565b8181036080830152614b978184614b10565b90509695505050505050565b600081519050614bb281613366565b92915050565b600060208284031215614bce57614bcd613232565b5b6000614bdc84828501614ba3565b91505092915050565b60008160e01c9050919050565b600060033d1115614c115760046000803e614c0e600051614be5565b90505b90565b600060443d10614ca157614c26613228565b60043d036004823e80513d602482011167ffffffffffffffff82111715614c4e575050614ca1565b808201805167ffffffffffffffff811115614c6c5750505050614ca1565b80602083010160043d038501811115614c89575050505050614ca1565b614c988260200185018661343f565b82955050505050505b90565b7f455243313135353a207472616e7366657220746f206e6f6e204552433131353560008201527f526563656976657220696d706c656d656e746572000000000000000000000000602082015250565b6000614d00603483613772565b9150614d0b82614ca4565b604082019050919050565b60006020820190508181036000830152614d2f81614cf3565b9050919050565b7f455243313135353a204552433131353552656365697665722072656a6563746560008201527f6420746f6b656e73000000000000000000000000000000000000000000000000602082015250565b6000614d92602883613772565b9150614d9d82614d36565b604082019050919050565b60006020820190508181036000830152614dc181614d85565b9050919050565b600060a082019050614ddd6000830188613d3b565b614dea6020830187613d3b565b8181036040830152614dfc8186613a7e565b90508181036060830152614e108185613a7e565b90508181036080830152614e248184614b10565b9050969550505050505056fea26469706673582212205a7ccdd573ce7313b8e2287e045de102df391822b5844cf7a109394d28e3051d64736f6c63430008110033",
  "immutableReferences": {},
  "source": "// SPDX-License-Identifier: MIT\npragma solidity ^0.8.4;\n\nimport \"@openzeppelin/contracts/token/ERC1155/ERC1155.sol\";\nimport \"@openzeppelin/contracts/access/Ownable.sol\";\nimport \"@openzeppelin/contracts/token/ERC1155/extensions/ERC1155Supply.sol\";\n\ncontract Tamablockhi is ERC1155, Ownable, ERC1155Supply {\n    string private ERROR_NOT_TAMO = \"1\";\n    string private ERROR_NO_EGG = \"2\";\n    string private ERROR_INSUFFIENT_FOOD = \"3\";\n    string private ERROR_INSUFFIENT_WATER = \"4\";\n    string private ERROR_INSUFFIENT_POOP = \"5\";\n    string private ERROR_SAME_IDS = \"6\";\n    string private ERROR_NOT_OWNED = \"7\";\n    string private ERROR_UNBORN = \"8\";\n    string private ERROR_DIED = \"9\";\n    string private ERROR_DIED_STARVATION = \"10\";\n    string private ERROR_DIED_DEHYDRATION = \"11\";\n    string private ERROR_DIED_INFECTION = \"12\";\n    string private ERROR_NOT_READY = \"13\";\n\n    uint8 private FOOD_TOKEN_ID = 0;\n    uint8 private POOP_TOKEN_ID = 1; \n    uint8 private WATER_TOKEN_ID = 2;\n    uint8 private LOVE_TOKEN_ID = 3;\n    uint8 private EGG_TOKEN_ID = 4;\n\n    uint256 private TAMO_MIN_TOKEN_ID = 10;\n    uint256 private tamoCurrentId = TAMO_MIN_TOKEN_ID;\n\n    uint32 private maxBlocksBeforeStarvation = 19185; // ~3 days\n    uint32 private maxBlocksBeforeDehydration = 19185; // ~3 days\n    uint32 private maxBlocksPoopInfection = 19185; // ~3 days\n\n    // States for the tomas by ID\n    mapping(uint256 => _TamablockhiState) private states;\n\n    // Maps the tamos to accounts for on chain lookup.\n    mapping(address => Queue) private tamoQueues;\n\n    struct _TamablockhiState { \n        uint256 starvationBlock;\n        uint256 dehydrationBlock;\n        Queue poopQueue;\n        Queue cropQueue;\n    }\n\n    struct TamablockhiState { \n        uint256 starvationBlock;\n        uint256 dehydrationBlock;\n        uint256[] poopQueue;\n        uint256[] cropQueue;\n    }\n\n    constructor() ERC1155(\"\") {\n        _mint(owner(), EGG_TOKEN_ID, 8888, \"\");\n        _mint(owner(), FOOD_TOKEN_ID, 50000, \"\");\n        _mint(owner(), WATER_TOKEN_ID, 50000, \"\");\n    }\n\n    function setURI(string memory newuri) public onlyOwner {\n        _setURI(newuri);\n    }\n\n    // The following functions are overrides required by Solidity.\n    function _beforeTokenTransfer(address operator, address from, address to, uint256[] memory ids, uint256[] memory amounts, bytes memory data)\n        internal\n        override(ERC1155, ERC1155Supply)\n    {\n        super._beforeTokenTransfer(operator, from, to, ids, amounts, data);\n    }\n\n    function getTamablockhiState(uint256 tokenId, bool aliveCheck) public view returns(TamablockhiState memory) {\n        if (aliveCheck) {\n            requireAlive(tokenId);\n        }\n        require(tokenId >= TAMO_MIN_TOKEN_ID, ERROR_NOT_TAMO);\n        TamablockhiState memory tamoState;\n        tamoState.dehydrationBlock = states[tokenId].dehydrationBlock;\n        tamoState.starvationBlock = states[tokenId].starvationBlock;\n        tamoState.poopQueue = peekFirst(states[tokenId].poopQueue, states[tokenId].poopQueue.last - states[tokenId].poopQueue.first);\n        tamoState.cropQueue = peekFirst(states[tokenId].cropQueue, states[tokenId].cropQueue.last - states[tokenId].cropQueue.first);\n        return tamoState;\n    }\n\n    function getTamablockhiIds(address account) public view returns(uint256[] memory) {\n        return peekFirst(\n            tamoQueues[account], \n            tamoQueues[account].last - tamoQueues[account].first\n        );\n    }\n\n    function hatch(\n        address account,\n        bytes memory data\n    ) public {\n        require(account == _msgSender(), ERROR_NOT_OWNED);\n        require(balanceOf(account, EGG_TOKEN_ID) >= 1, ERROR_NO_EGG);\n        tamoCurrentId++;\n        _mint(account, tamoCurrentId, 1, data);\n\n        states[tamoCurrentId].starvationBlock = block.number + 6395;\n        states[tamoCurrentId].dehydrationBlock = block.number + 6395;\n        enqueue(states[tamoCurrentId].poopQueue, block.number + 6395);\n        enqueue(tamoQueues[account], tamoCurrentId);\n\n        _burn(account, EGG_TOKEN_ID, 1); // Spend the egg\n    }\n\n    function feed(\n        address account,\n        uint256 tokenId,\n        uint256 foodAmount\n    ) public {\n        require(account == _msgSender(), ERROR_NOT_OWNED);\n        requireAlive(tokenId);\n        require(balanceOf(account, FOOD_TOKEN_ID) >= foodAmount, ERROR_INSUFFIENT_FOOD);\n\n        // Calculates food to be used up to a max\n        uint256 adjustedFoodAmount = uAdjustedAmount(\n            foodAmount * 6395, \n            states[tokenId].starvationBlock,\n            maxBlocksBeforeStarvation + block.number\n        );\n\n        states[tokenId].starvationBlock += adjustedFoodAmount;\n        enqueue(states[tokenId].poopQueue, block.number + 6395);\n        _burn(account, FOOD_TOKEN_ID, foodAmount); // Spend the food\n    }\n\n    function water(\n        address account,\n        uint256 tokenId,\n        uint256 waterAmount\n    ) public {\n        require(account == _msgSender(), ERROR_NOT_OWNED);\n        requireAlive(tokenId);\n        require(balanceOf(account, WATER_TOKEN_ID) >= waterAmount, ERROR_INSUFFIENT_WATER);\n\n        // Calculates food to be used up to a max\n        uint256 adjustedWaterAmount = uAdjustedAmount(\n            waterAmount * 6395, \n            states[tokenId].dehydrationBlock,\n            maxBlocksBeforeDehydration + block.number\n        );\n\n        states[tokenId].dehydrationBlock += adjustedWaterAmount;\n        _burn(account, WATER_TOKEN_ID, waterAmount);\n    }\n\n    function clean(\n        address account,\n        uint256 tokenId\n    ) public {\n        requireAlive(tokenId);\n        uint256 poopBlock = peekFirst(states[tokenId].poopQueue, 1)[0];\n        require(poopBlock < block.number, ERROR_INSUFFIENT_POOP);\n        dequeue(states[tokenId].poopQueue);\n        _mint(account, POOP_TOKEN_ID, 1, \"\");\n    }\n\n    function pet(\n        address account,\n        uint256 tokenId\n    ) public {\n        requireAlive(tokenId);\n        _mint(account, LOVE_TOKEN_ID, 1, \"\");\n    }\n\n    function plantFood(\n        address account,\n        uint256 tokenId\n    ) public {\n        require(account == _msgSender(), ERROR_NOT_OWNED);\n        requireAlive(tokenId);\n        require(balanceOf(account, FOOD_TOKEN_ID) >= 1, ERROR_INSUFFIENT_FOOD);\n        require(balanceOf(account, WATER_TOKEN_ID) >= 1, ERROR_INSUFFIENT_WATER);\n        require(balanceOf(account, POOP_TOKEN_ID) >= 3, ERROR_INSUFFIENT_POOP);\n\n        // Resources required to plant a crop\n        _burn(account, FOOD_TOKEN_ID, 1);\n        _burn(account, WATER_TOKEN_ID, 1);\n        _burn(account, POOP_TOKEN_ID, 3);\n\n        enqueue(states[tokenId].cropQueue, 6395); //Ready after 6395\n    }\n\n    function harvestFood(\n        address account,\n        uint256 tokenId\n    ) public {\n        requireAlive(tokenId);\n        require(account == _msgSender(), ERROR_NOT_OWNED);\n        uint256 cropBlock = peekFirst(states[tokenId].poopQueue, 1)[0];\n        require(block.number > cropBlock, ERROR_NOT_READY);\n        dequeue(states[tokenId].cropQueue);\n        _mint(account, WATER_TOKEN_ID, 5, \"\");\n        _mint(account, FOOD_TOKEN_ID, 5, \"\");\n    }\n\n    function mate(\n        address account,\n        uint256 tamoIdOne,\n        uint256 tamoIdTwo\n    ) public {\n        requireAlive(tamoIdOne);\n        requireAlive(tamoIdTwo);\n        require(account == _msgSender(), ERROR_NOT_OWNED);\n        require(tamoIdOne != tamoIdTwo, ERROR_SAME_IDS);\n        require(balanceOf(account, tamoIdOne) == 1, ERROR_NOT_OWNED);\n        require(balanceOf(account, tamoIdTwo) == 1, ERROR_NOT_OWNED);\n\n        require(balanceOf(account, FOOD_TOKEN_ID) >= 10, ERROR_INSUFFIENT_FOOD);\n        require(balanceOf(account, WATER_TOKEN_ID) >= 10, ERROR_INSUFFIENT_WATER);\n\n        _burn(account, FOOD_TOKEN_ID, 10);\n        _burn(account, WATER_TOKEN_ID, 10);\n        _mint(account, EGG_TOKEN_ID, 1, \"\");\n    }\n\n    function requireAlive(uint256 tokenId) public view {\n        require(tokenId >= TAMO_MIN_TOKEN_ID, ERROR_NOT_TAMO);\n        require(states[tokenId].starvationBlock != 0, ERROR_UNBORN);\n\n        uint256 blockDiedOfStarvation = states[tokenId].starvationBlock;\n        uint256 blockDiedOfDehydration = states[tokenId].dehydrationBlock;\n        uint256 poopBlock = peekFirst(states[tokenId].poopQueue, 1)[0];\n        uint256 blockDiedOfInfection = poopBlock + maxBlocksPoopInfection;\n\n        if (states[tokenId].dehydrationBlock > block.number) {\n            // Tamo died of dehydration\n            blockDiedOfDehydration = states[tokenId].dehydrationBlock;\n        }\n    \n        if (blockDiedOfStarvation < block.number && blockDiedOfStarvation <= blockDiedOfDehydration && blockDiedOfStarvation <= blockDiedOfInfection) {\n            // Died of starvation\n            revert(ERROR_DIED_STARVATION);\n        } else if (blockDiedOfDehydration < block.number && blockDiedOfDehydration < blockDiedOfStarvation && blockDiedOfDehydration < blockDiedOfInfection) {\n            // Died of dehydration\n            revert(ERROR_DIED_DEHYDRATION);\n        } else if (poopBlock != 0 && blockDiedOfInfection < block.number && blockDiedOfInfection < blockDiedOfStarvation && blockDiedOfInfection < blockDiedOfDehydration) {\n            // Died of infection\n            revert(ERROR_DIED_INFECTION);\n        }\n    }\n\n    function uAdjustedAmount(\n        uint256 amountToAdd,\n        uint256 currentAmount,\n        uint256 maxAmount\n    ) public pure returns(uint256) {\n        uint256 totalAmount = amountToAdd + currentAmount;\n        if (totalAmount <= maxAmount) {\n            // The amountToAdd is still not maxed out. Free to add the entire amount\n            return amountToAdd;\n        }\n        // TotalAmount must be greater than maxAmount\n\n        if (currentAmount >= maxAmount) {\n            // current amount is greater than max. Can't do anything but return zero.\n            // This should be an error\n            return 0;\n        }\n        // Current amount must be less than maxAmount.\n        // amountToAdd must be greater than maxAmount. \n\n        // Take the maxAmount - currentAmount.\n        return maxAmount - currentAmount;\n    }\n\n    /**\n    * Queue Implementation\n    */\n    struct Queue { \n        mapping(uint256 => uint256) items;\n        uint256 first;\n        uint256 last;\n    }\n\n    function peekFirst(Queue storage queue, uint n) internal view returns (uint256[] memory) {\n        uint256[] memory items = new uint256[](n);\n        for (uint i = 0; i < n; i++) {\n            items[i] = queue.items[queue.first + i];\n        }\n        return items;\n    }\n\n    function enqueue(Queue storage queue, uint256 data) internal {\n        queue.items[queue.last] = data;\n        queue.last += 1;\n    }\n\n    function dequeue(Queue storage queue) internal returns (uint256 data) {\n        require(queue.last >= queue.first);  // non-empty queue\n        data = queue.items[queue.first];\n        delete queue.items[queue.first];\n        queue.first += 1;\n    }\n}",
  "sourcePath": "/Users/jmalfara/Documents/tamoblockhi/contracts/Tamablockhi.sol",
  "compiler": {
    "name": "solc",
    "version": "0.8.17+commit.8df45f5f.Emscripten.clang"
  },
  "schemaVersion": "3.4.8",
  "updatedAt": "2022-09-29T02:41:06.698Z",
  "networkType": "ethereum",
  "devdoc": {
    "kind": "dev",
    "methods": {
      "balanceOf(address,uint256)": {
        "details": "See {IERC1155-balanceOf}. Requirements: - `account` cannot be the zero address."
      },
      "balanceOfBatch(address[],uint256[])": {
        "details": "See {IERC1155-balanceOfBatch}. Requirements: - `accounts` and `ids` must have the same length."
      },
      "exists(uint256)": {
        "details": "Indicates whether any token exist with a given id, or not."
      },
      "isApprovedForAll(address,address)": {
        "details": "See {IERC1155-isApprovedForAll}."
      },
      "owner()": {
        "details": "Returns the address of the current owner."
      },
      "renounceOwnership()": {
        "details": "Leaves the contract without owner. It will not be possible to call `onlyOwner` functions anymore. Can only be called by the current owner. NOTE: Renouncing ownership will leave the contract without an owner, thereby removing any functionality that is only available to the owner."
      },
      "safeBatchTransferFrom(address,address,uint256[],uint256[],bytes)": {
        "details": "See {IERC1155-safeBatchTransferFrom}."
      },
      "safeTransferFrom(address,address,uint256,uint256,bytes)": {
        "details": "See {IERC1155-safeTransferFrom}."
      },
      "setApprovalForAll(address,bool)": {
        "details": "See {IERC1155-setApprovalForAll}."
      },
      "supportsInterface(bytes4)": {
        "details": "See {IERC165-supportsInterface}."
      },
      "totalSupply(uint256)": {
        "details": "Total amount of tokens in with a given id."
      },
      "transferOwnership(address)": {
        "details": "Transfers ownership of the contract to a new account (`newOwner`). Can only be called by the current owner."
      },
      "uri(uint256)": {
        "details": "See {IERC1155MetadataURI-uri}. This implementation returns the same URI for *all* token types. It relies on the token type ID substitution mechanism https://eips.ethereum.org/EIPS/eip-1155#metadata[defined in the EIP]. Clients calling this function must replace the `\\{id\\}` substring with the actual token type ID."
      }
    },
    "version": 1
  },
  "userdoc": {
    "kind": "user",
    "methods": {},
    "version": 1
  }
}