{
  "contractName": "Tamoblockhi",
  "abi": [
    {
      "inputs": [],
      "stateMutability": "nonpayable",
      "type": "constructor"
    },
    {
      "anonymous": false,
      "inputs": [
        {
          "indexed": true,
          "internalType": "address",
          "name": "account",
          "type": "address"
        },
        {
          "indexed": true,
          "internalType": "address",
          "name": "operator",
          "type": "address"
        },
        {
          "indexed": false,
          "internalType": "bool",
          "name": "approved",
          "type": "bool"
        }
      ],
      "name": "ApprovalForAll",
      "type": "event"
    },
    {
      "anonymous": false,
      "inputs": [
        {
          "indexed": true,
          "internalType": "address",
          "name": "previousOwner",
          "type": "address"
        },
        {
          "indexed": true,
          "internalType": "address",
          "name": "newOwner",
          "type": "address"
        }
      ],
      "name": "OwnershipTransferred",
      "type": "event"
    },
    {
      "anonymous": false,
      "inputs": [
        {
          "indexed": true,
          "internalType": "address",
          "name": "operator",
          "type": "address"
        },
        {
          "indexed": true,
          "internalType": "address",
          "name": "from",
          "type": "address"
        },
        {
          "indexed": true,
          "internalType": "address",
          "name": "to",
          "type": "address"
        },
        {
          "indexed": false,
          "internalType": "uint256[]",
          "name": "ids",
          "type": "uint256[]"
        },
        {
          "indexed": false,
          "internalType": "uint256[]",
          "name": "values",
          "type": "uint256[]"
        }
      ],
      "name": "TransferBatch",
      "type": "event"
    },
    {
      "anonymous": false,
      "inputs": [
        {
          "indexed": true,
          "internalType": "address",
          "name": "operator",
          "type": "address"
        },
        {
          "indexed": true,
          "internalType": "address",
          "name": "from",
          "type": "address"
        },
        {
          "indexed": true,
          "internalType": "address",
          "name": "to",
          "type": "address"
        },
        {
          "indexed": false,
          "internalType": "uint256",
          "name": "id",
          "type": "uint256"
        },
        {
          "indexed": false,
          "internalType": "uint256",
          "name": "value",
          "type": "uint256"
        }
      ],
      "name": "TransferSingle",
      "type": "event"
    },
    {
      "anonymous": false,
      "inputs": [
        {
          "indexed": false,
          "internalType": "string",
          "name": "value",
          "type": "string"
        },
        {
          "indexed": true,
          "internalType": "uint256",
          "name": "id",
          "type": "uint256"
        }
      ],
      "name": "URI",
      "type": "event"
    },
    {
      "inputs": [
        {
          "internalType": "address",
          "name": "account",
          "type": "address"
        },
        {
          "internalType": "uint256",
          "name": "id",
          "type": "uint256"
        }
      ],
      "name": "balanceOf",
      "outputs": [
        {
          "internalType": "uint256",
          "name": "",
          "type": "uint256"
        }
      ],
      "stateMutability": "view",
      "type": "function",
      "constant": true
    },
    {
      "inputs": [
        {
          "internalType": "address[]",
          "name": "accounts",
          "type": "address[]"
        },
        {
          "internalType": "uint256[]",
          "name": "ids",
          "type": "uint256[]"
        }
      ],
      "name": "balanceOfBatch",
      "outputs": [
        {
          "internalType": "uint256[]",
          "name": "",
          "type": "uint256[]"
        }
      ],
      "stateMutability": "view",
      "type": "function",
      "constant": true
    },
    {
      "inputs": [
        {
          "internalType": "uint256",
          "name": "id",
          "type": "uint256"
        }
      ],
      "name": "exists",
      "outputs": [
        {
          "internalType": "bool",
          "name": "",
          "type": "bool"
        }
      ],
      "stateMutability": "view",
      "type": "function",
      "constant": true
    },
    {
      "inputs": [
        {
          "internalType": "address",
          "name": "account",
          "type": "address"
        },
        {
          "internalType": "address",
          "name": "operator",
          "type": "address"
        }
      ],
      "name": "isApprovedForAll",
      "outputs": [
        {
          "internalType": "bool",
          "name": "",
          "type": "bool"
        }
      ],
      "stateMutability": "view",
      "type": "function",
      "constant": true
    },
    {
      "inputs": [],
      "name": "owner",
      "outputs": [
        {
          "internalType": "address",
          "name": "",
          "type": "address"
        }
      ],
      "stateMutability": "view",
      "type": "function",
      "constant": true
    },
    {
      "inputs": [],
      "name": "renounceOwnership",
      "outputs": [],
      "stateMutability": "nonpayable",
      "type": "function"
    },
    {
      "inputs": [
        {
          "internalType": "address",
          "name": "from",
          "type": "address"
        },
        {
          "internalType": "address",
          "name": "to",
          "type": "address"
        },
        {
          "internalType": "uint256[]",
          "name": "ids",
          "type": "uint256[]"
        },
        {
          "internalType": "uint256[]",
          "name": "amounts",
          "type": "uint256[]"
        },
        {
          "internalType": "bytes",
          "name": "data",
          "type": "bytes"
        }
      ],
      "name": "safeBatchTransferFrom",
      "outputs": [],
      "stateMutability": "nonpayable",
      "type": "function"
    },
    {
      "inputs": [
        {
          "internalType": "address",
          "name": "from",
          "type": "address"
        },
        {
          "internalType": "address",
          "name": "to",
          "type": "address"
        },
        {
          "internalType": "uint256",
          "name": "id",
          "type": "uint256"
        },
        {
          "internalType": "uint256",
          "name": "amount",
          "type": "uint256"
        },
        {
          "internalType": "bytes",
          "name": "data",
          "type": "bytes"
        }
      ],
      "name": "safeTransferFrom",
      "outputs": [],
      "stateMutability": "nonpayable",
      "type": "function"
    },
    {
      "inputs": [
        {
          "internalType": "address",
          "name": "operator",
          "type": "address"
        },
        {
          "internalType": "bool",
          "name": "approved",
          "type": "bool"
        }
      ],
      "name": "setApprovalForAll",
      "outputs": [],
      "stateMutability": "nonpayable",
      "type": "function"
    },
    {
      "inputs": [
        {
          "internalType": "bytes4",
          "name": "interfaceId",
          "type": "bytes4"
        }
      ],
      "name": "supportsInterface",
      "outputs": [
        {
          "internalType": "bool",
          "name": "",
          "type": "bool"
        }
      ],
      "stateMutability": "view",
      "type": "function",
      "constant": true
    },
    {
      "inputs": [
        {
          "internalType": "uint256",
          "name": "id",
          "type": "uint256"
        }
      ],
      "name": "totalSupply",
      "outputs": [
        {
          "internalType": "uint256",
          "name": "",
          "type": "uint256"
        }
      ],
      "stateMutability": "view",
      "type": "function",
      "constant": true
    },
    {
      "inputs": [
        {
          "internalType": "address",
          "name": "newOwner",
          "type": "address"
        }
      ],
      "name": "transferOwnership",
      "outputs": [],
      "stateMutability": "nonpayable",
      "type": "function"
    },
    {
      "inputs": [
        {
          "internalType": "uint256",
          "name": "",
          "type": "uint256"
        }
      ],
      "name": "uri",
      "outputs": [
        {
          "internalType": "string",
          "name": "",
          "type": "string"
        }
      ],
      "stateMutability": "view",
      "type": "function",
      "constant": true
    },
    {
      "inputs": [
        {
          "internalType": "string",
          "name": "newuri",
          "type": "string"
        }
      ],
      "name": "setURI",
      "outputs": [],
      "stateMutability": "nonpayable",
      "type": "function"
    },
    {
      "inputs": [
        {
          "internalType": "uint256",
          "name": "tokenId",
          "type": "uint256"
        }
      ],
      "name": "starvationBlockOf",
      "outputs": [
        {
          "internalType": "uint256",
          "name": "",
          "type": "uint256"
        }
      ],
      "stateMutability": "view",
      "type": "function",
      "constant": true
    },
    {
      "inputs": [
        {
          "internalType": "uint256",
          "name": "tokenId",
          "type": "uint256"
        }
      ],
      "name": "dehydrationBlockOf",
      "outputs": [
        {
          "internalType": "uint256",
          "name": "",
          "type": "uint256"
        }
      ],
      "stateMutability": "view",
      "type": "function",
      "constant": true
    },
    {
      "inputs": [
        {
          "internalType": "uint256",
          "name": "tokenId",
          "type": "uint256"
        }
      ],
      "name": "poopScheduledForBlocks",
      "outputs": [
        {
          "internalType": "uint256[]",
          "name": "",
          "type": "uint256[]"
        }
      ],
      "stateMutability": "view",
      "type": "function",
      "constant": true
    },
    {
      "inputs": [
        {
          "internalType": "uint256",
          "name": "tokenId",
          "type": "uint256"
        }
      ],
      "name": "cropScheduledForBlock",
      "outputs": [
        {
          "internalType": "uint256[]",
          "name": "",
          "type": "uint256[]"
        }
      ],
      "stateMutability": "view",
      "type": "function",
      "constant": true
    },
    {
      "inputs": [
        {
          "internalType": "address",
          "name": "account",
          "type": "address"
        },
        {
          "internalType": "bytes",
          "name": "data",
          "type": "bytes"
        }
      ],
      "name": "hatch",
      "outputs": [],
      "stateMutability": "nonpayable",
      "type": "function"
    },
    {
      "inputs": [
        {
          "internalType": "address",
          "name": "account",
          "type": "address"
        },
        {
          "internalType": "uint256",
          "name": "tokenId",
          "type": "uint256"
        },
        {
          "internalType": "uint256",
          "name": "foodAmount",
          "type": "uint256"
        }
      ],
      "name": "feed",
      "outputs": [],
      "stateMutability": "nonpayable",
      "type": "function"
    },
    {
      "inputs": [
        {
          "internalType": "address",
          "name": "account",
          "type": "address"
        },
        {
          "internalType": "uint256",
          "name": "tokenId",
          "type": "uint256"
        },
        {
          "internalType": "uint256",
          "name": "waterAmount",
          "type": "uint256"
        }
      ],
      "name": "water",
      "outputs": [],
      "stateMutability": "nonpayable",
      "type": "function"
    },
    {
      "inputs": [
        {
          "internalType": "address",
          "name": "account",
          "type": "address"
        },
        {
          "internalType": "uint256",
          "name": "tokenId",
          "type": "uint256"
        }
      ],
      "name": "clean",
      "outputs": [],
      "stateMutability": "nonpayable",
      "type": "function"
    },
    {
      "inputs": [
        {
          "internalType": "address",
          "name": "account",
          "type": "address"
        },
        {
          "internalType": "uint256",
          "name": "tokenId",
          "type": "uint256"
        }
      ],
      "name": "pet",
      "outputs": [],
      "stateMutability": "nonpayable",
      "type": "function"
    },
    {
      "inputs": [
        {
          "internalType": "address",
          "name": "account",
          "type": "address"
        },
        {
          "internalType": "uint256",
          "name": "tokenId",
          "type": "uint256"
        }
      ],
      "name": "plantFood",
      "outputs": [],
      "stateMutability": "nonpayable",
      "type": "function"
    },
    {
      "inputs": [
        {
          "internalType": "address",
          "name": "account",
          "type": "address"
        },
        {
          "internalType": "uint256",
          "name": "tokenId",
          "type": "uint256"
        }
      ],
      "name": "harvestFood",
      "outputs": [],
      "stateMutability": "nonpayable",
      "type": "function"
    },
    {
      "inputs": [
        {
          "internalType": "address",
          "name": "account",
          "type": "address"
        },
        {
          "internalType": "uint256",
          "name": "tamoIdOne",
          "type": "uint256"
        },
        {
          "internalType": "uint256",
          "name": "tamoIdTwo",
          "type": "uint256"
        }
      ],
      "name": "mate",
      "outputs": [],
      "stateMutability": "nonpayable",
      "type": "function"
    },
    {
      "inputs": [
        {
          "internalType": "uint256",
          "name": "amountToAdd",
          "type": "uint256"
        },
        {
          "internalType": "uint256",
          "name": "currentAmount",
          "type": "uint256"
        },
        {
          "internalType": "uint256",
          "name": "maxAmount",
          "type": "uint256"
        }
      ],
      "name": "uAdjustedAmount",
      "outputs": [
        {
          "internalType": "uint256",
          "name": "",
          "type": "uint256"
        }
      ],
      "stateMutability": "pure",
      "type": "function",
      "constant": true
    }
  ],
  "bytecode": "0x60806040526040518060400160405280600181526020017f3100000000000000000000000000000000000000000000000000000000000000815250600590816200004a919062000ffc565b506040518060400160405280600181526020017f32000000000000000000000000000000000000000000000000000000000000008152506006908162000091919062000ffc565b506040518060400160405280600181526020017f330000000000000000000000000000000000000000000000000000000000000081525060079081620000d8919062000ffc565b506040518060400160405280600181526020017f3400000000000000000000000000000000000000000000000000000000000000815250600890816200011f919062000ffc565b506040518060400160405280600181526020017f35000000000000000000000000000000000000000000000000000000000000008152506009908162000166919062000ffc565b506040518060400160405280600181526020017f3600000000000000000000000000000000000000000000000000000000000000815250600a9081620001ad919062000ffc565b506040518060400160405280600181526020017f3700000000000000000000000000000000000000000000000000000000000000815250600b9081620001f4919062000ffc565b506040518060400160405280600181526020017f3800000000000000000000000000000000000000000000000000000000000000815250600c90816200023b919062000ffc565b506040518060400160405280600181526020017f3900000000000000000000000000000000000000000000000000000000000000815250600d908162000282919062000ffc565b506040518060400160405280600281526020017f3130000000000000000000000000000000000000000000000000000000000000815250600e9081620002c9919062000ffc565b506040518060400160405280600281526020017f3131000000000000000000000000000000000000000000000000000000000000815250600f908162000310919062000ffc565b506040518060400160405280600281526020017f31320000000000000000000000000000000000000000000000000000000000008152506010908162000357919062000ffc565b506000601160006101000a81548160ff021916908360ff1602179055506001601160016101000a81548160ff021916908360ff1602179055506002601160026101000a81548160ff021916908360ff1602179055506003601160036101000a81548160ff021916908360ff1602179055506004601160046101000a81548160ff021916908360ff160217905550600a601255601254601355614af1601460006101000a81548163ffffffff021916908363ffffffff160217905550614af1601460046101000a81548163ffffffff021916908363ffffffff160217905550614af1601460086101000a81548163ffffffff021916908363ffffffff1602179055506118fb6014600c6101000a81548163ffffffff021916908363ffffffff1602179055506118fb601460106101000a81548163ffffffff021916908363ffffffff160217905550348015620004ab57600080fd5b5060405180602001604052806000815250620004cd81620005c660201b60201c565b50620004ee620004e2620005db60201b60201c565b620005e360201b60201c565b6200053462000502620006a960201b60201c565b601160049054906101000a900460ff1660ff166122b860405180602001604052806000815250620006d360201b60201c565b6200057a62000548620006a960201b60201c565b601160009054906101000a900460ff1660ff1661c35060405180602001604052806000815250620006d360201b60201c565b620005c06200058e620006a960201b60201c565b601160029054906101000a900460ff1660ff1661c35060405180602001604052806000815250620006d360201b60201c565b620017c1565b8060029081620005d7919062000ffc565b5050565b600033905090565b6000600360009054906101000a900473ffffffffffffffffffffffffffffffffffffffff16905081600360006101000a81548173ffffffffffffffffffffffffffffffffffffffff021916908373ffffffffffffffffffffffffffffffffffffffff1602179055508173ffffffffffffffffffffffffffffffffffffffff168173ffffffffffffffffffffffffffffffffffffffff167f8be0079c531659141344cd1fd0a4f28419497f9722a3daafe3b4186f6b6457e060405160405180910390a35050565b6000600360009054906101000a900473ffffffffffffffffffffffffffffffffffffffff16905090565b600073ffffffffffffffffffffffffffffffffffffffff168473ffffffffffffffffffffffffffffffffffffffff160362000745576040517f08c379a00000000000000000000000000000000000000000000000000000000081526004016200073c906200116a565b60405180910390fd5b600062000757620005db60201b60201c565b905060006200076c85620008ba60201b60201c565b905060006200078185620008ba60201b60201c565b90506200079a836000898585896200093b60201b60201c565b8460008088815260200190815260200160002060008973ffffffffffffffffffffffffffffffffffffffff1673ffffffffffffffffffffffffffffffffffffffff1681526020019081526020016000206000828254620007fb9190620011bb565b925050819055508673ffffffffffffffffffffffffffffffffffffffff16600073ffffffffffffffffffffffffffffffffffffffff168473ffffffffffffffffffffffffffffffffffffffff167fc3d58168c5ae7397731d063d5bbf3d657854427343f4c083240f7aacaa2d0f6289896040516200087b92919062001207565b60405180910390a46200089a836000898585896200095e60201b60201c565b620008b1836000898989896200096660201b60201c565b50505050505050565b60606000600167ffffffffffffffff811115620008dc57620008db62000d8d565b5b6040519080825280602002602001820160405280156200090b5781602001602082028036833780820191505090505b509050828160008151811062000926576200092562001234565b5b60200260200101818152505080915050919050565b6200095686868686868662000b5f60201b62002e711760201c565b505050505050565b505050505050565b620009928473ffffffffffffffffffffffffffffffffffffffff1662000d5760201b620030411760201c565b1562000b57578373ffffffffffffffffffffffffffffffffffffffff1663f23a6e6187878686866040518663ffffffff1660e01b8152600401620009db95949392919062001342565b6020604051808303816000875af192505050801562000a1a57506040513d601f19601f8201168201806040525081019062000a17919062001412565b60015b62000acb5762000a2962001451565b806308c379a00362000a8c575062000a40620014ac565b8062000a4d575062000a8e565b806040517f08c379a000000000000000000000000000000000000000000000000000000000815260040162000a83919062001588565b60405180910390fd5b505b6040517f08c379a000000000000000000000000000000000000000000000000000000000815260040162000ac29062001622565b60405180910390fd5b63f23a6e6160e01b7bffffffffffffffffffffffffffffffffffffffffffffffffffffffff1916817bffffffffffffffffffffffffffffffffffffffffffffffffffffffff19161462000b55576040517f08c379a000000000000000000000000000000000000000000000000000000000815260040162000b4c90620016ba565b60405180910390fd5b505b505050505050565b62000b7a86868686868662000d7a60201b620030641760201c565b600073ffffffffffffffffffffffffffffffffffffffff168573ffffffffffffffffffffffffffffffffffffffff160362000c385760005b835181101562000c365782818151811062000bd25762000bd162001234565b5b60200260200101516004600086848151811062000bf45762000bf362001234565b5b60200260200101518152602001908152602001600020600082825462000c1b9190620011bb565b925050819055508062000c2e90620016dc565b905062000bb2565b505b600073ffffffffffffffffffffffffffffffffffffffff168473ffffffffffffffffffffffffffffffffffffffff160362000d4f5760005b835181101562000d4d57600084828151811062000c925762000c9162001234565b5b60200260200101519050600084838151811062000cb45762000cb362001234565b5b602002602001015190506000600460008481526020019081526020016000205490508181101562000d1c576040517f08c379a000000000000000000000000000000000000000000000000000000000815260040162000d13906200179f565b60405180910390fd5b81810360046000858152602001908152602001600020819055505050508062000d4590620016dc565b905062000c70565b505b505050505050565b6000808273ffffffffffffffffffffffffffffffffffffffff163b119050919050565b505050505050565b600081519050919050565b7f4e487b7100000000000000000000000000000000000000000000000000000000600052604160045260246000fd5b7f4e487b7100000000000000000000000000000000000000000000000000000000600052602260045260246000fd5b6000600282049050600182168062000e0457607f821691505b60208210810362000e1a5762000e1962000dbc565b5b50919050565b60008190508160005260206000209050919050565b60006020601f8301049050919050565b600082821b905092915050565b60006008830262000e847fffffffffffffffffffffffffffffffffffffffffffffffffffffffffffffffff8262000e45565b62000e90868362000e45565b95508019841693508086168417925050509392505050565b6000819050919050565b6000819050919050565b600062000edd62000ed762000ed18462000ea8565b62000eb2565b62000ea8565b9050919050565b6000819050919050565b62000ef98362000ebc565b62000f1162000f088262000ee4565b84845462000e52565b825550505050565b600090565b62000f2862000f19565b62000f3581848462000eee565b505050565b5b8181101562000f5d5762000f5160008262000f1e565b60018101905062000f3b565b5050565b601f82111562000fac5762000f768162000e20565b62000f818462000e35565b8101602085101562000f91578190505b62000fa962000fa08562000e35565b83018262000f3a565b50505b505050565b600082821c905092915050565b600062000fd16000198460080262000fb1565b1980831691505092915050565b600062000fec838362000fbe565b9150826002028217905092915050565b620010078262000d82565b67ffffffffffffffff81111562001023576200102262000d8d565b5b6200102f825462000deb565b6200103c82828562000f61565b600060209050601f8311600181146200107457600084156200105f578287015190505b6200106b858262000fde565b865550620010db565b601f198416620010848662000e20565b60005b82811015620010ae5784890151825560018201915060208501945060208101905062001087565b86831015620010ce5784890151620010ca601f89168262000fbe565b8355505b6001600288020188555050505b505050505050565b600082825260208201905092915050565b7f455243313135353a206d696e7420746f20746865207a65726f2061646472657360008201527f7300000000000000000000000000000000000000000000000000000000000000602082015250565b600062001152602183620010e3565b91506200115f82620010f4565b604082019050919050565b60006020820190508181036000830152620011858162001143565b9050919050565b7f4e487b7100000000000000000000000000000000000000000000000000000000600052601160045260246000fd5b6000620011c88262000ea8565b9150620011d58362000ea8565b9250828201905080821115620011f057620011ef6200118c565b5b92915050565b620012018162000ea8565b82525050565b60006040820190506200121e6000830185620011f6565b6200122d6020830184620011f6565b9392505050565b7f4e487b7100000000000000000000000000000000000000000000000000000000600052603260045260246000fd5b600073ffffffffffffffffffffffffffffffffffffffff82169050919050565b6000620012908262001263565b9050919050565b620012a28162001283565b82525050565b600081519050919050565b600082825260208201905092915050565b60005b83811015620012e4578082015181840152602081019050620012c7565b60008484015250505050565b6000601f19601f8301169050919050565b60006200130e82620012a8565b6200131a8185620012b3565b93506200132c818560208601620012c4565b6200133781620012f0565b840191505092915050565b600060a08201905062001359600083018862001297565b62001368602083018762001297565b620013776040830186620011f6565b620013866060830185620011f6565b81810360808301526200139a818462001301565b90509695505050505050565b6000604051905090565b600080fd5b60007fffffffff0000000000000000000000000000000000000000000000000000000082169050919050565b620013ec81620013b5565b8114620013f857600080fd5b50565b6000815190506200140c81620013e1565b92915050565b6000602082840312156200142b576200142a620013b0565b5b60006200143b84828501620013fb565b91505092915050565b60008160e01c9050919050565b600060033d1115620014735760046000803e6200147060005162001444565b90505b90565b6200148182620012f0565b810181811067ffffffffffffffff82111715620014a357620014a262000d8d565b5b80604052505050565b600060443d106200154457620014c1620013a6565b60043d036004823e80513d602482011167ffffffffffffffff82111715620014eb57505062001544565b808201805167ffffffffffffffff8111156200150b575050505062001544565b80602083010160043d0385018111156200152a57505050505062001544565b6200153b8260200185018662001476565b82955050505050505b90565b6000620015548262000d82565b620015608185620010e3565b935062001572818560208601620012c4565b6200157d81620012f0565b840191505092915050565b60006020820190508181036000830152620015a4818462001547565b905092915050565b7f455243313135353a207472616e7366657220746f206e6f6e204552433131353560008201527f526563656976657220696d706c656d656e746572000000000000000000000000602082015250565b60006200160a603483620010e3565b91506200161782620015ac565b604082019050919050565b600060208201905081810360008301526200163d81620015fb565b9050919050565b7f455243313135353a204552433131353552656365697665722072656a6563746560008201527f6420746f6b656e73000000000000000000000000000000000000000000000000602082015250565b6000620016a2602883620010e3565b9150620016af8262001644565b604082019050919050565b60006020820190508181036000830152620016d58162001693565b9050919050565b6000620016e98262000ea8565b91507fffffffffffffffffffffffffffffffffffffffffffffffffffffffffffffffff82036200171e576200171d6200118c565b5b600182019050919050565b7f455243313135353a206275726e20616d6f756e74206578636565647320746f7460008201527f616c537570706c79000000000000000000000000000000000000000000000000602082015250565b600062001787602883620010e3565b9150620017948262001729565b604082019050919050565b60006020820190508181036000830152620017ba8162001778565b9050919050565b615edf80620017d16000396000f3fe608060405234801561001057600080fd5b50600436106101a85760003560e01c806361863fe3116100f9578063bd85b03911610097578063f242432a11610071578063f242432a146104fd578063f2fde38b14610519578063fa9e85dd14610535578063face85ed14610565576101a8565b8063bd85b0391461046d578063e985e9c51461049d578063ecd3d60f146104cd576101a8565b8063877cb3bb116100d3578063877cb3bb146103e75780638da5cb5b14610417578063a22cb46514610435578063b0e2336e14610451576101a8565b806361863fe3146103a5578063626fc553146103c1578063715018a6146103dd576101a8565b8063367ff61e116101665780634e1273f4116101405780634e1273f41461030d5780634f558e791461033d5780634f56133e1461036d57806353db783914610389576101a8565b8063367ff61e14610291578063464f25da146102ad5780634dffed7a146102dd576101a8565b8062fdd58e146101ad57806301ffc9a7146101dd57806302fe53051461020d5780630e89341c1461022957806312c3448b146102595780632eb2c2d614610275575b600080fd5b6101c760048036038101906101c291906143ac565b610581565b6040516101d491906143fb565b60405180910390f35b6101f760048036038101906101f2919061446e565b610649565b60405161020491906144b6565b60405180910390f35b61022760048036038101906102229190614617565b61072b565b005b610243600480360381019061023e9190614660565b61073f565b604051610250919061470c565b60405180910390f35b610273600480360381019061026e91906143ac565b6107d3565b005b61028f600480360381019061028a9190614897565b610a9f565b005b6102ab60048036038101906102a691906143ac565b610b40565b005b6102c760048036038101906102c29190614660565b611010565b6040516102d491906143fb565b60405180910390f35b6102f760048036038101906102f29190614966565b61107a565b60405161030491906143fb565b60405180910390f35b61032760048036038101906103229190614a7c565b6110c3565b6040516103349190614bb2565b60405180910390f35b61035760048036038101906103529190614660565b6111dc565b60405161036491906144b6565b60405180910390f35b610387600480360381019061038291906143ac565b6111f0565b005b6103a3600480360381019061039e9190614bd4565b6114db565b005b6103bf60048036038101906103ba91906143ac565b611939565b005b6103db60048036038101906103d69190614c27565b611d4e565b005b6103e5611f0d565b005b61040160048036038101906103fc9190614660565b611f21565b60405161040e91906143fb565b60405180910390f35b61041f611f8b565b60405161042c9190614c92565b60405180910390f35b61044f600480360381019061044a9190614cd9565b611fb5565b005b61046b60048036038101906104669190614bd4565b611fcb565b005b61048760048036038101906104829190614660565b61279a565b60405161049491906143fb565b60405180910390f35b6104b760048036038101906104b29190614d19565b6127b7565b6040516104c491906144b6565b60405180910390f35b6104e760048036038101906104e29190614660565b61284b565b6040516104f49190614bb2565b60405180910390f35b61051760048036038101906105129190614d59565b6128be565b005b610533600480360381019061052e9190614df0565b61295f565b005b61054f600480360381019061054a9190614660565b6129e2565b60405161055c9190614bb2565b60405180910390f35b61057f600480360381019061057a9190614bd4565b612a55565b005b60008073ffffffffffffffffffffffffffffffffffffffff168373ffffffffffffffffffffffffffffffffffffffff16036105f1576040517f08c379a00000000000000000000000000000000000000000000000000000000081526004016105e890614e8f565b60405180910390fd5b60008083815260200190815260200160002060008473ffffffffffffffffffffffffffffffffffffffff1673ffffffffffffffffffffffffffffffffffffffff16815260200190815260200160002054905092915050565b60007fd9b67a26000000000000000000000000000000000000000000000000000000007bffffffffffffffffffffffffffffffffffffffffffffffffffffffff1916827bffffffffffffffffffffffffffffffffffffffffffffffffffffffff1916148061071457507f0e89341c000000000000000000000000000000000000000000000000000000007bffffffffffffffffffffffffffffffffffffffffffffffffffffffff1916827bffffffffffffffffffffffffffffffffffffffffffffffffffffffff1916145b8061072457506107238261306c565b5b9050919050565b6107336130d6565b61073c81613154565b50565b60606002805461074e90614ede565b80601f016020809104026020016040519081016040528092919081815260200182805461077a90614ede565b80156107c75780601f1061079c576101008083540402835291602001916107c7565b820191906000526020600020905b8154815290600101906020018083116107aa57829003601f168201915b50505050509050919050565b8060125481101560059061081d576040517f08c379a00000000000000000000000000000000000000000000000000000000081526004016108149190614fa8565b60405180910390fd5b50600060156000838152602001908152602001600020600001541415600c9061087c576040517f08c379a00000000000000000000000000000000000000000000000000000000081526004016108739190614fa8565b60405180910390fd5b5060006015600083815260200190815260200160002060000154905060006015600084815260200190815260200160002060010154905060006108d5601560008681526020019081526020016000206002016001613167565b6000815181106108e8576108e7614fca565b5b602002602001015190506000601460089054906101000a900463ffffffff1663ffffffff16826109189190615028565b9050436015600087815260200190815260200160002060010154111561095257601560008681526020019081526020016000206001015492505b43841080156109615750828411155b801561096d5750808411155b156109b057600e6040517f08c379a00000000000000000000000000000000000000000000000000000000081526004016109a79190614fa8565b60405180910390fd5b43831080156109be57508383105b80156109c957508083105b15610a0c57600f6040517f08c379a0000000000000000000000000000000000000000000000000000000008152600401610a039190614fa8565b60405180910390fd5b4381108015610a1a57508381105b8015610a2557508281105b15610a685760106040517f08c379a0000000000000000000000000000000000000000000000000000000008152600401610a5f9190614fa8565b60405180910390fd5b610a9687601160039054906101000a900460ff1660ff16600160405180602001604052806000815250613223565b50505050505050565b610aa76133d3565b73ffffffffffffffffffffffffffffffffffffffff168573ffffffffffffffffffffffffffffffffffffffff161480610aed5750610aec85610ae76133d3565b6127b7565b5b610b2c576040517f08c379a0000000000000000000000000000000000000000000000000000000008152600401610b23906150ce565b60405180910390fd5b610b3985858585856133db565b5050505050565b80601254811015600590610b8a576040517f08c379a0000000000000000000000000000000000000000000000000000000008152600401610b819190614fa8565b60405180910390fd5b50600060156000838152602001908152602001600020600001541415600c90610be9576040517f08c379a0000000000000000000000000000000000000000000000000000000008152600401610be09190614fa8565b60405180910390fd5b506000601560008381526020019081526020016000206000015490506000601560008481526020019081526020016000206001015490506000610c42601560008681526020019081526020016000206002016001613167565b600081518110610c5557610c54614fca565b5b602002602001015190506000601460089054906101000a900463ffffffff1663ffffffff1682610c859190615028565b90504360156000878152602001908152602001600020600101541115610cbf57601560008681526020019081526020016000206001015492505b4384108015610cce5750828411155b8015610cda5750808411155b15610d1d57600e6040517f08c379a0000000000000000000000000000000000000000000000000000000008152600401610d149190614fa8565b60405180910390fd5b4383108015610d2b57508383105b8015610d3657508083105b15610d7957600f6040517f08c379a0000000000000000000000000000000000000000000000000000000008152600401610d709190614fa8565b60405180910390fd5b4381108015610d8757508381105b8015610d9257508281105b15610dd55760106040517f08c379a0000000000000000000000000000000000000000000000000000000008152600401610dcc9190614fa8565b60405180910390fd5b610ddd6133d3565b73ffffffffffffffffffffffffffffffffffffffff168773ffffffffffffffffffffffffffffffffffffffff1614610e4a576040517f08c379a0000000000000000000000000000000000000000000000000000000008152600401610e419061513a565b60405180910390fd5b6001610e6888601160009054906101000a900460ff1660ff16610581565b1015600790610ead576040517f08c379a0000000000000000000000000000000000000000000000000000000008152600401610ea49190614fa8565b60405180910390fd5b506001610ecc88601160029054906101000a900460ff1660ff16610581565b1015600890610f11576040517f08c379a0000000000000000000000000000000000000000000000000000000008152600401610f089190614fa8565b60405180910390fd5b506003610f3088601160019054906101000a900460ff1660ff16610581565b1015600990610f75576040517f08c379a0000000000000000000000000000000000000000000000000000000008152600401610f6c9190614fa8565b60405180910390fd5b50610f9487601160009054906101000a900460ff1660ff1660016136fc565b610fb287601160029054906101000a900460ff1660ff1660016136fc565b610fd087601160019054906101000a900460ff1660ff1660036136fc565b61100760156000888152602001908152602001600020600501601460109054906101000a900463ffffffff1663ffffffff16613942565b50505050505050565b600060125482101560059061105b576040517f08c379a00000000000000000000000000000000000000000000000000000000081526004016110529190614fa8565b60405180910390fd5b5060156000838152602001908152602001600020600001549050919050565b60008083856110899190615028565b905082811161109b57849150506110bc565b8284106110ac5760009150506110bc565b83836110b8919061515a565b9150505b9392505050565b60608151835114611109576040517f08c379a000000000000000000000000000000000000000000000000000000000815260040161110090615200565b60405180910390fd5b6000835167ffffffffffffffff811115611126576111256144ec565b5b6040519080825280602002602001820160405280156111545781602001602082028036833780820191505090505b50905060005b84518110156111d1576111a185828151811061117957611178614fca565b5b602002602001015185838151811061119457611193614fca565b5b6020026020010151610581565b8282815181106111b4576111b3614fca565b5b602002602001018181525050806111ca90615220565b905061115a565b508091505092915050565b6000806111e88361279a565b119050919050565b8060125481101560059061123a576040517f08c379a00000000000000000000000000000000000000000000000000000000081526004016112319190614fa8565b60405180910390fd5b50600060156000838152602001908152602001600020600001541415600c90611299576040517f08c379a00000000000000000000000000000000000000000000000000000000081526004016112909190614fa8565b60405180910390fd5b5060006015600083815260200190815260200160002060000154905060006015600084815260200190815260200160002060010154905060006112f2601560008681526020019081526020016000206002016001613167565b60008151811061130557611304614fca565b5b602002602001015190506000601460089054906101000a900463ffffffff1663ffffffff16826113359190615028565b9050436015600087815260200190815260200160002060010154111561136f57601560008681526020019081526020016000206001015492505b438410801561137e5750828411155b801561138a5750808411155b156113cd57600e6040517f08c379a00000000000000000000000000000000000000000000000000000000081526004016113c49190614fa8565b60405180910390fd5b43831080156113db57508383105b80156113e657508083105b1561142957600f6040517f08c379a00000000000000000000000000000000000000000000000000000000081526004016114209190614fa8565b60405180910390fd5b438110801561143757508381105b801561144257508281105b156114855760106040517f08c379a000000000000000000000000000000000000000000000000000000000815260040161147c9190614fa8565b60405180910390fd5b6114a360156000888152602001908152602001600020600201613980565b506114d287601160019054906101000a900460ff1660ff16600160405180602001604052806000815250613223565b50505050505050565b81601254811015600590611525576040517f08c379a000000000000000000000000000000000000000000000000000000000815260040161151c9190614fa8565b60405180910390fd5b50600060156000838152602001908152602001600020600001541415600c90611584576040517f08c379a000000000000000000000000000000000000000000000000000000000815260040161157b9190614fa8565b60405180910390fd5b5060006015600083815260200190815260200160002060000154905060006015600084815260200190815260200160002060010154905060006115dd601560008681526020019081526020016000206002016001613167565b6000815181106115f0576115ef614fca565b5b602002602001015190506000601460089054906101000a900463ffffffff1663ffffffff16826116209190615028565b9050436015600087815260200190815260200160002060010154111561165a57601560008681526020019081526020016000206001015492505b43841080156116695750828411155b80156116755750808411155b156116b857600e6040517f08c379a00000000000000000000000000000000000000000000000000000000081526004016116af9190614fa8565b60405180910390fd5b43831080156116c657508383105b80156116d157508083105b1561171457600f6040517f08c379a000000000000000000000000000000000000000000000000000000000815260040161170b9190614fa8565b60405180910390fd5b438110801561172257508381105b801561172d57508281105b156117705760106040517f08c379a00000000000000000000000000000000000000000000000000000000081526004016117679190614fa8565b60405180910390fd5b6117786133d3565b73ffffffffffffffffffffffffffffffffffffffff168873ffffffffffffffffffffffffffffffffffffffff1614600b906117e9576040517f08c379a00000000000000000000000000000000000000000000000000000000081526004016117e09190614fa8565b60405180910390fd5b508561180789601160009054906101000a900460ff1660ff16610581565b101560079061184c576040517f08c379a00000000000000000000000000000000000000000000000000000000081526004016118439190614fa8565b60405180910390fd5b5060006118a06118fb886118609190615268565b601560008b81526020019081526020016000206000015443601460009054906101000a900463ffffffff1663ffffffff1661189b9190615028565b61107a565b905080601560008a815260200190815260200160002060000160008282546118c89190615028565b92505081905550611911601560008a81526020019081526020016000206002016014600c9054906101000a900463ffffffff1663ffffffff164361190c9190615028565b613942565b61192e89601160009054906101000a900460ff1660ff16836136fc565b505050505050505050565b80601254811015600590611983576040517f08c379a000000000000000000000000000000000000000000000000000000000815260040161197a9190614fa8565b60405180910390fd5b50600060156000838152602001908152602001600020600001541415600c906119e2576040517f08c379a00000000000000000000000000000000000000000000000000000000081526004016119d99190614fa8565b60405180910390fd5b506000601560008381526020019081526020016000206000015490506000601560008481526020019081526020016000206001015490506000611a3b601560008681526020019081526020016000206002016001613167565b600081518110611a4e57611a4d614fca565b5b602002602001015190506000601460089054906101000a900463ffffffff1663ffffffff1682611a7e9190615028565b90504360156000878152602001908152602001600020600101541115611ab857601560008681526020019081526020016000206001015492505b4384108015611ac75750828411155b8015611ad35750808411155b15611b1657600e6040517f08c379a0000000000000000000000000000000000000000000000000000000008152600401611b0d9190614fa8565b60405180910390fd5b4383108015611b2457508383105b8015611b2f57508083105b15611b7257600f6040517f08c379a0000000000000000000000000000000000000000000000000000000008152600401611b699190614fa8565b60405180910390fd5b4381108015611b8057508381105b8015611b8b57508281105b15611bce5760106040517f08c379a0000000000000000000000000000000000000000000000000000000008152600401611bc59190614fa8565b60405180910390fd5b611bd66133d3565b73ffffffffffffffffffffffffffffffffffffffff168773ffffffffffffffffffffffffffffffffffffffff1614600b90611c47576040517f08c379a0000000000000000000000000000000000000000000000000000000008152600401611c3e9190614fa8565b60405180910390fd5b506000611c6a601560008981526020019081526020016000206002016001613167565b600081518110611c7d57611c7c614fca565b5b60200260200101519050804311611cc9576040517f08c379a0000000000000000000000000000000000000000000000000000000008152600401611cc0906152f6565b60405180910390fd5b611ce760156000898152602001908152602001600020600501613980565b50611d1688601160029054906101000a900460ff1660ff16600560405180602001604052806000815250613223565b611d4488601160009054906101000a900460ff1660ff16600560405180602001604052806000815250613223565b5050505050505050565b611d566133d3565b73ffffffffffffffffffffffffffffffffffffffff168273ffffffffffffffffffffffffffffffffffffffff1614600b90611dc7576040517f08c379a0000000000000000000000000000000000000000000000000000000008152600401611dbe9190614fa8565b60405180910390fd5b506001611de683601160049054906101000a900460ff1660ff16610581565b1015600690611e2b576040517f08c379a0000000000000000000000000000000000000000000000000000000008152600401611e229190614fa8565b60405180910390fd5b5060136000815480929190611e3f90615220565b9190505550611e5382601354600184613223565b6118fb43611e619190615028565b601560006013548152602001908152602001600020600001819055506118fb43611e8b9190615028565b60156000601354815260200190815260200160002060010181905550611eeb6015600060135481526020019081526020016000206002016014600c9054906101000a900463ffffffff1663ffffffff1643611ee69190615028565b613942565b611f0982601160049054906101000a900460ff1660ff1660016136fc565b5050565b611f156130d6565b611f1f60006139f1565b565b6000601254821015600590611f6c576040517f08c379a0000000000000000000000000000000000000000000000000000000008152600401611f639190614fa8565b60405180910390fd5b5060156000838152602001908152602001600020600101549050919050565b6000600360009054906101000a900473ffffffffffffffffffffffffffffffffffffffff16905090565b611fc7611fc06133d3565b8383613ab7565b5050565b81601254811015600590612015576040517f08c379a000000000000000000000000000000000000000000000000000000000815260040161200c9190614fa8565b60405180910390fd5b50600060156000838152602001908152602001600020600001541415600c90612074576040517f08c379a000000000000000000000000000000000000000000000000000000000815260040161206b9190614fa8565b60405180910390fd5b5060006015600083815260200190815260200160002060000154905060006015600084815260200190815260200160002060010154905060006120cd601560008681526020019081526020016000206002016001613167565b6000815181106120e0576120df614fca565b5b602002602001015190506000601460089054906101000a900463ffffffff1663ffffffff16826121109190615028565b9050436015600087815260200190815260200160002060010154111561214a57601560008681526020019081526020016000206001015492505b43841080156121595750828411155b80156121655750808411155b156121a857600e6040517f08c379a000000000000000000000000000000000000000000000000000000000815260040161219f9190614fa8565b60405180910390fd5b43831080156121b657508383105b80156121c157508083105b1561220457600f6040517f08c379a00000000000000000000000000000000000000000000000000000000081526004016121fb9190614fa8565b60405180910390fd5b438110801561221257508381105b801561221d57508281105b156122605760106040517f08c379a00000000000000000000000000000000000000000000000000000000081526004016122579190614fa8565b60405180910390fd5b856012548110156005906122aa576040517f08c379a00000000000000000000000000000000000000000000000000000000081526004016122a19190614fa8565b60405180910390fd5b50600060156000838152602001908152602001600020600001541415600c90612309576040517f08c379a00000000000000000000000000000000000000000000000000000000081526004016123009190614fa8565b60405180910390fd5b506000601560008381526020019081526020016000206000015490506000601560008481526020019081526020016000206001015490506000612362601560008681526020019081526020016000206002016001613167565b60008151811061237557612374614fca565b5b602002602001015190506000601460089054906101000a900463ffffffff1663ffffffff16826123a59190615028565b905043601560008781526020019081526020016000206001015411156123df57601560008681526020019081526020016000206001015492505b43841080156123ee5750828411155b80156123fa5750808411155b1561243d57600e6040517f08c379a00000000000000000000000000000000000000000000000000000000081526004016124349190614fa8565b60405180910390fd5b438310801561244b57508383105b801561245657508083105b1561249957600f6040517f08c379a00000000000000000000000000000000000000000000000000000000081526004016124909190614fa8565b60405180910390fd5b43811080156124a757508381105b80156124b257508281105b156124f55760106040517f08c379a00000000000000000000000000000000000000000000000000000000081526004016124ec9190614fa8565b60405180910390fd5b6124fd6133d3565b73ffffffffffffffffffffffffffffffffffffffff168d73ffffffffffffffffffffffffffffffffffffffff1614600b9061256e576040517f08c379a00000000000000000000000000000000000000000000000000000000081526004016125659190614fa8565b60405180910390fd5b508a8c1415600a906125b6576040517f08c379a00000000000000000000000000000000000000000000000000000000081526004016125ad9190614fa8565b60405180910390fd5b5060016125c38e8e610581565b14600b90612607576040517f08c379a00000000000000000000000000000000000000000000000000000000081526004016125fe9190614fa8565b60405180910390fd5b5060016126148e8d610581565b14600b90612658576040517f08c379a000000000000000000000000000000000000000000000000000000000815260040161264f9190614fa8565b60405180910390fd5b50600a6126778e601160009054906101000a900460ff1660ff16610581565b10156007906126bc576040517f08c379a00000000000000000000000000000000000000000000000000000000081526004016126b39190614fa8565b60405180910390fd5b50600a6126db8e601160029054906101000a900460ff1660ff16610581565b1015600890612720576040517f08c379a00000000000000000000000000000000000000000000000000000000081526004016127179190614fa8565b60405180910390fd5b5061273f8d601160009054906101000a900460ff1660ff16600a6136fc565b61275d8d601160029054906101000a900460ff1660ff16600a6136fc565b61278b8d601160049054906101000a900460ff1660ff16600160405180602001604052806000815250613223565b50505050505050505050505050565b600060046000838152602001908152602001600020549050919050565b6000600160008473ffffffffffffffffffffffffffffffffffffffff1673ffffffffffffffffffffffffffffffffffffffff16815260200190815260200160002060008373ffffffffffffffffffffffffffffffffffffffff1673ffffffffffffffffffffffffffffffffffffffff16815260200190815260200160002060009054906101000a900460ff16905092915050565b6060601254821015600590612896576040517f08c379a000000000000000000000000000000000000000000000000000000000815260040161288d9190614fa8565b60405180910390fd5b506128b7601560008481526020019081526020016000206005016003613167565b9050919050565b6128c66133d3565b73ffffffffffffffffffffffffffffffffffffffff168573ffffffffffffffffffffffffffffffffffffffff16148061290c575061290b856129066133d3565b6127b7565b5b61294b576040517f08c379a0000000000000000000000000000000000000000000000000000000008152600401612942906150ce565b60405180910390fd5b6129588585858585613c23565b5050505050565b6129676130d6565b600073ffffffffffffffffffffffffffffffffffffffff168173ffffffffffffffffffffffffffffffffffffffff16036129d6576040517f08c379a00000000000000000000000000000000000000000000000000000000081526004016129cd90615388565b60405180910390fd5b6129df816139f1565b50565b6060601254821015600590612a2d576040517f08c379a0000000000000000000000000000000000000000000000000000000008152600401612a249190614fa8565b60405180910390fd5b50612a4e601560008481526020019081526020016000206002016003613167565b9050919050565b81601254811015600590612a9f576040517f08c379a0000000000000000000000000000000000000000000000000000000008152600401612a969190614fa8565b60405180910390fd5b50600060156000838152602001908152602001600020600001541415600c90612afe576040517f08c379a0000000000000000000000000000000000000000000000000000000008152600401612af59190614fa8565b60405180910390fd5b506000601560008381526020019081526020016000206000015490506000601560008481526020019081526020016000206001015490506000612b57601560008681526020019081526020016000206002016001613167565b600081518110612b6a57612b69614fca565b5b602002602001015190506000601460089054906101000a900463ffffffff1663ffffffff1682612b9a9190615028565b90504360156000878152602001908152602001600020600101541115612bd457601560008681526020019081526020016000206001015492505b4384108015612be35750828411155b8015612bef5750808411155b15612c3257600e6040517f08c379a0000000000000000000000000000000000000000000000000000000008152600401612c299190614fa8565b60405180910390fd5b4383108015612c4057508383105b8015612c4b57508083105b15612c8e57600f6040517f08c379a0000000000000000000000000000000000000000000000000000000008152600401612c859190614fa8565b60405180910390fd5b4381108015612c9c57508381105b8015612ca757508281105b15612cea5760106040517f08c379a0000000000000000000000000000000000000000000000000000000008152600401612ce19190614fa8565b60405180910390fd5b612cf26133d3565b73ffffffffffffffffffffffffffffffffffffffff168873ffffffffffffffffffffffffffffffffffffffff1614600b90612d63576040517f08c379a0000000000000000000000000000000000000000000000000000000008152600401612d5a9190614fa8565b60405180910390fd5b5085612d8189601160029054906101000a900460ff1660ff16610581565b1015600890612dc6576040517f08c379a0000000000000000000000000000000000000000000000000000000008152600401612dbd9190614fa8565b60405180910390fd5b506000612e1a6118fb88612dda9190615268565b601560008b81526020019081526020016000206001015443601460049054906101000a900463ffffffff1663ffffffff16612e159190615028565b61107a565b905080601560008a81526020019081526020016000206001016000828254612e429190615028565b92505081905550612e6689601160029054906101000a900460ff1660ff16836136fc565b505050505050505050565b612e7f868686868686613064565b600073ffffffffffffffffffffffffffffffffffffffff168573ffffffffffffffffffffffffffffffffffffffff1603612f305760005b8351811015612f2e57828181518110612ed257612ed1614fca565b5b602002602001015160046000868481518110612ef157612ef0614fca565b5b602002602001015181526020019081526020016000206000828254612f169190615028565b9250508190555080612f2790615220565b9050612eb6565b505b600073ffffffffffffffffffffffffffffffffffffffff168473ffffffffffffffffffffffffffffffffffffffff16036130395760005b8351811015613037576000848281518110612f8557612f84614fca565b5b602002602001015190506000848381518110612fa457612fa3614fca565b5b6020026020010151905060006004600084815260200190815260200160002054905081811015613009576040517f08c379a00000000000000000000000000000000000000000000000000000000081526004016130009061541a565b60405180910390fd5b81810360046000858152602001908152602001600020819055505050508061303090615220565b9050612f67565b505b505050505050565b6000808273ffffffffffffffffffffffffffffffffffffffff163b119050919050565b505050505050565b60007f01ffc9a7000000000000000000000000000000000000000000000000000000007bffffffffffffffffffffffffffffffffffffffffffffffffffffffff1916827bffffffffffffffffffffffffffffffffffffffffffffffffffffffff1916149050919050565b6130de6133d3565b73ffffffffffffffffffffffffffffffffffffffff166130fc611f8b565b73ffffffffffffffffffffffffffffffffffffffff1614613152576040517f08c379a000000000000000000000000000000000000000000000000000000000815260040161314990615486565b60405180910390fd5b565b8060029081613163919061563d565b5050565b606060008267ffffffffffffffff811115613185576131846144ec565b5b6040519080825280602002602001820160405280156131b35781602001602082028036833780820191505090505b50905060005b83811015613218578460000160008287600101546131d79190615028565b8152602001908152602001600020548282815181106131f9576131f8614fca565b5b602002602001018181525050808061321090615220565b9150506131b9565b508091505092915050565b600073ffffffffffffffffffffffffffffffffffffffff168473ffffffffffffffffffffffffffffffffffffffff1603613292576040517f08c379a000000000000000000000000000000000000000000000000000000000815260040161328990615781565b60405180910390fd5b600061329c6133d3565b905060006132a985613ebe565b905060006132b685613ebe565b90506132c783600089858589613f38565b8460008088815260200190815260200160002060008973ffffffffffffffffffffffffffffffffffffffff1673ffffffffffffffffffffffffffffffffffffffff16815260200190815260200160002060008282546133269190615028565b925050819055508673ffffffffffffffffffffffffffffffffffffffff16600073ffffffffffffffffffffffffffffffffffffffff168473ffffffffffffffffffffffffffffffffffffffff167fc3d58168c5ae7397731d063d5bbf3d657854427343f4c083240f7aacaa2d0f6289896040516133a49291906157a1565b60405180910390a46133bb83600089858589613f4e565b6133ca83600089898989613f56565b50505050505050565b600033905090565b815183511461341f576040517f08c379a00000000000000000000000000000000000000000000000000000000081526004016134169061583c565b60405180910390fd5b600073ffffffffffffffffffffffffffffffffffffffff168473ffffffffffffffffffffffffffffffffffffffff160361348e576040517f08c379a0000000000000000000000000000000000000000000000000000000008152600401613485906158ce565b60405180910390fd5b60006134986133d3565b90506134a8818787878787613f38565b60005b84518110156136595760008582815181106134c9576134c8614fca565b5b6020026020010151905060008583815181106134e8576134e7614fca565b5b60200260200101519050600080600084815260200190815260200160002060008b73ffffffffffffffffffffffffffffffffffffffff1673ffffffffffffffffffffffffffffffffffffffff16815260200190815260200160002054905081811015613589576040517f08c379a000000000000000000000000000000000000000000000000000000000815260040161358090615960565b60405180910390fd5b81810360008085815260200190815260200160002060008c73ffffffffffffffffffffffffffffffffffffffff1673ffffffffffffffffffffffffffffffffffffffff168152602001908152602001600020819055508160008085815260200190815260200160002060008b73ffffffffffffffffffffffffffffffffffffffff1673ffffffffffffffffffffffffffffffffffffffff168152602001908152602001600020600082825461363e9190615028565b925050819055505050508061365290615220565b90506134ab565b508473ffffffffffffffffffffffffffffffffffffffff168673ffffffffffffffffffffffffffffffffffffffff168273ffffffffffffffffffffffffffffffffffffffff167f4a39dc06d4c0dbc64b70af90fd698a233a518aa5d07e595d983b8c0526c8f7fb87876040516136d0929190615980565b60405180910390a46136e6818787878787613f4e565b6136f481878787878761412d565b505050505050565b600073ffffffffffffffffffffffffffffffffffffffff168373ffffffffffffffffffffffffffffffffffffffff160361376b576040517f08c379a000000000000000000000000000000000000000000000000000000000815260040161376290615a29565b60405180910390fd5b60006137756133d3565b9050600061378284613ebe565b9050600061378f84613ebe565b90506137af83876000858560405180602001604052806000815250613f38565b600080600087815260200190815260200160002060008873ffffffffffffffffffffffffffffffffffffffff1673ffffffffffffffffffffffffffffffffffffffff16815260200190815260200160002054905084811015613846576040517f08c379a000000000000000000000000000000000000000000000000000000000815260040161383d90615abb565b60405180910390fd5b84810360008088815260200190815260200160002060008973ffffffffffffffffffffffffffffffffffffffff1673ffffffffffffffffffffffffffffffffffffffff16815260200190815260200160002081905550600073ffffffffffffffffffffffffffffffffffffffff168773ffffffffffffffffffffffffffffffffffffffff168573ffffffffffffffffffffffffffffffffffffffff167fc3d58168c5ae7397731d063d5bbf3d657854427343f4c083240f7aacaa2d0f6289896040516139139291906157a1565b60405180910390a461393984886000868660405180602001604052806000815250613f4e565b50505050505050565b80826000016000846002015481526020019081526020016000208190555060018260020160008282546139759190615028565b925050819055505050565b600081600101548260020154101561399757600080fd5b81600001600083600101548152602001908152602001600020549050816000016000836001015481526020019081526020016000206000905560018260010160008282546139e59190615028565b92505081905550919050565b6000600360009054906101000a900473ffffffffffffffffffffffffffffffffffffffff16905081600360006101000a81548173ffffffffffffffffffffffffffffffffffffffff021916908373ffffffffffffffffffffffffffffffffffffffff1602179055508173ffffffffffffffffffffffffffffffffffffffff168173ffffffffffffffffffffffffffffffffffffffff167f8be0079c531659141344cd1fd0a4f28419497f9722a3daafe3b4186f6b6457e060405160405180910390a35050565b8173ffffffffffffffffffffffffffffffffffffffff168373ffffffffffffffffffffffffffffffffffffffff1603613b25576040517f08c379a0000000000000000000000000000000000000000000000000000000008152600401613b1c90615b4d565b60405180910390fd5b80600160008573ffffffffffffffffffffffffffffffffffffffff1673ffffffffffffffffffffffffffffffffffffffff16815260200190815260200160002060008473ffffffffffffffffffffffffffffffffffffffff1673ffffffffffffffffffffffffffffffffffffffff16815260200190815260200160002060006101000a81548160ff0219169083151502179055508173ffffffffffffffffffffffffffffffffffffffff168373ffffffffffffffffffffffffffffffffffffffff167f17307eab39ab6107e8899845ad3d59bd9653f200f220920489ca2b5937696c3183604051613c1691906144b6565b60405180910390a3505050565b600073ffffffffffffffffffffffffffffffffffffffff168473ffffffffffffffffffffffffffffffffffffffff1603613c92576040517f08c379a0000000000000000000000000000000000000000000000000000000008152600401613c89906158ce565b60405180910390fd5b6000613c9c6133d3565b90506000613ca985613ebe565b90506000613cb685613ebe565b9050613cc6838989858589613f38565b600080600088815260200190815260200160002060008a73ffffffffffffffffffffffffffffffffffffffff1673ffffffffffffffffffffffffffffffffffffffff16815260200190815260200160002054905085811015613d5d576040517f08c379a0000000000000000000000000000000000000000000000000000000008152600401613d5490615960565b60405180910390fd5b85810360008089815260200190815260200160002060008b73ffffffffffffffffffffffffffffffffffffffff1673ffffffffffffffffffffffffffffffffffffffff168152602001908152602001600020819055508560008089815260200190815260200160002060008a73ffffffffffffffffffffffffffffffffffffffff1673ffffffffffffffffffffffffffffffffffffffff1681526020019081526020016000206000828254613e129190615028565b925050819055508773ffffffffffffffffffffffffffffffffffffffff168973ffffffffffffffffffffffffffffffffffffffff168573ffffffffffffffffffffffffffffffffffffffff167fc3d58168c5ae7397731d063d5bbf3d657854427343f4c083240f7aacaa2d0f628a8a604051613e8f9291906157a1565b60405180910390a4613ea5848a8a86868a613f4e565b613eb3848a8a8a8a8a613f56565b505050505050505050565b60606000600167ffffffffffffffff811115613edd57613edc6144ec565b5b604051908082528060200260200182016040528015613f0b5781602001602082028036833780820191505090505b5090508281600081518110613f2357613f22614fca565b5b60200260200101818152505080915050919050565b613f46868686868686612e71565b505050505050565b505050505050565b613f758473ffffffffffffffffffffffffffffffffffffffff16613041565b15614125578373ffffffffffffffffffffffffffffffffffffffff1663f23a6e6187878686866040518663ffffffff1660e01b8152600401613fbb959493929190615bc2565b6020604051808303816000875af1925050508015613ff757506040513d601f19601f82011682018060405250810190613ff49190615c31565b60015b61409c57614003615c6b565b806308c379a00361405f5750614017615c8d565b806140225750614061565b806040517f08c379a0000000000000000000000000000000000000000000000000000000008152600401614056919061470c565b60405180910390fd5b505b6040517f08c379a000000000000000000000000000000000000000000000000000000000815260040161409390615d8f565b60405180910390fd5b63f23a6e6160e01b7bffffffffffffffffffffffffffffffffffffffffffffffffffffffff1916817bffffffffffffffffffffffffffffffffffffffffffffffffffffffff191614614123576040517f08c379a000000000000000000000000000000000000000000000000000000000815260040161411a90615e21565b60405180910390fd5b505b505050505050565b61414c8473ffffffffffffffffffffffffffffffffffffffff16613041565b156142fc578373ffffffffffffffffffffffffffffffffffffffff1663bc197c8187878686866040518663ffffffff1660e01b8152600401614192959493929190615e41565b6020604051808303816000875af19250505080156141ce57506040513d601f19601f820116820180604052508101906141cb9190615c31565b60015b614273576141da615c6b565b806308c379a00361423657506141ee615c8d565b806141f95750614238565b806040517f08c379a000000000000000000000000000000000000000000000000000000000815260040161422d919061470c565b60405180910390fd5b505b6040517f08c379a000000000000000000000000000000000000000000000000000000000815260040161426a90615d8f565b60405180910390fd5b63bc197c8160e01b7bffffffffffffffffffffffffffffffffffffffffffffffffffffffff1916817bffffffffffffffffffffffffffffffffffffffffffffffffffffffff1916146142fa576040517f08c379a00000000000000000000000000000000000000000000000000000000081526004016142f190615e21565b60405180910390fd5b505b505050505050565b6000604051905090565b600080fd5b600080fd5b600073ffffffffffffffffffffffffffffffffffffffff82169050919050565b600061434382614318565b9050919050565b61435381614338565b811461435e57600080fd5b50565b6000813590506143708161434a565b92915050565b6000819050919050565b61438981614376565b811461439457600080fd5b50565b6000813590506143a681614380565b92915050565b600080604083850312156143c3576143c261430e565b5b60006143d185828601614361565b92505060206143e285828601614397565b9150509250929050565b6143f581614376565b82525050565b600060208201905061441060008301846143ec565b92915050565b60007fffffffff0000000000000000000000000000000000000000000000000000000082169050919050565b61444b81614416565b811461445657600080fd5b50565b60008135905061446881614442565b92915050565b6000602082840312156144845761448361430e565b5b600061449284828501614459565b91505092915050565b60008115159050919050565b6144b08161449b565b82525050565b60006020820190506144cb60008301846144a7565b92915050565b600080fd5b600080fd5b6000601f19601f8301169050919050565b7f4e487b7100000000000000000000000000000000000000000000000000000000600052604160045260246000fd5b614524826144db565b810181811067ffffffffffffffff82111715614543576145426144ec565b5b80604052505050565b6000614556614304565b9050614562828261451b565b919050565b600067ffffffffffffffff821115614582576145816144ec565b5b61458b826144db565b9050602081019050919050565b82818337600083830152505050565b60006145ba6145b584614567565b61454c565b9050828152602081018484840111156145d6576145d56144d6565b5b6145e1848285614598565b509392505050565b600082601f8301126145fe576145fd6144d1565b5b813561460e8482602086016145a7565b91505092915050565b60006020828403121561462d5761462c61430e565b5b600082013567ffffffffffffffff81111561464b5761464a614313565b5b614657848285016145e9565b91505092915050565b6000602082840312156146765761467561430e565b5b600061468484828501614397565b91505092915050565b600081519050919050565b600082825260208201905092915050565b60005b838110156146c75780820151818401526020810190506146ac565b60008484015250505050565b60006146de8261468d565b6146e88185614698565b93506146f88185602086016146a9565b614701816144db565b840191505092915050565b6000602082019050818103600083015261472681846146d3565b905092915050565b600067ffffffffffffffff821115614749576147486144ec565b5b602082029050602081019050919050565b600080fd5b600061477261476d8461472e565b61454c565b905080838252602082019050602084028301858111156147955761479461475a565b5b835b818110156147be57806147aa8882614397565b845260208401935050602081019050614797565b5050509392505050565b600082601f8301126147dd576147dc6144d1565b5b81356147ed84826020860161475f565b91505092915050565b600067ffffffffffffffff821115614811576148106144ec565b5b61481a826144db565b9050602081019050919050565b600061483a614835846147f6565b61454c565b905082815260208101848484011115614856576148556144d6565b5b614861848285614598565b509392505050565b600082601f83011261487e5761487d6144d1565b5b813561488e848260208601614827565b91505092915050565b600080600080600060a086880312156148b3576148b261430e565b5b60006148c188828901614361565b95505060206148d288828901614361565b945050604086013567ffffffffffffffff8111156148f3576148f2614313565b5b6148ff888289016147c8565b935050606086013567ffffffffffffffff8111156149205761491f614313565b5b61492c888289016147c8565b925050608086013567ffffffffffffffff81111561494d5761494c614313565b5b61495988828901614869565b9150509295509295909350565b60008060006060848603121561497f5761497e61430e565b5b600061498d86828701614397565b935050602061499e86828701614397565b92505060406149af86828701614397565b9150509250925092565b600067ffffffffffffffff8211156149d4576149d36144ec565b5b602082029050602081019050919050565b60006149f86149f3846149b9565b61454c565b90508083825260208201905060208402830185811115614a1b57614a1a61475a565b5b835b81811015614a445780614a308882614361565b845260208401935050602081019050614a1d565b5050509392505050565b600082601f830112614a6357614a626144d1565b5b8135614a738482602086016149e5565b91505092915050565b60008060408385031215614a9357614a9261430e565b5b600083013567ffffffffffffffff811115614ab157614ab0614313565b5b614abd85828601614a4e565b925050602083013567ffffffffffffffff811115614ade57614add614313565b5b614aea858286016147c8565b9150509250929050565b600081519050919050565b600082825260208201905092915050565b6000819050602082019050919050565b614b2981614376565b82525050565b6000614b3b8383614b20565b60208301905092915050565b6000602082019050919050565b6000614b5f82614af4565b614b698185614aff565b9350614b7483614b10565b8060005b83811015614ba5578151614b8c8882614b2f565b9750614b9783614b47565b925050600181019050614b78565b5085935050505092915050565b60006020820190508181036000830152614bcc8184614b54565b905092915050565b600080600060608486031215614bed57614bec61430e565b5b6000614bfb86828701614361565b9350506020614c0c86828701614397565b9250506040614c1d86828701614397565b9150509250925092565b60008060408385031215614c3e57614c3d61430e565b5b6000614c4c85828601614361565b925050602083013567ffffffffffffffff811115614c6d57614c6c614313565b5b614c7985828601614869565b9150509250929050565b614c8c81614338565b82525050565b6000602082019050614ca76000830184614c83565b92915050565b614cb68161449b565b8114614cc157600080fd5b50565b600081359050614cd381614cad565b92915050565b60008060408385031215614cf057614cef61430e565b5b6000614cfe85828601614361565b9250506020614d0f85828601614cc4565b9150509250929050565b60008060408385031215614d3057614d2f61430e565b5b6000614d3e85828601614361565b9250506020614d4f85828601614361565b9150509250929050565b600080600080600060a08688031215614d7557614d7461430e565b5b6000614d8388828901614361565b9550506020614d9488828901614361565b9450506040614da588828901614397565b9350506060614db688828901614397565b925050608086013567ffffffffffffffff811115614dd757614dd6614313565b5b614de388828901614869565b9150509295509295909350565b600060208284031215614e0657614e0561430e565b5b6000614e1484828501614361565b91505092915050565b7f455243313135353a2061646472657373207a65726f206973206e6f742061207660008201527f616c6964206f776e657200000000000000000000000000000000000000000000602082015250565b6000614e79602a83614698565b9150614e8482614e1d565b604082019050919050565b60006020820190508181036000830152614ea881614e6c565b9050919050565b7f4e487b7100000000000000000000000000000000000000000000000000000000600052602260045260246000fd5b60006002820490506001821680614ef657607f821691505b602082108103614f0957614f08614eaf565b5b50919050565b60008190508160005260206000209050919050565b60008154614f3181614ede565b614f3b8186614698565b94506001821660008114614f565760018114614f6c57614f9f565b60ff198316865281151560200286019350614f9f565b614f7585614f0f565b60005b83811015614f9757815481890152600182019150602081019050614f78565b808801955050505b50505092915050565b60006020820190508181036000830152614fc28184614f24565b905092915050565b7f4e487b7100000000000000000000000000000000000000000000000000000000600052603260045260246000fd5b7f4e487b7100000000000000000000000000000000000000000000000000000000600052601160045260246000fd5b600061503382614376565b915061503e83614376565b925082820190508082111561505657615055614ff9565b5b92915050565b7f455243313135353a2063616c6c6572206973206e6f7420746f6b656e206f776e60008201527f6572206e6f7220617070726f7665640000000000000000000000000000000000602082015250565b60006150b8602f83614698565b91506150c38261505c565b604082019050919050565b600060208201905081810360008301526150e7816150ab565b9050919050565b7f3131000000000000000000000000000000000000000000000000000000000000600082015250565b6000615124600283614698565b915061512f826150ee565b602082019050919050565b6000602082019050818103600083015261515381615117565b9050919050565b600061516582614376565b915061517083614376565b925082820390508181111561518857615187614ff9565b5b92915050565b7f455243313135353a206163636f756e747320616e6420696473206c656e67746860008201527f206d69736d617463680000000000000000000000000000000000000000000000602082015250565b60006151ea602983614698565b91506151f58261518e565b604082019050919050565b60006020820190508181036000830152615219816151dd565b9050919050565b600061522b82614376565b91507fffffffffffffffffffffffffffffffffffffffffffffffffffffffffffffffff820361525d5761525c614ff9565b5b600182019050919050565b600061527382614376565b915061527e83614376565b925082820261528c81614376565b915082820484148315176152a3576152a2614ff9565b5b5092915050565b7f4e6f742072656164792079657400000000000000000000000000000000000000600082015250565b60006152e0600d83614698565b91506152eb826152aa565b602082019050919050565b6000602082019050818103600083015261530f816152d3565b9050919050565b7f4f776e61626c653a206e6577206f776e657220697320746865207a65726f206160008201527f6464726573730000000000000000000000000000000000000000000000000000602082015250565b6000615372602683614698565b915061537d82615316565b604082019050919050565b600060208201905081810360008301526153a181615365565b9050919050565b7f455243313135353a206275726e20616d6f756e74206578636565647320746f7460008201527f616c537570706c79000000000000000000000000000000000000000000000000602082015250565b6000615404602883614698565b915061540f826153a8565b604082019050919050565b60006020820190508181036000830152615433816153f7565b9050919050565b7f4f776e61626c653a2063616c6c6572206973206e6f7420746865206f776e6572600082015250565b6000615470602083614698565b915061547b8261543a565b602082019050919050565b6000602082019050818103600083015261549f81615463565b9050919050565b60006020601f8301049050919050565b600082821b905092915050565b6000600883026154f37fffffffffffffffffffffffffffffffffffffffffffffffffffffffffffffffff826154b6565b6154fd86836154b6565b95508019841693508086168417925050509392505050565b6000819050919050565b600061553a61553561553084614376565b615515565b614376565b9050919050565b6000819050919050565b6155548361551f565b61556861556082615541565b8484546154c3565b825550505050565b600090565b61557d615570565b61558881848461554b565b505050565b5b818110156155ac576155a1600082615575565b60018101905061558e565b5050565b601f8211156155f1576155c281614f0f565b6155cb846154a6565b810160208510156155da578190505b6155ee6155e6856154a6565b83018261558d565b50505b505050565b600082821c905092915050565b6000615614600019846008026155f6565b1980831691505092915050565b600061562d8383615603565b9150826002028217905092915050565b6156468261468d565b67ffffffffffffffff81111561565f5761565e6144ec565b5b6156698254614ede565b6156748282856155b0565b600060209050601f8311600181146156a75760008415615695578287015190505b61569f8582615621565b865550615707565b601f1984166156b586614f0f565b60005b828110156156dd578489015182556001820191506020850194506020810190506156b8565b868310156156fa57848901516156f6601f891682615603565b8355505b6001600288020188555050505b505050505050565b7f455243313135353a206d696e7420746f20746865207a65726f2061646472657360008201527f7300000000000000000000000000000000000000000000000000000000000000602082015250565b600061576b602183614698565b91506157768261570f565b604082019050919050565b6000602082019050818103600083015261579a8161575e565b9050919050565b60006040820190506157b660008301856143ec565b6157c360208301846143ec565b9392505050565b7f455243313135353a2069647320616e6420616d6f756e7473206c656e6774682060008201527f6d69736d61746368000000000000000000000000000000000000000000000000602082015250565b6000615826602883614698565b9150615831826157ca565b604082019050919050565b6000602082019050818103600083015261585581615819565b9050919050565b7f455243313135353a207472616e7366657220746f20746865207a65726f20616460008201527f6472657373000000000000000000000000000000000000000000000000000000602082015250565b60006158b8602583614698565b91506158c38261585c565b604082019050919050565b600060208201905081810360008301526158e7816158ab565b9050919050565b7f455243313135353a20696e73756666696369656e742062616c616e636520666f60008201527f72207472616e7366657200000000000000000000000000000000000000000000602082015250565b600061594a602a83614698565b9150615955826158ee565b604082019050919050565b600060208201905081810360008301526159798161593d565b9050919050565b6000604082019050818103600083015261599a8185614b54565b905081810360208301526159ae8184614b54565b90509392505050565b7f455243313135353a206275726e2066726f6d20746865207a65726f206164647260008201527f6573730000000000000000000000000000000000000000000000000000000000602082015250565b6000615a13602383614698565b9150615a1e826159b7565b604082019050919050565b60006020820190508181036000830152615a4281615a06565b9050919050565b7f455243313135353a206275726e20616d6f756e7420657863656564732062616c60008201527f616e636500000000000000000000000000000000000000000000000000000000602082015250565b6000615aa5602483614698565b9150615ab082615a49565b604082019050919050565b60006020820190508181036000830152615ad481615a98565b9050919050565b7f455243313135353a2073657474696e6720617070726f76616c2073746174757360008201527f20666f722073656c660000000000000000000000000000000000000000000000602082015250565b6000615b37602983614698565b9150615b4282615adb565b604082019050919050565b60006020820190508181036000830152615b6681615b2a565b9050919050565b600081519050919050565b600082825260208201905092915050565b6000615b9482615b6d565b615b9e8185615b78565b9350615bae8185602086016146a9565b615bb7816144db565b840191505092915050565b600060a082019050615bd76000830188614c83565b615be46020830187614c83565b615bf160408301866143ec565b615bfe60608301856143ec565b8181036080830152615c108184615b89565b90509695505050505050565b600081519050615c2b81614442565b92915050565b600060208284031215615c4757615c4661430e565b5b6000615c5584828501615c1c565b91505092915050565b60008160e01c9050919050565b600060033d1115615c8a5760046000803e615c87600051615c5e565b90505b90565b600060443d10615d1a57615c9f614304565b60043d036004823e80513d602482011167ffffffffffffffff82111715615cc7575050615d1a565b808201805167ffffffffffffffff811115615ce55750505050615d1a565b80602083010160043d038501811115615d02575050505050615d1a565b615d118260200185018661451b565b82955050505050505b90565b7f455243313135353a207472616e7366657220746f206e6f6e204552433131353560008201527f526563656976657220696d706c656d656e746572000000000000000000000000602082015250565b6000615d79603483614698565b9150615d8482615d1d565b604082019050919050565b60006020820190508181036000830152615da881615d6c565b9050919050565b7f455243313135353a204552433131353552656365697665722072656a6563746560008201527f6420746f6b656e73000000000000000000000000000000000000000000000000602082015250565b6000615e0b602883614698565b9150615e1682615daf565b604082019050919050565b60006020820190508181036000830152615e3a81615dfe565b9050919050565b600060a082019050615e566000830188614c83565b615e636020830187614c83565b8181036040830152615e758186614b54565b90508181036060830152615e898185614b54565b90508181036080830152615e9d8184615b89565b9050969550505050505056fea264697066735822122030c25e93f675571d0ba4e25dbb2cb0b98c1309535c0060bfb75a64d51a1e1be264736f6c63430008110033",
  "immutableReferences": {},
  "source": "// SPDX-License-Identifier: MIT\npragma solidity ^0.8.4;\n\nimport \"@openzeppelin/contracts/token/ERC1155/ERC1155.sol\";\nimport \"@openzeppelin/contracts/access/Ownable.sol\";\nimport \"@openzeppelin/contracts/token/ERC1155/extensions/ERC1155Supply.sol\";\n\ncontract Tamoblockhi is ERC1155, Ownable, ERC1155Supply {\n    string private ERROR_NOT_TAMO = \"1\";\n    string private ERROR_NO_EGG = \"2\";\n    string private ERROR_INSUFFIENT_FOOD = \"3\";\n    string private ERROR_INSUFFIENT_WATER = \"4\";\n    string private ERROR_INSUFFIENT_POOP = \"5\";\n    string private ERROR_SAME_IDS = \"6\";\n    string private ERROR_NOT_OWNED = \"7\";\n    string private ERROR_UNBORN = \"8\";\n    string private ERROR_DIED = \"9\";\n    string private ERROR_DIED_STARVATION = \"10\";\n    string private ERROR_DIED_DEHYDRATION = \"11\";\n    string private ERROR_DIED_INFECTION = \"12\";\n\n    uint8 private FOOD_TOKEN_ID = 0;\n    uint8 private POOP_TOKEN_ID = 1; \n    uint8 private WATER_TOKEN_ID = 2;\n    uint8 private LOVE_TOKEN_ID = 3;\n    uint8 private EGG_TOKEN_ID = 4;\n\n    uint256 private TAMO_MIN_TOKEN_ID = 10;\n    uint256 private tamoCurrentId = TAMO_MIN_TOKEN_ID;\n\n    uint32 private maxBlocksBeforeStarvation = 19185; // ~3 days\n    uint32 private maxBlocksBeforeDehydration = 19185; // ~3 days\n    uint32 private maxBlocksPoopInfection = 19185; // ~3 days\n    uint32 private poopAfterBlocks = 6395; // ~1 day\n    uint32 private cropReadyAfterBlocks = 6395; // ~1 day\n\n    mapping(uint256 => State) private states;\n\n    struct State { \n        uint256 starvationBlock;\n        uint256 dehydrationBlock;\n        Queue poopQueue;\n        Queue cropQueue;\n    }\n\n    constructor() ERC1155(\"\") {\n        _mint(owner(), EGG_TOKEN_ID, 8888, \"\");\n        _mint(owner(), FOOD_TOKEN_ID, 50000, \"\");\n        _mint(owner(), WATER_TOKEN_ID, 50000, \"\");\n    }\n\n    function setURI(string memory newuri) public onlyOwner {\n        _setURI(newuri);\n    }\n\n    // The following functions are overrides required by Solidity.\n    function _beforeTokenTransfer(address operator, address from, address to, uint256[] memory ids, uint256[] memory amounts, bytes memory data)\n        internal\n        override(ERC1155, ERC1155Supply)\n    {\n        super._beforeTokenTransfer(operator, from, to, ids, amounts, data);\n    }\n\n    function starvationBlockOf(uint256 tokenId) public view returns(uint256) {\n        require(tokenId >= TAMO_MIN_TOKEN_ID, ERROR_NOT_TAMO);\n        return states[tokenId].starvationBlock;\n    }\n\n    function dehydrationBlockOf(uint256 tokenId) public view returns(uint256) {\n        require(tokenId >= TAMO_MIN_TOKEN_ID, ERROR_NOT_TAMO);\n        return states[tokenId].dehydrationBlock;\n    }\n\n    function poopScheduledForBlocks(uint256 tokenId) public view returns(uint256[] memory) {\n        require(tokenId >= TAMO_MIN_TOKEN_ID, ERROR_NOT_TAMO);\n        return peekFirst(states[tokenId].poopQueue, 3);\n    }\n\n    function cropScheduledForBlock(uint256 tokenId) public view returns(uint256[] memory) {\n        require(tokenId >= TAMO_MIN_TOKEN_ID, ERROR_NOT_TAMO);\n        return peekFirst(states[tokenId].cropQueue, 3);\n    }\n\n    function hatch(\n        address account,\n        bytes memory data\n    ) public {\n        require(account == _msgSender(), ERROR_NOT_OWNED);\n        require(balanceOf(account, EGG_TOKEN_ID) >= 1, ERROR_NO_EGG);\n        tamoCurrentId++;\n        _mint(account, tamoCurrentId, 1, data);\n\n        states[tamoCurrentId].starvationBlock = block.number + 6395;\n        states[tamoCurrentId].dehydrationBlock = block.number + 6395;\n        enqueue(states[tamoCurrentId].poopQueue, block.number + poopAfterBlocks);\n\n        _burn(account, EGG_TOKEN_ID, 1); // Spend the egg\n    }\n\n    function feed(\n        address account,\n        uint256 tokenId,\n        uint256 foodAmount\n    ) public onlyAlive(tokenId) {\n        require(account == _msgSender(), ERROR_NOT_OWNED);\n        require(balanceOf(account, FOOD_TOKEN_ID) >= foodAmount, ERROR_INSUFFIENT_FOOD);\n\n        // Calculates food to be used up to a max\n        uint256 adjustedFoodAmount = uAdjustedAmount(\n            foodAmount * 6395, \n            states[tokenId].starvationBlock,\n            maxBlocksBeforeStarvation + block.number\n        );\n\n        states[tokenId].starvationBlock += adjustedFoodAmount;\n        enqueue(states[tokenId].poopQueue, block.number + poopAfterBlocks);\n        _burn(account, FOOD_TOKEN_ID, adjustedFoodAmount); // Spend the food\n    }\n\n    function water(\n        address account,\n        uint256 tokenId,\n        uint256 waterAmount\n    ) public onlyAlive(tokenId) {\n        require(account == _msgSender(), ERROR_NOT_OWNED);\n        require(balanceOf(account, WATER_TOKEN_ID) >= waterAmount, ERROR_INSUFFIENT_WATER);\n\n        // Calculates food to be used up to a max\n        uint256 adjustedWaterAmount = uAdjustedAmount(\n            waterAmount * 6395, \n            states[tokenId].dehydrationBlock,\n            maxBlocksBeforeDehydration + block.number\n        );\n\n        states[tokenId].dehydrationBlock += adjustedWaterAmount;\n        _burn(account, WATER_TOKEN_ID, adjustedWaterAmount);\n    }\n\n    function clean(\n        address account,\n        uint256 tokenId\n    ) public onlyAlive(tokenId) {\n        // uint256 poopBlock = peekFirst(states[tokenId].poopQueue, 1)[0];\n        dequeue(states[tokenId].poopQueue);\n        _mint(account, POOP_TOKEN_ID, 1, \"\");\n    }\n\n    function pet(\n        address account,\n        uint256 tokenId\n    ) public onlyAlive(tokenId) {\n        _mint(account, LOVE_TOKEN_ID, 1, \"\");\n    }\n\n    function plantFood(\n        address account,\n        uint256 tokenId\n    ) public onlyAlive(tokenId) {\n        require(account == _msgSender(), \"11\");\n        require(balanceOf(account, FOOD_TOKEN_ID) >= 1, ERROR_INSUFFIENT_FOOD);\n        require(balanceOf(account, WATER_TOKEN_ID) >= 1, ERROR_INSUFFIENT_WATER);\n        require(balanceOf(account, POOP_TOKEN_ID) >= 3, ERROR_INSUFFIENT_POOP);\n\n        // Resources required to plant a crop\n        _burn(account, FOOD_TOKEN_ID, 1);\n        _burn(account, WATER_TOKEN_ID, 1);\n        _burn(account, POOP_TOKEN_ID, 3);\n\n        enqueue(states[tokenId].cropQueue, cropReadyAfterBlocks);\n    }\n\n    function harvestFood(\n        address account,\n        uint256 tokenId\n    ) public onlyAlive(tokenId) {\n        require(account == _msgSender(), ERROR_NOT_OWNED);\n        uint256 cropBlock = peekFirst(states[tokenId].poopQueue, 1)[0];\n        require(block.number > cropBlock, \"Not ready yet\");\n        dequeue(states[tokenId].cropQueue);\n        _mint(account, WATER_TOKEN_ID, 5, \"\");\n        _mint(account, FOOD_TOKEN_ID, 5, \"\");\n    }\n\n    function mate(\n        address account,\n        uint256 tamoIdOne,\n        uint256 tamoIdTwo\n    ) public onlyAlive(tamoIdOne) onlyAlive(tamoIdTwo) {\n        require(account == _msgSender(), ERROR_NOT_OWNED);\n        require(tamoIdOne != tamoIdTwo, ERROR_SAME_IDS);\n        require(balanceOf(account, tamoIdOne) == 1, ERROR_NOT_OWNED);\n        require(balanceOf(account, tamoIdTwo) == 1, ERROR_NOT_OWNED);\n\n        require(balanceOf(account, FOOD_TOKEN_ID) >= 10, ERROR_INSUFFIENT_FOOD);\n        require(balanceOf(account, WATER_TOKEN_ID) >= 10, ERROR_INSUFFIENT_WATER);\n\n        _burn(account, FOOD_TOKEN_ID, 10);\n        _burn(account, WATER_TOKEN_ID, 10);\n        _mint(account, EGG_TOKEN_ID, 1, \"\");\n    }\n\n    modifier onlyAlive(uint256 tokenId) {\n        require(tokenId >= TAMO_MIN_TOKEN_ID, ERROR_NOT_TAMO);\n        require(states[tokenId].starvationBlock != 0, ERROR_UNBORN);\n\n        uint256 blockDiedOfStarvation = states[tokenId].starvationBlock;\n        uint256 blockDiedOfDehydration = states[tokenId].dehydrationBlock;\n        uint256 poopBlock = peekFirst(states[tokenId].poopQueue, 1)[0];\n        uint256 blockDiedOfInfection = poopBlock + maxBlocksPoopInfection;\n\n        if (states[tokenId].dehydrationBlock > block.number) {\n            // Tamo died of dehydration\n            blockDiedOfDehydration = states[tokenId].dehydrationBlock;\n        }\n    \n        if (blockDiedOfStarvation < block.number && blockDiedOfStarvation <= blockDiedOfDehydration && blockDiedOfStarvation <= blockDiedOfInfection) {\n            // Died of starvation\n            revert(ERROR_DIED_STARVATION);\n        } else if (blockDiedOfDehydration < block.number && blockDiedOfDehydration < blockDiedOfStarvation && blockDiedOfDehydration < blockDiedOfInfection) {\n            // Died of dehydration\n            revert(ERROR_DIED_DEHYDRATION);\n        } else if (blockDiedOfInfection < block.number && blockDiedOfInfection < blockDiedOfStarvation && blockDiedOfInfection < blockDiedOfDehydration) {\n            // Died of infection\n            revert(ERROR_DIED_INFECTION);\n        }\n        _;\n    }\n\n    function uAdjustedAmount(\n        uint256 amountToAdd,\n        uint256 currentAmount,\n        uint256 maxAmount\n    ) public pure returns(uint256) {\n        uint256 totalAmount = amountToAdd + currentAmount;\n        if (totalAmount <= maxAmount) {\n            // The amountToAdd is still not maxed out. Free to add the entire amount\n            return amountToAdd;\n        }\n        // TotalAmount must be greater than maxAmount\n\n        if (currentAmount >= maxAmount) {\n            // current amount is greater than max. Can't do anything but return zero.\n            // This should be an error\n            return 0;\n        }\n        // Current amount must be less than maxAmount.\n        // amountToAdd must be greater than maxAmount. \n\n        // Take the maxAmount - currentAmount.\n        return maxAmount - currentAmount;\n    }\n\n    /**\n    * Queue Implementation\n    */\n    struct Queue { \n        mapping(uint256 => uint256) items;\n        uint256 first;\n        uint256 last;\n    }\n\n    function peekFirst(Queue storage queue, uint n) internal view returns (uint256[] memory) {\n        uint256[] memory items = new uint256[](n);\n        for (uint i = 0; i < n; i++) {\n            items[i] = queue.items[queue.first + i];\n        }\n        return items;\n    }\n\n    function enqueue(Queue storage queue, uint256 data) internal {\n        queue.items[queue.last] = data;\n        queue.last += 1;\n    }\n\n    function dequeue(Queue storage queue) internal returns (uint256 data) {\n        require(queue.last >= queue.first);  // non-empty queue\n        data = queue.items[queue.first];\n        delete queue.items[queue.first];\n        queue.first += 1;\n    }\n}",
  "sourcePath": "/Users/jmalfara/Documents/tamoblockhi/contracts/Tomablockhi.sol",
  "compiler": {
    "name": "solc",
    "version": "0.8.17+commit.8df45f5f.Emscripten.clang"
  },
  "schemaVersion": "3.4.8",
  "updatedAt": "2022-09-28T17:06:37.592Z",
  "networkType": "ethereum",
  "devdoc": {
    "kind": "dev",
    "methods": {
      "balanceOf(address,uint256)": {
        "details": "See {IERC1155-balanceOf}. Requirements: - `account` cannot be the zero address."
      },
      "balanceOfBatch(address[],uint256[])": {
        "details": "See {IERC1155-balanceOfBatch}. Requirements: - `accounts` and `ids` must have the same length."
      },
      "exists(uint256)": {
        "details": "Indicates whether any token exist with a given id, or not."
      },
      "isApprovedForAll(address,address)": {
        "details": "See {IERC1155-isApprovedForAll}."
      },
      "owner()": {
        "details": "Returns the address of the current owner."
      },
      "renounceOwnership()": {
        "details": "Leaves the contract without owner. It will not be possible to call `onlyOwner` functions anymore. Can only be called by the current owner. NOTE: Renouncing ownership will leave the contract without an owner, thereby removing any functionality that is only available to the owner."
      },
      "safeBatchTransferFrom(address,address,uint256[],uint256[],bytes)": {
        "details": "See {IERC1155-safeBatchTransferFrom}."
      },
      "safeTransferFrom(address,address,uint256,uint256,bytes)": {
        "details": "See {IERC1155-safeTransferFrom}."
      },
      "setApprovalForAll(address,bool)": {
        "details": "See {IERC1155-setApprovalForAll}."
      },
      "supportsInterface(bytes4)": {
        "details": "See {IERC165-supportsInterface}."
      },
      "totalSupply(uint256)": {
        "details": "Total amount of tokens in with a given id."
      },
      "transferOwnership(address)": {
        "details": "Transfers ownership of the contract to a new account (`newOwner`). Can only be called by the current owner."
      },
      "uri(uint256)": {
        "details": "See {IERC1155MetadataURI-uri}. This implementation returns the same URI for *all* token types. It relies on the token type ID substitution mechanism https://eips.ethereum.org/EIPS/eip-1155#metadata[defined in the EIP]. Clients calling this function must replace the `\\{id\\}` substring with the actual token type ID."
      }
    },
    "version": 1
  },
  "userdoc": {
    "kind": "user",
    "methods": {},
    "version": 1
  }
}