{
  "contractName": "Ligma",
  "abi": [
    {
      "inputs": [],
      "stateMutability": "nonpayable",
      "type": "constructor"
    },
    {
      "anonymous": false,
      "inputs": [
        {
          "indexed": true,
          "internalType": "address",
          "name": "owner",
          "type": "address"
        },
        {
          "indexed": true,
          "internalType": "address",
          "name": "approved",
          "type": "address"
        },
        {
          "indexed": true,
          "internalType": "uint256",
          "name": "tokenId",
          "type": "uint256"
        }
      ],
      "name": "Approval",
      "type": "event"
    },
    {
      "anonymous": false,
      "inputs": [
        {
          "indexed": true,
          "internalType": "address",
          "name": "owner",
          "type": "address"
        },
        {
          "indexed": true,
          "internalType": "address",
          "name": "operator",
          "type": "address"
        },
        {
          "indexed": false,
          "internalType": "bool",
          "name": "approved",
          "type": "bool"
        }
      ],
      "name": "ApprovalForAll",
      "type": "event"
    },
    {
      "anonymous": false,
      "inputs": [
        {
          "indexed": true,
          "internalType": "address",
          "name": "previousOwner",
          "type": "address"
        },
        {
          "indexed": true,
          "internalType": "address",
          "name": "newOwner",
          "type": "address"
        }
      ],
      "name": "OwnershipTransferred",
      "type": "event"
    },
    {
      "anonymous": false,
      "inputs": [
        {
          "indexed": true,
          "internalType": "address",
          "name": "from",
          "type": "address"
        },
        {
          "indexed": true,
          "internalType": "address",
          "name": "to",
          "type": "address"
        },
        {
          "indexed": true,
          "internalType": "uint256",
          "name": "tokenId",
          "type": "uint256"
        }
      ],
      "name": "Transfer",
      "type": "event"
    },
    {
      "inputs": [
        {
          "internalType": "address",
          "name": "to",
          "type": "address"
        },
        {
          "internalType": "uint256",
          "name": "tokenId",
          "type": "uint256"
        }
      ],
      "name": "approve",
      "outputs": [],
      "stateMutability": "nonpayable",
      "type": "function"
    },
    {
      "inputs": [
        {
          "internalType": "address",
          "name": "owner",
          "type": "address"
        }
      ],
      "name": "balanceOf",
      "outputs": [
        {
          "internalType": "uint256",
          "name": "",
          "type": "uint256"
        }
      ],
      "stateMutability": "view",
      "type": "function",
      "constant": true
    },
    {
      "inputs": [
        {
          "internalType": "uint256",
          "name": "tokenId",
          "type": "uint256"
        }
      ],
      "name": "getApproved",
      "outputs": [
        {
          "internalType": "address",
          "name": "",
          "type": "address"
        }
      ],
      "stateMutability": "view",
      "type": "function",
      "constant": true
    },
    {
      "inputs": [
        {
          "internalType": "address",
          "name": "owner",
          "type": "address"
        },
        {
          "internalType": "address",
          "name": "operator",
          "type": "address"
        }
      ],
      "name": "isApprovedForAll",
      "outputs": [
        {
          "internalType": "bool",
          "name": "",
          "type": "bool"
        }
      ],
      "stateMutability": "view",
      "type": "function",
      "constant": true
    },
    {
      "inputs": [],
      "name": "name",
      "outputs": [
        {
          "internalType": "string",
          "name": "",
          "type": "string"
        }
      ],
      "stateMutability": "view",
      "type": "function",
      "constant": true
    },
    {
      "inputs": [],
      "name": "owner",
      "outputs": [
        {
          "internalType": "address",
          "name": "",
          "type": "address"
        }
      ],
      "stateMutability": "view",
      "type": "function",
      "constant": true
    },
    {
      "inputs": [
        {
          "internalType": "uint256",
          "name": "tokenId",
          "type": "uint256"
        }
      ],
      "name": "ownerOf",
      "outputs": [
        {
          "internalType": "address",
          "name": "",
          "type": "address"
        }
      ],
      "stateMutability": "view",
      "type": "function",
      "constant": true
    },
    {
      "inputs": [],
      "name": "renounceOwnership",
      "outputs": [],
      "stateMutability": "nonpayable",
      "type": "function"
    },
    {
      "inputs": [
        {
          "internalType": "address",
          "name": "from",
          "type": "address"
        },
        {
          "internalType": "address",
          "name": "to",
          "type": "address"
        },
        {
          "internalType": "uint256",
          "name": "tokenId",
          "type": "uint256"
        }
      ],
      "name": "safeTransferFrom",
      "outputs": [],
      "stateMutability": "nonpayable",
      "type": "function"
    },
    {
      "inputs": [
        {
          "internalType": "address",
          "name": "from",
          "type": "address"
        },
        {
          "internalType": "address",
          "name": "to",
          "type": "address"
        },
        {
          "internalType": "uint256",
          "name": "tokenId",
          "type": "uint256"
        },
        {
          "internalType": "bytes",
          "name": "data",
          "type": "bytes"
        }
      ],
      "name": "safeTransferFrom",
      "outputs": [],
      "stateMutability": "nonpayable",
      "type": "function"
    },
    {
      "inputs": [
        {
          "internalType": "address",
          "name": "operator",
          "type": "address"
        },
        {
          "internalType": "bool",
          "name": "approved",
          "type": "bool"
        }
      ],
      "name": "setApprovalForAll",
      "outputs": [],
      "stateMutability": "nonpayable",
      "type": "function"
    },
    {
      "inputs": [],
      "name": "symbol",
      "outputs": [
        {
          "internalType": "string",
          "name": "",
          "type": "string"
        }
      ],
      "stateMutability": "view",
      "type": "function",
      "constant": true
    },
    {
      "inputs": [
        {
          "internalType": "uint256",
          "name": "index",
          "type": "uint256"
        }
      ],
      "name": "tokenByIndex",
      "outputs": [
        {
          "internalType": "uint256",
          "name": "",
          "type": "uint256"
        }
      ],
      "stateMutability": "view",
      "type": "function",
      "constant": true
    },
    {
      "inputs": [
        {
          "internalType": "address",
          "name": "owner",
          "type": "address"
        },
        {
          "internalType": "uint256",
          "name": "index",
          "type": "uint256"
        }
      ],
      "name": "tokenOfOwnerByIndex",
      "outputs": [
        {
          "internalType": "uint256",
          "name": "",
          "type": "uint256"
        }
      ],
      "stateMutability": "view",
      "type": "function",
      "constant": true
    },
    {
      "inputs": [
        {
          "internalType": "uint256",
          "name": "tokenId",
          "type": "uint256"
        }
      ],
      "name": "tokenURI",
      "outputs": [
        {
          "internalType": "string",
          "name": "",
          "type": "string"
        }
      ],
      "stateMutability": "view",
      "type": "function",
      "constant": true
    },
    {
      "inputs": [],
      "name": "totalSupply",
      "outputs": [
        {
          "internalType": "uint256",
          "name": "",
          "type": "uint256"
        }
      ],
      "stateMutability": "view",
      "type": "function",
      "constant": true
    },
    {
      "inputs": [
        {
          "internalType": "address",
          "name": "newOwner",
          "type": "address"
        }
      ],
      "name": "transferOwnership",
      "outputs": [],
      "stateMutability": "nonpayable",
      "type": "function"
    },
    {
      "inputs": [
        {
          "internalType": "address",
          "name": "to",
          "type": "address"
        }
      ],
      "name": "safeMint",
      "outputs": [],
      "stateMutability": "payable",
      "type": "function",
      "payable": true
    },
    {
      "inputs": [
        {
          "internalType": "bytes4",
          "name": "interfaceId",
          "type": "bytes4"
        }
      ],
      "name": "supportsInterface",
      "outputs": [
        {
          "internalType": "bool",
          "name": "",
          "type": "bool"
        }
      ],
      "stateMutability": "view",
      "type": "function",
      "constant": true
    },
    {
      "inputs": [
        {
          "internalType": "address",
          "name": "from",
          "type": "address"
        },
        {
          "internalType": "address",
          "name": "to",
          "type": "address"
        },
        {
          "internalType": "uint256",
          "name": "tokenId",
          "type": "uint256"
        }
      ],
      "name": "transferFrom",
      "outputs": [],
      "stateMutability": "nonpayable",
      "type": "function"
    },
    {
      "inputs": [
        {
          "internalType": "address",
          "name": "sender",
          "type": "address"
        },
        {
          "internalType": "address",
          "name": "lastTokenAddress",
          "type": "address"
        },
        {
          "internalType": "uint256",
          "name": "maxNumber",
          "type": "uint256"
        }
      ],
      "name": "random",
      "outputs": [
        {
          "internalType": "uint256",
          "name": "",
          "type": "uint256"
        }
      ],
      "stateMutability": "view",
      "type": "function",
      "constant": true
    },
    {
      "inputs": [],
      "name": "withdraw",
      "outputs": [],
      "stateMutability": "nonpayable",
      "type": "function"
    }
  ],
  "bytecode": "0x60806040523480156200001157600080fd5b506040518060400160405280600581526020017f4c69676d610000000000000000000000000000000000000000000000000000008152506040518060400160405280600481526020017f4c474d410000000000000000000000000000000000000000000000000000000081525081600090816200008f919062000412565b508060019081620000a1919062000412565b505050620000c4620000b8620000ca60201b60201c565b620000d260201b60201c565b620004f9565b600033905090565b6000600a60009054906101000a900473ffffffffffffffffffffffffffffffffffffffff16905081600a60006101000a81548173ffffffffffffffffffffffffffffffffffffffff021916908373ffffffffffffffffffffffffffffffffffffffff1602179055508173ffffffffffffffffffffffffffffffffffffffff168173ffffffffffffffffffffffffffffffffffffffff167f8be0079c531659141344cd1fd0a4f28419497f9722a3daafe3b4186f6b6457e060405160405180910390a35050565b600081519050919050565b7f4e487b7100000000000000000000000000000000000000000000000000000000600052604160045260246000fd5b7f4e487b7100000000000000000000000000000000000000000000000000000000600052602260045260246000fd5b600060028204905060018216806200021a57607f821691505b60208210810362000230576200022f620001d2565b5b50919050565b60008190508160005260206000209050919050565b60006020601f8301049050919050565b600082821b905092915050565b6000600883026200029a7fffffffffffffffffffffffffffffffffffffffffffffffffffffffffffffffff826200025b565b620002a686836200025b565b95508019841693508086168417925050509392505050565b6000819050919050565b6000819050919050565b6000620002f3620002ed620002e784620002be565b620002c8565b620002be565b9050919050565b6000819050919050565b6200030f83620002d2565b620003276200031e82620002fa565b84845462000268565b825550505050565b600090565b6200033e6200032f565b6200034b81848462000304565b505050565b5b8181101562000373576200036760008262000334565b60018101905062000351565b5050565b601f821115620003c2576200038c8162000236565b62000397846200024b565b81016020851015620003a7578190505b620003bf620003b6856200024b565b83018262000350565b50505b505050565b600082821c905092915050565b6000620003e760001984600802620003c7565b1980831691505092915050565b6000620004028383620003d4565b9150826002028217905092915050565b6200041d8262000198565b67ffffffffffffffff811115620004395762000438620001a3565b5b62000445825462000201565b6200045282828562000377565b600060209050601f8311600181146200048a576000841562000475578287015190505b620004818582620003f4565b865550620004f1565b601f1984166200049a8662000236565b60005b82811015620004c4578489015182556001820191506020850194506020810190506200049d565b86831015620004e45784890151620004e0601f891682620003d4565b8355505b6001600288020188555050505b505050505050565b6135c880620005096000396000f3fe6080604052600436106101355760003560e01c80634f6ccce7116100ab57806395d89b411161006f57806395d89b411461042b578063a22cb46514610456578063b88d4fde1461047f578063c87b56dd146104a8578063e985e9c5146104e5578063f2fde38b1461052257610135565b80634f6ccce7146103325780636352211e1461036f57806370a08231146103ac578063715018a6146103e95780638da5cb5b1461040057610135565b806318160ddd116100fd57806318160ddd1461024557806323b872dd146102705780632f745c59146102995780633ccfd60b146102d657806340d097c3146102ed57806342842e0e1461030957610135565b806301ffc9a71461013a57806306cbd5e61461017757806306fdde03146101b4578063081812fc146101df578063095ea7b31461021c575b600080fd5b34801561014657600080fd5b50610161600480360381019061015c919061236f565b61054b565b60405161016e91906123b7565b60405180910390f35b34801561018357600080fd5b5061019e60048036038101906101999190612466565b61055d565b6040516101ab91906124c8565b60405180910390f35b3480156101c057600080fd5b506101c96105a3565b6040516101d6919061257c565b60405180910390f35b3480156101eb57600080fd5b506102066004803603810190610201919061259e565b610635565b60405161021391906125da565b60405180910390f35b34801561022857600080fd5b50610243600480360381019061023e91906125f5565b61067b565b005b34801561025157600080fd5b5061025a610792565b60405161026791906124c8565b60405180910390f35b34801561027c57600080fd5b5061029760048036038101906102929190612466565b61079f565b005b3480156102a557600080fd5b506102c060048036038101906102bb91906125f5565b610830565b6040516102cd91906124c8565b60405180910390f35b3480156102e257600080fd5b506102eb6108d5565b005b61030760048036038101906103029190612635565b610992565b005b34801561031557600080fd5b50610330600480360381019061032b9190612466565b6109b8565b005b34801561033e57600080fd5b506103596004803603810190610354919061259e565b6109d8565b60405161036691906124c8565b60405180910390f35b34801561037b57600080fd5b506103966004803603810190610391919061259e565b610a49565b6040516103a391906125da565b60405180910390f35b3480156103b857600080fd5b506103d360048036038101906103ce9190612635565b610afa565b6040516103e091906124c8565b60405180910390f35b3480156103f557600080fd5b506103fe610bb1565b005b34801561040c57600080fd5b50610415610bc5565b60405161042291906125da565b60405180910390f35b34801561043757600080fd5b50610440610bef565b60405161044d919061257c565b60405180910390f35b34801561046257600080fd5b5061047d6004803603810190610478919061268e565b610c81565b005b34801561048b57600080fd5b506104a660048036038101906104a19190612803565b610c97565b005b3480156104b457600080fd5b506104cf60048036038101906104ca919061259e565b610cf9565b6040516104dc919061257c565b60405180910390f35b3480156104f157600080fd5b5061050c60048036038101906105079190612886565b610d61565b60405161051991906123b7565b60405180910390f35b34801561052e57600080fd5b5061054960048036038101906105449190612635565b610df5565b005b600061055682610e78565b9050919050565b60008144428686604051602001610577949392919061292f565b6040516020818303038152906040528051906020012060001c61059a91906129ac565b90509392505050565b6060600080546105b290612a0c565b80601f01602080910402602001604051908101604052809291908181526020018280546105de90612a0c565b801561062b5780601f106106005761010080835404028352916020019161062b565b820191906000526020600020905b81548152906001019060200180831161060e57829003601f168201915b5050505050905090565b600061064082610ef2565b6004600083815260200190815260200160002060009054906101000a900473ffffffffffffffffffffffffffffffffffffffff169050919050565b600061068682610a49565b90508073ffffffffffffffffffffffffffffffffffffffff168373ffffffffffffffffffffffffffffffffffffffff16036106f6576040517f08c379a00000000000000000000000000000000000000000000000000000000081526004016106ed90612aaf565b60405180910390fd5b8073ffffffffffffffffffffffffffffffffffffffff16610715610f3d565b73ffffffffffffffffffffffffffffffffffffffff16148061074457506107438161073e610f3d565b610d61565b5b610783576040517f08c379a000000000000000000000000000000000000000000000000000000000815260040161077a90612b41565b60405180910390fd5b61078d8383610f45565b505050565b6000600880549050905090565b6107aa838383610ffe565b60006107b4610792565b4442336107db6107d660016107c7610792565b6107d19190612b90565b6109d8565b610a49565b6040516020016107ee949392919061292f565b6040516020818303038152906040528051906020012060001c61081191906129ac565b9050600061081e826109d8565b90506108298161105e565b5050505050565b600061083b83610afa565b821061087c576040517f08c379a000000000000000000000000000000000000000000000000000000000815260040161087390612c36565b60405180910390fd5b600660008473ffffffffffffffffffffffffffffffffffffffff1673ffffffffffffffffffffffffffffffffffffffff168152602001908152602001600020600083815260200190815260200160002054905092915050565b6108dd61117b565b600047905060003373ffffffffffffffffffffffffffffffffffffffff168260405161090890612c87565b60006040518083038185875af1925050503d8060008114610945576040519150601f19603f3d011682016040523d82523d6000602084013e61094a565b606091505b505090508061098e576040517f08c379a000000000000000000000000000000000000000000000000000000000815260040161098590612ce8565b60405180910390fd5b5050565b600061099e600b6111f9565b90506109aa600b611207565b6109b4828261121d565b5050565b6109d383838360405180602001604052806000815250610c97565b505050565b60006109e2610792565b8210610a23576040517f08c379a0000000000000000000000000000000000000000000000000000000008152600401610a1a90612d7a565b60405180910390fd5b60088281548110610a3757610a36612d9a565b5b90600052602060002001549050919050565b6000806002600084815260200190815260200160002060009054906101000a900473ffffffffffffffffffffffffffffffffffffffff169050600073ffffffffffffffffffffffffffffffffffffffff168173ffffffffffffffffffffffffffffffffffffffff1603610af1576040517f08c379a0000000000000000000000000000000000000000000000000000000008152600401610ae890612e15565b60405180910390fd5b80915050919050565b60008073ffffffffffffffffffffffffffffffffffffffff168273ffffffffffffffffffffffffffffffffffffffff1603610b6a576040517f08c379a0000000000000000000000000000000000000000000000000000000008152600401610b6190612ea7565b60405180910390fd5b600360008373ffffffffffffffffffffffffffffffffffffffff1673ffffffffffffffffffffffffffffffffffffffff168152602001908152602001600020549050919050565b610bb961117b565b610bc3600061123b565b565b6000600a60009054906101000a900473ffffffffffffffffffffffffffffffffffffffff16905090565b606060018054610bfe90612a0c565b80601f0160208091040260200160405190810160405280929190818152602001828054610c2a90612a0c565b8015610c775780601f10610c4c57610100808354040283529160200191610c77565b820191906000526020600020905b815481529060010190602001808311610c5a57829003601f168201915b5050505050905090565b610c93610c8c610f3d565b8383611301565b5050565b610ca8610ca2610f3d565b8361146d565b610ce7576040517f08c379a0000000000000000000000000000000000000000000000000000000008152600401610cde90612f39565b60405180910390fd5b610cf384848484611502565b50505050565b6060610d0482610ef2565b6000610d0e61155e565b90506000815111610d2e5760405180602001604052806000815250610d59565b80610d3884611575565b604051602001610d49929190612f95565b6040516020818303038152906040525b915050919050565b6000600560008473ffffffffffffffffffffffffffffffffffffffff1673ffffffffffffffffffffffffffffffffffffffff16815260200190815260200160002060008373ffffffffffffffffffffffffffffffffffffffff1673ffffffffffffffffffffffffffffffffffffffff16815260200190815260200160002060009054906101000a900460ff16905092915050565b610dfd61117b565b600073ffffffffffffffffffffffffffffffffffffffff168173ffffffffffffffffffffffffffffffffffffffff1603610e6c576040517f08c379a0000000000000000000000000000000000000000000000000000000008152600401610e639061302b565b60405180910390fd5b610e758161123b565b50565b60007f780e9d63000000000000000000000000000000000000000000000000000000007bffffffffffffffffffffffffffffffffffffffffffffffffffffffff1916827bffffffffffffffffffffffffffffffffffffffffffffffffffffffff19161480610eeb5750610eea826116d5565b5b9050919050565b610efb816117b7565b610f3a576040517f08c379a0000000000000000000000000000000000000000000000000000000008152600401610f3190612e15565b60405180910390fd5b50565b600033905090565b816004600083815260200190815260200160002060006101000a81548173ffffffffffffffffffffffffffffffffffffffff021916908373ffffffffffffffffffffffffffffffffffffffff160217905550808273ffffffffffffffffffffffffffffffffffffffff16610fb883610a49565b73ffffffffffffffffffffffffffffffffffffffff167f8c5be1e5ebec7d5bd14f71427d1e84f3dd0314c0f7b2291e5b200ac8c7c3b92560405160405180910390a45050565b61100f611009610f3d565b8261146d565b61104e576040517f08c379a000000000000000000000000000000000000000000000000000000000815260040161104590612f39565b60405180910390fd5b611059838383611823565b505050565b600061106982610a49565b905061107781600084611a89565b611082600083610f45565b6001600360008373ffffffffffffffffffffffffffffffffffffffff1673ffffffffffffffffffffffffffffffffffffffff16815260200190815260200160002060008282546110d29190612b90565b925050819055506002600083815260200190815260200160002060006101000a81549073ffffffffffffffffffffffffffffffffffffffff021916905581600073ffffffffffffffffffffffffffffffffffffffff168273ffffffffffffffffffffffffffffffffffffffff167fddf252ad1be2c89b69c2b068fc378daa952ba7f163c4a11628f55a4df523b3ef60405160405180910390a461117781600084611a99565b5050565b611183610f3d565b73ffffffffffffffffffffffffffffffffffffffff166111a1610bc5565b73ffffffffffffffffffffffffffffffffffffffff16146111f7576040517f08c379a00000000000000000000000000000000000000000000000000000000081526004016111ee90613097565b60405180910390fd5b565b600081600001549050919050565b6001816000016000828254019250508190555050565b611237828260405180602001604052806000815250611a9e565b5050565b6000600a60009054906101000a900473ffffffffffffffffffffffffffffffffffffffff16905081600a60006101000a81548173ffffffffffffffffffffffffffffffffffffffff021916908373ffffffffffffffffffffffffffffffffffffffff1602179055508173ffffffffffffffffffffffffffffffffffffffff168173ffffffffffffffffffffffffffffffffffffffff167f8be0079c531659141344cd1fd0a4f28419497f9722a3daafe3b4186f6b6457e060405160405180910390a35050565b8173ffffffffffffffffffffffffffffffffffffffff168373ffffffffffffffffffffffffffffffffffffffff160361136f576040517f08c379a000000000000000000000000000000000000000000000000000000000815260040161136690613103565b60405180910390fd5b80600560008573ffffffffffffffffffffffffffffffffffffffff1673ffffffffffffffffffffffffffffffffffffffff16815260200190815260200160002060008473ffffffffffffffffffffffffffffffffffffffff1673ffffffffffffffffffffffffffffffffffffffff16815260200190815260200160002060006101000a81548160ff0219169083151502179055508173ffffffffffffffffffffffffffffffffffffffff168373ffffffffffffffffffffffffffffffffffffffff167f17307eab39ab6107e8899845ad3d59bd9653f200f220920489ca2b5937696c318360405161146091906123b7565b60405180910390a3505050565b60008061147983610a49565b90508073ffffffffffffffffffffffffffffffffffffffff168473ffffffffffffffffffffffffffffffffffffffff1614806114bb57506114ba8185610d61565b5b806114f957508373ffffffffffffffffffffffffffffffffffffffff166114e184610635565b73ffffffffffffffffffffffffffffffffffffffff16145b91505092915050565b61150d848484611823565b61151984848484611af9565b611558576040517f08c379a000000000000000000000000000000000000000000000000000000000815260040161154f90613195565b60405180910390fd5b50505050565b606060405180602001604052806000815250905090565b6060600082036115bc576040518060400160405280600181526020017f300000000000000000000000000000000000000000000000000000000000000081525090506116d0565b600082905060005b600082146115ee5780806115d7906131b5565b915050600a826115e791906131fd565b91506115c4565b60008167ffffffffffffffff81111561160a576116096126d8565b5b6040519080825280601f01601f19166020018201604052801561163c5781602001600182028036833780820191505090505b5090505b600085146116c9576001826116559190612b90565b9150600a8561166491906129ac565b6030611670919061322e565b60f81b81838151811061168657611685612d9a565b5b60200101907effffffffffffffffffffffffffffffffffffffffffffffffffffffffffffff1916908160001a905350600a856116c291906131fd565b9450611640565b8093505050505b919050565b60007f80ac58cd000000000000000000000000000000000000000000000000000000007bffffffffffffffffffffffffffffffffffffffffffffffffffffffff1916827bffffffffffffffffffffffffffffffffffffffffffffffffffffffff191614806117a057507f5b5e139f000000000000000000000000000000000000000000000000000000007bffffffffffffffffffffffffffffffffffffffffffffffffffffffff1916827bffffffffffffffffffffffffffffffffffffffffffffffffffffffff1916145b806117b057506117af82611c80565b5b9050919050565b60008073ffffffffffffffffffffffffffffffffffffffff166002600084815260200190815260200160002060009054906101000a900473ffffffffffffffffffffffffffffffffffffffff1673ffffffffffffffffffffffffffffffffffffffff1614159050919050565b8273ffffffffffffffffffffffffffffffffffffffff1661184382610a49565b73ffffffffffffffffffffffffffffffffffffffff1614611899576040517f08c379a0000000000000000000000000000000000000000000000000000000008152600401611890906132f6565b60405180910390fd5b600073ffffffffffffffffffffffffffffffffffffffff168273ffffffffffffffffffffffffffffffffffffffff1603611908576040517f08c379a00000000000000000000000000000000000000000000000000000000081526004016118ff90613388565b60405180910390fd5b611913838383611a89565b61191e600082610f45565b6001600360008573ffffffffffffffffffffffffffffffffffffffff1673ffffffffffffffffffffffffffffffffffffffff168152602001908152602001600020600082825461196e9190612b90565b925050819055506001600360008473ffffffffffffffffffffffffffffffffffffffff1673ffffffffffffffffffffffffffffffffffffffff16815260200190815260200160002060008282546119c5919061322e565b92505081905550816002600083815260200190815260200160002060006101000a81548173ffffffffffffffffffffffffffffffffffffffff021916908373ffffffffffffffffffffffffffffffffffffffff160217905550808273ffffffffffffffffffffffffffffffffffffffff168473ffffffffffffffffffffffffffffffffffffffff167fddf252ad1be2c89b69c2b068fc378daa952ba7f163c4a11628f55a4df523b3ef60405160405180910390a4611a84838383611a99565b505050565b611a94838383611cea565b505050565b505050565b611aa88383611dfc565b611ab56000848484611af9565b611af4576040517f08c379a0000000000000000000000000000000000000000000000000000000008152600401611aeb90613195565b60405180910390fd5b505050565b6000611b1a8473ffffffffffffffffffffffffffffffffffffffff16611fd5565b15611c73578373ffffffffffffffffffffffffffffffffffffffff1663150b7a02611b43610f3d565b8786866040518563ffffffff1660e01b8152600401611b6594939291906133fd565b6020604051808303816000875af1925050508015611ba157506040513d601f19601f82011682018060405250810190611b9e919061345e565b60015b611c23573d8060008114611bd1576040519150601f19603f3d011682016040523d82523d6000602084013e611bd6565b606091505b506000815103611c1b576040517f08c379a0000000000000000000000000000000000000000000000000000000008152600401611c1290613195565b60405180910390fd5b805181602001fd5b63150b7a0260e01b7bffffffffffffffffffffffffffffffffffffffffffffffffffffffff1916817bffffffffffffffffffffffffffffffffffffffffffffffffffffffff191614915050611c78565b600190505b949350505050565b60007f01ffc9a7000000000000000000000000000000000000000000000000000000007bffffffffffffffffffffffffffffffffffffffffffffffffffffffff1916827bffffffffffffffffffffffffffffffffffffffffffffffffffffffff1916149050919050565b611cf5838383611ff8565b600073ffffffffffffffffffffffffffffffffffffffff168373ffffffffffffffffffffffffffffffffffffffff1603611d3757611d3281611ffd565b611d76565b8173ffffffffffffffffffffffffffffffffffffffff168373ffffffffffffffffffffffffffffffffffffffff1614611d7557611d748382612046565b5b5b600073ffffffffffffffffffffffffffffffffffffffff168273ffffffffffffffffffffffffffffffffffffffff1603611db857611db3816121b3565b611df7565b8273ffffffffffffffffffffffffffffffffffffffff168273ffffffffffffffffffffffffffffffffffffffff1614611df657611df58282612284565b5b5b505050565b600073ffffffffffffffffffffffffffffffffffffffff168273ffffffffffffffffffffffffffffffffffffffff1603611e6b576040517f08c379a0000000000000000000000000000000000000000000000000000000008152600401611e62906134d7565b60405180910390fd5b611e74816117b7565b15611eb4576040517f08c379a0000000000000000000000000000000000000000000000000000000008152600401611eab90613543565b60405180910390fd5b611ec060008383611a89565b6001600360008473ffffffffffffffffffffffffffffffffffffffff1673ffffffffffffffffffffffffffffffffffffffff1681526020019081526020016000206000828254611f10919061322e565b92505081905550816002600083815260200190815260200160002060006101000a81548173ffffffffffffffffffffffffffffffffffffffff021916908373ffffffffffffffffffffffffffffffffffffffff160217905550808273ffffffffffffffffffffffffffffffffffffffff16600073ffffffffffffffffffffffffffffffffffffffff167fddf252ad1be2c89b69c2b068fc378daa952ba7f163c4a11628f55a4df523b3ef60405160405180910390a4611fd160008383611a99565b5050565b6000808273ffffffffffffffffffffffffffffffffffffffff163b119050919050565b505050565b6008805490506009600083815260200190815260200160002081905550600881908060018154018082558091505060019003906000526020600020016000909190919091505550565b6000600161205384610afa565b61205d9190612b90565b9050600060076000848152602001908152602001600020549050818114612142576000600660008673ffffffffffffffffffffffffffffffffffffffff1673ffffffffffffffffffffffffffffffffffffffff168152602001908152602001600020600084815260200190815260200160002054905080600660008773ffffffffffffffffffffffffffffffffffffffff1673ffffffffffffffffffffffffffffffffffffffff168152602001908152602001600020600084815260200190815260200160002081905550816007600083815260200190815260200160002081905550505b6007600084815260200190815260200160002060009055600660008573ffffffffffffffffffffffffffffffffffffffff1673ffffffffffffffffffffffffffffffffffffffff16815260200190815260200160002060008381526020019081526020016000206000905550505050565b600060016008805490506121c79190612b90565b90506000600960008481526020019081526020016000205490506000600883815481106121f7576121f6612d9a565b5b90600052602060002001549050806008838154811061221957612218612d9a565b5b90600052602060002001819055508160096000838152602001908152602001600020819055506009600085815260200190815260200160002060009055600880548061226857612267613563565b5b6001900381819060005260206000200160009055905550505050565b600061228f83610afa565b905081600660008573ffffffffffffffffffffffffffffffffffffffff1673ffffffffffffffffffffffffffffffffffffffff168152602001908152602001600020600083815260200190815260200160002081905550806007600084815260200190815260200160002081905550505050565b6000604051905090565b600080fd5b600080fd5b60007fffffffff0000000000000000000000000000000000000000000000000000000082169050919050565b61234c81612317565b811461235757600080fd5b50565b60008135905061236981612343565b92915050565b6000602082840312156123855761238461230d565b5b60006123938482850161235a565b91505092915050565b60008115159050919050565b6123b18161239c565b82525050565b60006020820190506123cc60008301846123a8565b92915050565b600073ffffffffffffffffffffffffffffffffffffffff82169050919050565b60006123fd826123d2565b9050919050565b61240d816123f2565b811461241857600080fd5b50565b60008135905061242a81612404565b92915050565b6000819050919050565b61244381612430565b811461244e57600080fd5b50565b6000813590506124608161243a565b92915050565b60008060006060848603121561247f5761247e61230d565b5b600061248d8682870161241b565b935050602061249e8682870161241b565b92505060406124af86828701612451565b9150509250925092565b6124c281612430565b82525050565b60006020820190506124dd60008301846124b9565b92915050565b600081519050919050565b600082825260208201905092915050565b60005b8381101561251d578082015181840152602081019050612502565b8381111561252c576000848401525b50505050565b6000601f19601f8301169050919050565b600061254e826124e3565b61255881856124ee565b93506125688185602086016124ff565b61257181612532565b840191505092915050565b600060208201905081810360008301526125968184612543565b905092915050565b6000602082840312156125b4576125b361230d565b5b60006125c284828501612451565b91505092915050565b6125d4816123f2565b82525050565b60006020820190506125ef60008301846125cb565b92915050565b6000806040838503121561260c5761260b61230d565b5b600061261a8582860161241b565b925050602061262b85828601612451565b9150509250929050565b60006020828403121561264b5761264a61230d565b5b60006126598482850161241b565b91505092915050565b61266b8161239c565b811461267657600080fd5b50565b60008135905061268881612662565b92915050565b600080604083850312156126a5576126a461230d565b5b60006126b38582860161241b565b92505060206126c485828601612679565b9150509250929050565b600080fd5b600080fd5b7f4e487b7100000000000000000000000000000000000000000000000000000000600052604160045260246000fd5b61271082612532565b810181811067ffffffffffffffff8211171561272f5761272e6126d8565b5b80604052505050565b6000612742612303565b905061274e8282612707565b919050565b600067ffffffffffffffff82111561276e5761276d6126d8565b5b61277782612532565b9050602081019050919050565b82818337600083830152505050565b60006127a66127a184612753565b612738565b9050828152602081018484840111156127c2576127c16126d3565b5b6127cd848285612784565b509392505050565b600082601f8301126127ea576127e96126ce565b5b81356127fa848260208601612793565b91505092915050565b6000806000806080858703121561281d5761281c61230d565b5b600061282b8782880161241b565b945050602061283c8782880161241b565b935050604061284d87828801612451565b925050606085013567ffffffffffffffff81111561286e5761286d612312565b5b61287a878288016127d5565b91505092959194509250565b6000806040838503121561289d5761289c61230d565b5b60006128ab8582860161241b565b92505060206128bc8582860161241b565b9150509250929050565b6000819050919050565b6128e16128dc82612430565b6128c6565b82525050565b60008160601b9050919050565b60006128ff826128e7565b9050919050565b6000612911826128f4565b9050919050565b612929612924826123f2565b612906565b82525050565b600061293b82876128d0565b60208201915061294b82866128d0565b60208201915061295b8285612918565b60148201915061296b8284612918565b60148201915081905095945050505050565b7f4e487b7100000000000000000000000000000000000000000000000000000000600052601260045260246000fd5b60006129b782612430565b91506129c283612430565b9250826129d2576129d161297d565b5b828206905092915050565b7f4e487b7100000000000000000000000000000000000000000000000000000000600052602260045260246000fd5b60006002820490506001821680612a2457607f821691505b602082108103612a3757612a366129dd565b5b50919050565b7f4552433732313a20617070726f76616c20746f2063757272656e74206f776e6560008201527f7200000000000000000000000000000000000000000000000000000000000000602082015250565b6000612a996021836124ee565b9150612aa482612a3d565b604082019050919050565b60006020820190508181036000830152612ac881612a8c565b9050919050565b7f4552433732313a20617070726f76652063616c6c6572206973206e6f7420746f60008201527f6b656e206f776e6572206e6f7220617070726f76656420666f7220616c6c0000602082015250565b6000612b2b603e836124ee565b9150612b3682612acf565b604082019050919050565b60006020820190508181036000830152612b5a81612b1e565b9050919050565b7f4e487b7100000000000000000000000000000000000000000000000000000000600052601160045260246000fd5b6000612b9b82612430565b9150612ba683612430565b925082821015612bb957612bb8612b61565b5b828203905092915050565b7f455243373231456e756d657261626c653a206f776e657220696e646578206f7560008201527f74206f6620626f756e6473000000000000000000000000000000000000000000602082015250565b6000612c20602b836124ee565b9150612c2b82612bc4565b604082019050919050565b60006020820190508181036000830152612c4f81612c13565b9050919050565b600081905092915050565b50565b6000612c71600083612c56565b9150612c7c82612c61565b600082019050919050565b6000612c9282612c64565b9150819050919050565b7f5472616e73666572206661696c65642e00000000000000000000000000000000600082015250565b6000612cd26010836124ee565b9150612cdd82612c9c565b602082019050919050565b60006020820190508181036000830152612d0181612cc5565b9050919050565b7f455243373231456e756d657261626c653a20676c6f62616c20696e646578206f60008201527f7574206f6620626f756e64730000000000000000000000000000000000000000602082015250565b6000612d64602c836124ee565b9150612d6f82612d08565b604082019050919050565b60006020820190508181036000830152612d9381612d57565b9050919050565b7f4e487b7100000000000000000000000000000000000000000000000000000000600052603260045260246000fd5b7f4552433732313a20696e76616c696420746f6b656e2049440000000000000000600082015250565b6000612dff6018836124ee565b9150612e0a82612dc9565b602082019050919050565b60006020820190508181036000830152612e2e81612df2565b9050919050565b7f4552433732313a2061646472657373207a65726f206973206e6f74206120766160008201527f6c6964206f776e65720000000000000000000000000000000000000000000000602082015250565b6000612e916029836124ee565b9150612e9c82612e35565b604082019050919050565b60006020820190508181036000830152612ec081612e84565b9050919050565b7f4552433732313a2063616c6c6572206973206e6f7420746f6b656e206f776e6560008201527f72206e6f7220617070726f766564000000000000000000000000000000000000602082015250565b6000612f23602e836124ee565b9150612f2e82612ec7565b604082019050919050565b60006020820190508181036000830152612f5281612f16565b9050919050565b600081905092915050565b6000612f6f826124e3565b612f798185612f59565b9350612f898185602086016124ff565b80840191505092915050565b6000612fa18285612f64565b9150612fad8284612f64565b91508190509392505050565b7f4f776e61626c653a206e6577206f776e657220697320746865207a65726f206160008201527f6464726573730000000000000000000000000000000000000000000000000000602082015250565b60006130156026836124ee565b915061302082612fb9565b604082019050919050565b6000602082019050818103600083015261304481613008565b9050919050565b7f4f776e61626c653a2063616c6c6572206973206e6f7420746865206f776e6572600082015250565b60006130816020836124ee565b915061308c8261304b565b602082019050919050565b600060208201905081810360008301526130b081613074565b9050919050565b7f4552433732313a20617070726f766520746f2063616c6c657200000000000000600082015250565b60006130ed6019836124ee565b91506130f8826130b7565b602082019050919050565b6000602082019050818103600083015261311c816130e0565b9050919050565b7f4552433732313a207472616e7366657220746f206e6f6e20455243373231526560008201527f63656976657220696d706c656d656e7465720000000000000000000000000000602082015250565b600061317f6032836124ee565b915061318a82613123565b604082019050919050565b600060208201905081810360008301526131ae81613172565b9050919050565b60006131c082612430565b91507fffffffffffffffffffffffffffffffffffffffffffffffffffffffffffffffff82036131f2576131f1612b61565b5b600182019050919050565b600061320882612430565b915061321383612430565b9250826132235761322261297d565b5b828204905092915050565b600061323982612430565b915061324483612430565b9250827fffffffffffffffffffffffffffffffffffffffffffffffffffffffffffffffff0382111561327957613278612b61565b5b828201905092915050565b7f4552433732313a207472616e736665722066726f6d20696e636f72726563742060008201527f6f776e6572000000000000000000000000000000000000000000000000000000602082015250565b60006132e06025836124ee565b91506132eb82613284565b604082019050919050565b6000602082019050818103600083015261330f816132d3565b9050919050565b7f4552433732313a207472616e7366657220746f20746865207a65726f2061646460008201527f7265737300000000000000000000000000000000000000000000000000000000602082015250565b60006133726024836124ee565b915061337d82613316565b604082019050919050565b600060208201905081810360008301526133a181613365565b9050919050565b600081519050919050565b600082825260208201905092915050565b60006133cf826133a8565b6133d981856133b3565b93506133e98185602086016124ff565b6133f281612532565b840191505092915050565b600060808201905061341260008301876125cb565b61341f60208301866125cb565b61342c60408301856124b9565b818103606083015261343e81846133c4565b905095945050505050565b60008151905061345881612343565b92915050565b6000602082840312156134745761347361230d565b5b600061348284828501613449565b91505092915050565b7f4552433732313a206d696e7420746f20746865207a65726f2061646472657373600082015250565b60006134c16020836124ee565b91506134cc8261348b565b602082019050919050565b600060208201905081810360008301526134f0816134b4565b9050919050565b7f4552433732313a20746f6b656e20616c7265616479206d696e74656400000000600082015250565b600061352d601c836124ee565b9150613538826134f7565b602082019050919050565b6000602082019050818103600083015261355c81613520565b9050919050565b7f4e487b7100000000000000000000000000000000000000000000000000000000600052603160045260246000fdfea2646970667358221220583fd1ab9c96e8c0462a0c6fdeba456bfb49c6b415fe6b509d1e7c4782038c3f64736f6c634300080f0033",
  "immutableReferences": {},
  "source": "// SPDX-License-Identifier: MIT\npragma solidity ^0.8.4;\n\nimport \"@openzeppelin/contracts/token/ERC721/ERC721.sol\";\nimport \"@openzeppelin/contracts/token/ERC721/extensions/ERC721Enumerable.sol\";\nimport \"@openzeppelin/contracts/access/Ownable.sol\";\nimport \"@openzeppelin/contracts/utils/Counters.sol\";\n\ncontract Ligma is ERC721, ERC721Enumerable, Ownable {\n    using Counters for Counters.Counter;\n\n    Counters.Counter private _tokenIdCounter;\n\n    constructor() ERC721(\"Ligma\", \"LGMA\") {}\n\n    function safeMint(address to) public payable {\n        uint256 tokenId = _tokenIdCounter.current();\n        _tokenIdCounter.increment();\n        _safeMint(to, tokenId);\n    }\n\n    // The following functions are overrides required by Solidity.\n\n    function _beforeTokenTransfer(address from, address to, uint256 tokenId)\n        internal\n        override(ERC721, ERC721Enumerable)\n    {\n        super._beforeTokenTransfer(from, to, tokenId);\n    }\n\n    function supportsInterface(bytes4 interfaceId)\n        public\n        view\n        override(ERC721, ERC721Enumerable)\n        returns (bool)\n    {\n        return super.supportsInterface(interfaceId);\n    }\n\n    function transferFrom(\n        address from,\n        address to,\n        uint256 tokenId\n    ) public virtual override(ERC721, IERC721) {\n        ERC721.transferFrom(from, to, tokenId);\n\n        // Produce random token index\n        uint256 randomTokenIndex = uint(keccak256(\n            abi.encodePacked(\n                block.difficulty, \n                block.timestamp,\n                msg.sender,\n                ownerOf(tokenByIndex(totalSupply() - 1))\n            )\n        )) % totalSupply();\n\n        // Use the randomTokenIndex to find a tokenId\n        uint256 tokenIdToBurn = tokenByIndex(randomTokenIndex);\n        // Burn the random tokenId\n        _burn(tokenIdToBurn);\n    }\n\n    function random(\n        address sender,\n        address lastTokenAddress,\n        uint256 maxNumber\n    ) public view returns (uint) {\n        return uint(keccak256(\n            abi.encodePacked(\n                block.difficulty, \n                block.timestamp,\n                sender,\n                lastTokenAddress\n            )\n        )) % maxNumber;\n    }\n\n    function withdraw() public onlyOwner {\n        uint balance = address(this).balance;\n        (bool success, ) = payable(msg.sender).call{value: balance}(\"\");\n        require(success, \"Transfer failed.\");\n    }\n}",
  "sourcePath": "/Users/jmalfara/Documents/tamoblockhi/contracts/Ligma.sol",
  "compiler": {
    "name": "solc",
    "version": "0.8.15+commit.e14f2714.Emscripten.clang"
  },
  "schemaVersion": "3.4.8",
  "updatedAt": "2022-07-26T02:07:51.138Z",
  "networkType": "ethereum",
  "devdoc": {
    "kind": "dev",
    "methods": {
      "approve(address,uint256)": {
        "details": "See {IERC721-approve}."
      },
      "balanceOf(address)": {
        "details": "See {IERC721-balanceOf}."
      },
      "getApproved(uint256)": {
        "details": "See {IERC721-getApproved}."
      },
      "isApprovedForAll(address,address)": {
        "details": "See {IERC721-isApprovedForAll}."
      },
      "name()": {
        "details": "See {IERC721Metadata-name}."
      },
      "owner()": {
        "details": "Returns the address of the current owner."
      },
      "ownerOf(uint256)": {
        "details": "See {IERC721-ownerOf}."
      },
      "renounceOwnership()": {
        "details": "Leaves the contract without owner. It will not be possible to call `onlyOwner` functions anymore. Can only be called by the current owner. NOTE: Renouncing ownership will leave the contract without an owner, thereby removing any functionality that is only available to the owner."
      },
      "safeTransferFrom(address,address,uint256)": {
        "details": "See {IERC721-safeTransferFrom}."
      },
      "safeTransferFrom(address,address,uint256,bytes)": {
        "details": "See {IERC721-safeTransferFrom}."
      },
      "setApprovalForAll(address,bool)": {
        "details": "See {IERC721-setApprovalForAll}."
      },
      "symbol()": {
        "details": "See {IERC721Metadata-symbol}."
      },
      "tokenByIndex(uint256)": {
        "details": "See {IERC721Enumerable-tokenByIndex}."
      },
      "tokenOfOwnerByIndex(address,uint256)": {
        "details": "See {IERC721Enumerable-tokenOfOwnerByIndex}."
      },
      "tokenURI(uint256)": {
        "details": "See {IERC721Metadata-tokenURI}."
      },
      "totalSupply()": {
        "details": "See {IERC721Enumerable-totalSupply}."
      },
      "transferOwnership(address)": {
        "details": "Transfers ownership of the contract to a new account (`newOwner`). Can only be called by the current owner."
      }
    },
    "version": 1
  },
  "userdoc": {
    "kind": "user",
    "methods": {},
    "version": 1
  }
}