{
  "contractName": "Tamoblockhi",
  "abi": [
    {
      "inputs": [],
      "stateMutability": "nonpayable",
      "type": "constructor"
    },
    {
      "anonymous": false,
      "inputs": [
        {
          "indexed": true,
          "internalType": "address",
          "name": "account",
          "type": "address"
        },
        {
          "indexed": true,
          "internalType": "address",
          "name": "operator",
          "type": "address"
        },
        {
          "indexed": false,
          "internalType": "bool",
          "name": "approved",
          "type": "bool"
        }
      ],
      "name": "ApprovalForAll",
      "type": "event"
    },
    {
      "anonymous": false,
      "inputs": [
        {
          "indexed": true,
          "internalType": "address",
          "name": "previousOwner",
          "type": "address"
        },
        {
          "indexed": true,
          "internalType": "address",
          "name": "newOwner",
          "type": "address"
        }
      ],
      "name": "OwnershipTransferred",
      "type": "event"
    },
    {
      "anonymous": false,
      "inputs": [
        {
          "indexed": true,
          "internalType": "address",
          "name": "operator",
          "type": "address"
        },
        {
          "indexed": true,
          "internalType": "address",
          "name": "from",
          "type": "address"
        },
        {
          "indexed": true,
          "internalType": "address",
          "name": "to",
          "type": "address"
        },
        {
          "indexed": false,
          "internalType": "uint256[]",
          "name": "ids",
          "type": "uint256[]"
        },
        {
          "indexed": false,
          "internalType": "uint256[]",
          "name": "values",
          "type": "uint256[]"
        }
      ],
      "name": "TransferBatch",
      "type": "event"
    },
    {
      "anonymous": false,
      "inputs": [
        {
          "indexed": true,
          "internalType": "address",
          "name": "operator",
          "type": "address"
        },
        {
          "indexed": true,
          "internalType": "address",
          "name": "from",
          "type": "address"
        },
        {
          "indexed": true,
          "internalType": "address",
          "name": "to",
          "type": "address"
        },
        {
          "indexed": false,
          "internalType": "uint256",
          "name": "id",
          "type": "uint256"
        },
        {
          "indexed": false,
          "internalType": "uint256",
          "name": "value",
          "type": "uint256"
        }
      ],
      "name": "TransferSingle",
      "type": "event"
    },
    {
      "anonymous": false,
      "inputs": [
        {
          "indexed": false,
          "internalType": "string",
          "name": "value",
          "type": "string"
        },
        {
          "indexed": true,
          "internalType": "uint256",
          "name": "id",
          "type": "uint256"
        }
      ],
      "name": "URI",
      "type": "event"
    },
    {
      "inputs": [
        {
          "internalType": "address",
          "name": "account",
          "type": "address"
        },
        {
          "internalType": "uint256",
          "name": "id",
          "type": "uint256"
        }
      ],
      "name": "balanceOf",
      "outputs": [
        {
          "internalType": "uint256",
          "name": "",
          "type": "uint256"
        }
      ],
      "stateMutability": "view",
      "type": "function"
    },
    {
      "inputs": [
        {
          "internalType": "address[]",
          "name": "accounts",
          "type": "address[]"
        },
        {
          "internalType": "uint256[]",
          "name": "ids",
          "type": "uint256[]"
        }
      ],
      "name": "balanceOfBatch",
      "outputs": [
        {
          "internalType": "uint256[]",
          "name": "",
          "type": "uint256[]"
        }
      ],
      "stateMutability": "view",
      "type": "function"
    },
    {
      "inputs": [
        {
          "internalType": "uint256",
          "name": "id",
          "type": "uint256"
        }
      ],
      "name": "exists",
      "outputs": [
        {
          "internalType": "bool",
          "name": "",
          "type": "bool"
        }
      ],
      "stateMutability": "view",
      "type": "function"
    },
    {
      "inputs": [
        {
          "internalType": "address",
          "name": "account",
          "type": "address"
        },
        {
          "internalType": "address",
          "name": "operator",
          "type": "address"
        }
      ],
      "name": "isApprovedForAll",
      "outputs": [
        {
          "internalType": "bool",
          "name": "",
          "type": "bool"
        }
      ],
      "stateMutability": "view",
      "type": "function"
    },
    {
      "inputs": [],
      "name": "owner",
      "outputs": [
        {
          "internalType": "address",
          "name": "",
          "type": "address"
        }
      ],
      "stateMutability": "view",
      "type": "function"
    },
    {
      "inputs": [],
      "name": "renounceOwnership",
      "outputs": [],
      "stateMutability": "nonpayable",
      "type": "function"
    },
    {
      "inputs": [
        {
          "internalType": "address",
          "name": "from",
          "type": "address"
        },
        {
          "internalType": "address",
          "name": "to",
          "type": "address"
        },
        {
          "internalType": "uint256[]",
          "name": "ids",
          "type": "uint256[]"
        },
        {
          "internalType": "uint256[]",
          "name": "amounts",
          "type": "uint256[]"
        },
        {
          "internalType": "bytes",
          "name": "data",
          "type": "bytes"
        }
      ],
      "name": "safeBatchTransferFrom",
      "outputs": [],
      "stateMutability": "nonpayable",
      "type": "function"
    },
    {
      "inputs": [
        {
          "internalType": "address",
          "name": "from",
          "type": "address"
        },
        {
          "internalType": "address",
          "name": "to",
          "type": "address"
        },
        {
          "internalType": "uint256",
          "name": "id",
          "type": "uint256"
        },
        {
          "internalType": "uint256",
          "name": "amount",
          "type": "uint256"
        },
        {
          "internalType": "bytes",
          "name": "data",
          "type": "bytes"
        }
      ],
      "name": "safeTransferFrom",
      "outputs": [],
      "stateMutability": "nonpayable",
      "type": "function"
    },
    {
      "inputs": [
        {
          "internalType": "address",
          "name": "operator",
          "type": "address"
        },
        {
          "internalType": "bool",
          "name": "approved",
          "type": "bool"
        }
      ],
      "name": "setApprovalForAll",
      "outputs": [],
      "stateMutability": "nonpayable",
      "type": "function"
    },
    {
      "inputs": [
        {
          "internalType": "bytes4",
          "name": "interfaceId",
          "type": "bytes4"
        }
      ],
      "name": "supportsInterface",
      "outputs": [
        {
          "internalType": "bool",
          "name": "",
          "type": "bool"
        }
      ],
      "stateMutability": "view",
      "type": "function"
    },
    {
      "inputs": [
        {
          "internalType": "uint256",
          "name": "id",
          "type": "uint256"
        }
      ],
      "name": "totalSupply",
      "outputs": [
        {
          "internalType": "uint256",
          "name": "",
          "type": "uint256"
        }
      ],
      "stateMutability": "view",
      "type": "function"
    },
    {
      "inputs": [
        {
          "internalType": "address",
          "name": "newOwner",
          "type": "address"
        }
      ],
      "name": "transferOwnership",
      "outputs": [],
      "stateMutability": "nonpayable",
      "type": "function"
    },
    {
      "inputs": [
        {
          "internalType": "uint256",
          "name": "",
          "type": "uint256"
        }
      ],
      "name": "uri",
      "outputs": [
        {
          "internalType": "string",
          "name": "",
          "type": "string"
        }
      ],
      "stateMutability": "view",
      "type": "function"
    },
    {
      "inputs": [
        {
          "internalType": "string",
          "name": "newuri",
          "type": "string"
        }
      ],
      "name": "setURI",
      "outputs": [],
      "stateMutability": "nonpayable",
      "type": "function"
    },
    {
      "inputs": [
        {
          "internalType": "address",
          "name": "account",
          "type": "address"
        },
        {
          "internalType": "bytes",
          "name": "data",
          "type": "bytes"
        }
      ],
      "name": "hatch",
      "outputs": [],
      "stateMutability": "nonpayable",
      "type": "function"
    },
    {
      "inputs": [
        {
          "internalType": "address",
          "name": "account",
          "type": "address"
        },
        {
          "internalType": "uint256",
          "name": "tokenId",
          "type": "uint256"
        },
        {
          "internalType": "uint256",
          "name": "foodAmount",
          "type": "uint256"
        }
      ],
      "name": "feed",
      "outputs": [],
      "stateMutability": "nonpayable",
      "type": "function"
    },
    {
      "inputs": [
        {
          "internalType": "address",
          "name": "account",
          "type": "address"
        },
        {
          "internalType": "uint256",
          "name": "tokenId",
          "type": "uint256"
        },
        {
          "internalType": "uint256",
          "name": "waterAmount",
          "type": "uint256"
        }
      ],
      "name": "water",
      "outputs": [],
      "stateMutability": "nonpayable",
      "type": "function"
    },
    {
      "inputs": [
        {
          "internalType": "address",
          "name": "account",
          "type": "address"
        },
        {
          "internalType": "uint256",
          "name": "tokenId",
          "type": "uint256"
        }
      ],
      "name": "pet",
      "outputs": [],
      "stateMutability": "nonpayable",
      "type": "function"
    }
  ],
  "bytecode": "0x60806040526000600560006101000a81548160ff021916908360ff1602179055506001600560016101000a81548160ff021916908360ff1602179055506002600560026101000a81548160ff021916908360ff1602179055506003600560036101000a81548160ff021916908360ff1602179055506004600560046101000a81548160ff021916908360ff160217905550600a6006556006546007556118fb600860006101000a81548163ffffffff021916908363ffffffff1602179055506118fb600860046101000a81548163ffffffff021916908363ffffffff1602179055506103e86008806101000a81548163ffffffff021916908363ffffffff160217905550610bb86008600c6101000a81548163ffffffff021916908363ffffffff1602179055506203ce3d600860106101000a81548163ffffffff021916908363ffffffff1602179055506203ce3d600860146101000a81548163ffffffff021916908363ffffffff1602179055506118fb600860186101000a81548163ffffffff021916908363ffffffff1602179055503480156200019e57600080fd5b5060405180602001604052806000815250620001c081620001e760201b60201c565b50620001e1620001d5620001fc60201b60201c565b6200020460201b60201c565b6200062b565b8060029081620001f8919062000544565b5050565b600033905090565b6000600360009054906101000a900473ffffffffffffffffffffffffffffffffffffffff16905081600360006101000a81548173ffffffffffffffffffffffffffffffffffffffff021916908373ffffffffffffffffffffffffffffffffffffffff1602179055508173ffffffffffffffffffffffffffffffffffffffff168173ffffffffffffffffffffffffffffffffffffffff167f8be0079c531659141344cd1fd0a4f28419497f9722a3daafe3b4186f6b6457e060405160405180910390a35050565b600081519050919050565b7f4e487b7100000000000000000000000000000000000000000000000000000000600052604160045260246000fd5b7f4e487b7100000000000000000000000000000000000000000000000000000000600052602260045260246000fd5b600060028204905060018216806200034c57607f821691505b60208210810362000362576200036162000304565b5b50919050565b60008190508160005260206000209050919050565b60006020601f8301049050919050565b600082821b905092915050565b600060088302620003cc7fffffffffffffffffffffffffffffffffffffffffffffffffffffffffffffffff826200038d565b620003d886836200038d565b95508019841693508086168417925050509392505050565b6000819050919050565b6000819050919050565b6000620004256200041f6200041984620003f0565b620003fa565b620003f0565b9050919050565b6000819050919050565b620004418362000404565b6200045962000450826200042c565b8484546200039a565b825550505050565b600090565b6200047062000461565b6200047d81848462000436565b505050565b5b81811015620004a5576200049960008262000466565b60018101905062000483565b5050565b601f821115620004f457620004be8162000368565b620004c9846200037d565b81016020851015620004d9578190505b620004f1620004e8856200037d565b83018262000482565b50505b505050565b600082821c905092915050565b60006200051960001984600802620004f9565b1980831691505092915050565b600062000534838362000506565b9150826002028217905092915050565b6200054f82620002ca565b67ffffffffffffffff8111156200056b576200056a620002d5565b5b62000577825462000333565b62000584828285620004a9565b600060209050601f831160018114620005bc5760008415620005a7578287015190505b620005b3858262000526565b86555062000623565b601f198416620005cc8662000368565b60005b82811015620005f657848901518255600182019150602085019450602081019050620005cf565b8683101562000616578489015162000612601f89168262000506565b8355505b6001600288020188555050505b505050505050565b61406c806200063b6000396000f3fe608060405234801561001057600080fd5b50600436106101155760003560e01c8063626fc553116100a2578063bd85b03911610071578063bd85b039146102da578063e985e9c51461030a578063f242432a1461033a578063f2fde38b14610356578063face85ed1461037257610115565b8063626fc5531461027a578063715018a6146102965780638da5cb5b146102a0578063a22cb465146102be57610115565b806312c3448b116100e957806312c3448b146101c65780632eb2c2d6146101e25780634e1273f4146101fe5780634f558e791461022e57806353db78391461025e57610115565b8062fdd58e1461011a57806301ffc9a71461014a57806302fe53051461017a5780630e89341c14610196575b600080fd5b610134600480360381019061012f919061242d565b61038e565b604051610141919061247c565b60405180910390f35b610164600480360381019061015f91906124ef565b610456565b6040516101719190612537565b60405180910390f35b610194600480360381019061018f9190612698565b610538565b005b6101b060048036038101906101ab91906126e1565b61054c565b6040516101bd9190612796565b60405180910390f35b6101e060048036038101906101db919061242d565b6105e0565b005b6101fc60048036038101906101f79190612921565b61076d565b005b61021860048036038101906102139190612ab3565b61080e565b6040516102259190612be9565b60405180910390f35b610248600480360381019061024391906126e1565b610927565b6040516102559190612537565b60405180910390f35b61027860048036038101906102739190612c0b565b61093b565b005b610294600480360381019061028f9190612c5e565b610b59565b005b61029e610c58565b005b6102a8610c6c565b6040516102b59190612cc9565b60405180910390f35b6102d860048036038101906102d39190612d10565b610c96565b005b6102f460048036038101906102ef91906126e1565b610cac565b604051610301919061247c565b60405180910390f35b610324600480360381019061031f9190612d50565b610cc9565b6040516103319190612537565b60405180910390f35b610354600480360381019061034f9190612d90565b610d5d565b005b610370600480360381019061036b9190612e27565b610dfe565b005b61038c60048036038101906103879190612c0b565b610e81565b005b60008073ffffffffffffffffffffffffffffffffffffffff168373ffffffffffffffffffffffffffffffffffffffff16036103fe576040517f08c379a00000000000000000000000000000000000000000000000000000000081526004016103f590612ec6565b60405180910390fd5b60008083815260200190815260200160002060008473ffffffffffffffffffffffffffffffffffffffff1673ffffffffffffffffffffffffffffffffffffffff16815260200190815260200160002054905092915050565b60007fd9b67a26000000000000000000000000000000000000000000000000000000007bffffffffffffffffffffffffffffffffffffffffffffffffffffffff1916827bffffffffffffffffffffffffffffffffffffffffffffffffffffffff1916148061052157507f0e89341c000000000000000000000000000000000000000000000000000000007bffffffffffffffffffffffffffffffffffffffffffffffffffffffff1916827bffffffffffffffffffffffffffffffffffffffffffffffffffffffff1916145b8061053157506105308261105d565b5b9050919050565b6105406110c7565b61054981611145565b50565b60606002805461055b90612f15565b80601f016020809104026020016040519081016040528092919081815260200182805461058790612f15565b80156105d45780601f106105a9576101008083540402835291602001916105d4565b820191906000526020600020905b8154815290600101906020018083116105b757829003601f168201915b50505050509050919050565b80600654811015610626576040517f08c379a000000000000000000000000000000000000000000000000000000000815260040161061d90612f92565b60405180910390fd5b4360096000838152602001908152602001600020541061067b576040517f08c379a000000000000000000000000000000000000000000000000000000000815260040161067290612ffe565b60405180910390fd5b600043600b60008581526020019081526020016000205461069c919061304d565b9050600860189054906101000a900463ffffffff1663ffffffff168110156106f9576040517f08c379a00000000000000000000000000000000000000000000000000000000081526004016106f0906130cd565b60405180910390fd5b61072784600560039054906101000a900460ff1660ff16600160405180602001604052806000815250611158565b60088054906101000a900463ffffffff1663ffffffff16600b6000858152602001908152602001600020600082825461076091906130ed565b9250508190555050505050565b610775611308565b73ffffffffffffffffffffffffffffffffffffffff168573ffffffffffffffffffffffffffffffffffffffff1614806107bb57506107ba856107b5611308565b610cc9565b5b6107fa576040517f08c379a00000000000000000000000000000000000000000000000000000000081526004016107f1906131b5565b60405180910390fd5b6108078585858585611310565b5050505050565b60608151835114610854576040517f08c379a000000000000000000000000000000000000000000000000000000000815260040161084b90613247565b60405180910390fd5b6000835167ffffffffffffffff8111156108715761087061256d565b5b60405190808252806020026020018201604052801561089f5781602001602082028036833780820191505090505b50905060005b845181101561091c576108ec8582815181106108c4576108c3613267565b5b60200260200101518583815181106108df576108de613267565b5b602002602001015161038e565b8282815181106108ff576108fe613267565b5b6020026020010181815250508061091590613296565b90506108a5565b508091505092915050565b60008061093383610cac565b119050919050565b81600654811015610981576040517f08c379a000000000000000000000000000000000000000000000000000000000815260040161097890612f92565b60405180910390fd5b436009600083815260200190815260200160002054106109d6576040517f08c379a00000000000000000000000000000000000000000000000000000000081526004016109cd90612ffe565b60405180910390fd5b816109f385600560009054906101000a900460ff1660ff1661038e565b1015610a34576040517f08c379a0000000000000000000000000000000000000000000000000000000008152600401610a2b9061332a565b60405180910390fd5b6000436009600086815260200190815260200160002054610a55919061304d565b9050600860109054906101000a900463ffffffff1663ffffffff168111610ab1576040517f08c379a0000000000000000000000000000000000000000000000000000000008152600401610aa890613396565b60405180910390fd5b600860009054906101000a900463ffffffff1663ffffffff16600960008681526020019081526020016000206000828254610aec91906130ed565b925050819055506008600c9054906101000a900463ffffffff1663ffffffff16600b60008681526020019081526020016000206000828254610b2e91906130ed565b92505081905550610b5285600560009054906101000a900460ff1660ff1685611631565b5050505050565b6001610b7783600560049054906101000a900460ff1660ff1661038e565b1015610bb8576040517f08c379a0000000000000000000000000000000000000000000000000000000008152600401610baf90613402565b60405180910390fd5b60076000815480929190610bcb90613296565b9190505550610bdf82600754600184611158565b600860009054906101000a900463ffffffff1663ffffffff1643610c0391906130ed565b6009600060075481526020019081526020016000208190555043600b6000600754815260200190815260200160002081905550610c5482600560049054906101000a900460ff1660ff166001611631565b5050565b610c606110c7565b610c6a6000611877565b565b6000600360009054906101000a900473ffffffffffffffffffffffffffffffffffffffff16905090565b610ca8610ca1611308565b838361193d565b5050565b600060046000838152602001908152602001600020549050919050565b6000600160008473ffffffffffffffffffffffffffffffffffffffff1673ffffffffffffffffffffffffffffffffffffffff16815260200190815260200160002060008373ffffffffffffffffffffffffffffffffffffffff1673ffffffffffffffffffffffffffffffffffffffff16815260200190815260200160002060009054906101000a900460ff16905092915050565b610d65611308565b73ffffffffffffffffffffffffffffffffffffffff168573ffffffffffffffffffffffffffffffffffffffff161480610dab5750610daa85610da5611308565b610cc9565b5b610dea576040517f08c379a0000000000000000000000000000000000000000000000000000000008152600401610de1906131b5565b60405180910390fd5b610df78585858585611aa9565b5050505050565b610e066110c7565b600073ffffffffffffffffffffffffffffffffffffffff168173ffffffffffffffffffffffffffffffffffffffff1603610e75576040517f08c379a0000000000000000000000000000000000000000000000000000000008152600401610e6c90613494565b60405180910390fd5b610e7e81611877565b50565b81600654811015610ec7576040517f08c379a0000000000000000000000000000000000000000000000000000000008152600401610ebe90612f92565b60405180910390fd5b43600960008381526020019081526020016000205410610f1c576040517f08c379a0000000000000000000000000000000000000000000000000000000008152600401610f1390612ffe565b60405180910390fd5b81610f3985600560029054906101000a900460ff1660ff1661038e565b1015610f7a576040517f08c379a0000000000000000000000000000000000000000000000000000000008152600401610f719061332a565b60405180910390fd5b600043600a600086815260200190815260200160002054610f9b919061304d565b9050600860149054906101000a900463ffffffff1663ffffffff168111610ff7576040517f08c379a0000000000000000000000000000000000000000000000000000000008152600401610fee90613500565b60405180910390fd5b600860049054906101000a900463ffffffff1663ffffffff16600a6000868152602001908152602001600020600082825461103291906130ed565b9250508190555061105685600560009054906101000a900460ff1660ff1685611631565b5050505050565b60007f01ffc9a7000000000000000000000000000000000000000000000000000000007bffffffffffffffffffffffffffffffffffffffffffffffffffffffff1916827bffffffffffffffffffffffffffffffffffffffffffffffffffffffff1916149050919050565b6110cf611308565b73ffffffffffffffffffffffffffffffffffffffff166110ed610c6c565b73ffffffffffffffffffffffffffffffffffffffff1614611143576040517f08c379a000000000000000000000000000000000000000000000000000000000815260040161113a9061356c565b60405180910390fd5b565b80600290816111549190613738565b5050565b600073ffffffffffffffffffffffffffffffffffffffff168473ffffffffffffffffffffffffffffffffffffffff16036111c7576040517f08c379a00000000000000000000000000000000000000000000000000000000081526004016111be9061387c565b60405180910390fd5b60006111d1611308565b905060006111de85611d44565b905060006111eb85611d44565b90506111fc83600089858589611dbe565b8460008088815260200190815260200160002060008973ffffffffffffffffffffffffffffffffffffffff1673ffffffffffffffffffffffffffffffffffffffff168152602001908152602001600020600082825461125b91906130ed565b925050819055508673ffffffffffffffffffffffffffffffffffffffff16600073ffffffffffffffffffffffffffffffffffffffff168473ffffffffffffffffffffffffffffffffffffffff167fc3d58168c5ae7397731d063d5bbf3d657854427343f4c083240f7aacaa2d0f6289896040516112d992919061389c565b60405180910390a46112f083600089858589611dd4565b6112ff83600089898989611ddc565b50505050505050565b600033905090565b8151835114611354576040517f08c379a000000000000000000000000000000000000000000000000000000000815260040161134b90613937565b60405180910390fd5b600073ffffffffffffffffffffffffffffffffffffffff168473ffffffffffffffffffffffffffffffffffffffff16036113c3576040517f08c379a00000000000000000000000000000000000000000000000000000000081526004016113ba906139c9565b60405180910390fd5b60006113cd611308565b90506113dd818787878787611dbe565b60005b845181101561158e5760008582815181106113fe576113fd613267565b5b60200260200101519050600085838151811061141d5761141c613267565b5b60200260200101519050600080600084815260200190815260200160002060008b73ffffffffffffffffffffffffffffffffffffffff1673ffffffffffffffffffffffffffffffffffffffff168152602001908152602001600020549050818110156114be576040517f08c379a00000000000000000000000000000000000000000000000000000000081526004016114b590613a5b565b60405180910390fd5b81810360008085815260200190815260200160002060008c73ffffffffffffffffffffffffffffffffffffffff1673ffffffffffffffffffffffffffffffffffffffff168152602001908152602001600020819055508160008085815260200190815260200160002060008b73ffffffffffffffffffffffffffffffffffffffff1673ffffffffffffffffffffffffffffffffffffffff168152602001908152602001600020600082825461157391906130ed565b925050819055505050508061158790613296565b90506113e0565b508473ffffffffffffffffffffffffffffffffffffffff168673ffffffffffffffffffffffffffffffffffffffff168273ffffffffffffffffffffffffffffffffffffffff167f4a39dc06d4c0dbc64b70af90fd698a233a518aa5d07e595d983b8c0526c8f7fb8787604051611605929190613a7b565b60405180910390a461161b818787878787611dd4565b611629818787878787611fb3565b505050505050565b600073ffffffffffffffffffffffffffffffffffffffff168373ffffffffffffffffffffffffffffffffffffffff16036116a0576040517f08c379a000000000000000000000000000000000000000000000000000000000815260040161169790613b24565b60405180910390fd5b60006116aa611308565b905060006116b784611d44565b905060006116c484611d44565b90506116e483876000858560405180602001604052806000815250611dbe565b600080600087815260200190815260200160002060008873ffffffffffffffffffffffffffffffffffffffff1673ffffffffffffffffffffffffffffffffffffffff1681526020019081526020016000205490508481101561177b576040517f08c379a000000000000000000000000000000000000000000000000000000000815260040161177290613bb6565b60405180910390fd5b84810360008088815260200190815260200160002060008973ffffffffffffffffffffffffffffffffffffffff1673ffffffffffffffffffffffffffffffffffffffff16815260200190815260200160002081905550600073ffffffffffffffffffffffffffffffffffffffff168773ffffffffffffffffffffffffffffffffffffffff168573ffffffffffffffffffffffffffffffffffffffff167fc3d58168c5ae7397731d063d5bbf3d657854427343f4c083240f7aacaa2d0f62898960405161184892919061389c565b60405180910390a461186e84886000868660405180602001604052806000815250611dd4565b50505050505050565b6000600360009054906101000a900473ffffffffffffffffffffffffffffffffffffffff16905081600360006101000a81548173ffffffffffffffffffffffffffffffffffffffff021916908373ffffffffffffffffffffffffffffffffffffffff1602179055508173ffffffffffffffffffffffffffffffffffffffff168173ffffffffffffffffffffffffffffffffffffffff167f8be0079c531659141344cd1fd0a4f28419497f9722a3daafe3b4186f6b6457e060405160405180910390a35050565b8173ffffffffffffffffffffffffffffffffffffffff168373ffffffffffffffffffffffffffffffffffffffff16036119ab576040517f08c379a00000000000000000000000000000000000000000000000000000000081526004016119a290613c48565b60405180910390fd5b80600160008573ffffffffffffffffffffffffffffffffffffffff1673ffffffffffffffffffffffffffffffffffffffff16815260200190815260200160002060008473ffffffffffffffffffffffffffffffffffffffff1673ffffffffffffffffffffffffffffffffffffffff16815260200190815260200160002060006101000a81548160ff0219169083151502179055508173ffffffffffffffffffffffffffffffffffffffff168373ffffffffffffffffffffffffffffffffffffffff167f17307eab39ab6107e8899845ad3d59bd9653f200f220920489ca2b5937696c3183604051611a9c9190612537565b60405180910390a3505050565b600073ffffffffffffffffffffffffffffffffffffffff168473ffffffffffffffffffffffffffffffffffffffff1603611b18576040517f08c379a0000000000000000000000000000000000000000000000000000000008152600401611b0f906139c9565b60405180910390fd5b6000611b22611308565b90506000611b2f85611d44565b90506000611b3c85611d44565b9050611b4c838989858589611dbe565b600080600088815260200190815260200160002060008a73ffffffffffffffffffffffffffffffffffffffff1673ffffffffffffffffffffffffffffffffffffffff16815260200190815260200160002054905085811015611be3576040517f08c379a0000000000000000000000000000000000000000000000000000000008152600401611bda90613a5b565b60405180910390fd5b85810360008089815260200190815260200160002060008b73ffffffffffffffffffffffffffffffffffffffff1673ffffffffffffffffffffffffffffffffffffffff168152602001908152602001600020819055508560008089815260200190815260200160002060008a73ffffffffffffffffffffffffffffffffffffffff1673ffffffffffffffffffffffffffffffffffffffff1681526020019081526020016000206000828254611c9891906130ed565b925050819055508773ffffffffffffffffffffffffffffffffffffffff168973ffffffffffffffffffffffffffffffffffffffff168573ffffffffffffffffffffffffffffffffffffffff167fc3d58168c5ae7397731d063d5bbf3d657854427343f4c083240f7aacaa2d0f628a8a604051611d1592919061389c565b60405180910390a4611d2b848a8a86868a611dd4565b611d39848a8a8a8a8a611ddc565b505050505050505050565b60606000600167ffffffffffffffff811115611d6357611d6261256d565b5b604051908082528060200260200182016040528015611d915781602001602082028036833780820191505090505b5090508281600081518110611da957611da8613267565b5b60200260200101818152505080915050919050565b611dcc86868686868661218a565b505050505050565b505050505050565b611dfb8473ffffffffffffffffffffffffffffffffffffffff1661235a565b15611fab578373ffffffffffffffffffffffffffffffffffffffff1663f23a6e6187878686866040518663ffffffff1660e01b8152600401611e41959493929190613cbd565b6020604051808303816000875af1925050508015611e7d57506040513d601f19601f82011682018060405250810190611e7a9190613d2c565b60015b611f2257611e89613d66565b806308c379a003611ee55750611e9d613d88565b80611ea85750611ee7565b806040517f08c379a0000000000000000000000000000000000000000000000000000000008152600401611edc9190612796565b60405180910390fd5b505b6040517f08c379a0000000000000000000000000000000000000000000000000000000008152600401611f1990613e8a565b60405180910390fd5b63f23a6e6160e01b7bffffffffffffffffffffffffffffffffffffffffffffffffffffffff1916817bffffffffffffffffffffffffffffffffffffffffffffffffffffffff191614611fa9576040517f08c379a0000000000000000000000000000000000000000000000000000000008152600401611fa090613f1c565b60405180910390fd5b505b505050505050565b611fd28473ffffffffffffffffffffffffffffffffffffffff1661235a565b15612182578373ffffffffffffffffffffffffffffffffffffffff1663bc197c8187878686866040518663ffffffff1660e01b8152600401612018959493929190613f3c565b6020604051808303816000875af192505050801561205457506040513d601f19601f820116820180604052508101906120519190613d2c565b60015b6120f957612060613d66565b806308c379a0036120bc5750612074613d88565b8061207f57506120be565b806040517f08c379a00000000000000000000000000000000000000000000000000000000081526004016120b39190612796565b60405180910390fd5b505b6040517f08c379a00000000000000000000000000000000000000000000000000000000081526004016120f090613e8a565b60405180910390fd5b63bc197c8160e01b7bffffffffffffffffffffffffffffffffffffffffffffffffffffffff1916817bffffffffffffffffffffffffffffffffffffffffffffffffffffffff191614612180576040517f08c379a000000000000000000000000000000000000000000000000000000000815260040161217790613f1c565b60405180910390fd5b505b505050505050565b61219886868686868661237d565b600073ffffffffffffffffffffffffffffffffffffffff168573ffffffffffffffffffffffffffffffffffffffff16036122495760005b8351811015612247578281815181106121eb576121ea613267565b5b60200260200101516004600086848151811061220a57612209613267565b5b60200260200101518152602001908152602001600020600082825461222f91906130ed565b925050819055508061224090613296565b90506121cf565b505b600073ffffffffffffffffffffffffffffffffffffffff168473ffffffffffffffffffffffffffffffffffffffff16036123525760005b835181101561235057600084828151811061229e5761229d613267565b5b6020026020010151905060008483815181106122bd576122bc613267565b5b6020026020010151905060006004600084815260200190815260200160002054905081811015612322576040517f08c379a000000000000000000000000000000000000000000000000000000000815260040161231990614016565b60405180910390fd5b81810360046000858152602001908152602001600020819055505050508061234990613296565b9050612280565b505b505050505050565b6000808273ffffffffffffffffffffffffffffffffffffffff163b119050919050565b505050505050565b6000604051905090565b600080fd5b600080fd5b600073ffffffffffffffffffffffffffffffffffffffff82169050919050565b60006123c482612399565b9050919050565b6123d4816123b9565b81146123df57600080fd5b50565b6000813590506123f1816123cb565b92915050565b6000819050919050565b61240a816123f7565b811461241557600080fd5b50565b60008135905061242781612401565b92915050565b600080604083850312156124445761244361238f565b5b6000612452858286016123e2565b925050602061246385828601612418565b9150509250929050565b612476816123f7565b82525050565b6000602082019050612491600083018461246d565b92915050565b60007fffffffff0000000000000000000000000000000000000000000000000000000082169050919050565b6124cc81612497565b81146124d757600080fd5b50565b6000813590506124e9816124c3565b92915050565b6000602082840312156125055761250461238f565b5b6000612513848285016124da565b91505092915050565b60008115159050919050565b6125318161251c565b82525050565b600060208201905061254c6000830184612528565b92915050565b600080fd5b600080fd5b6000601f19601f8301169050919050565b7f4e487b7100000000000000000000000000000000000000000000000000000000600052604160045260246000fd5b6125a58261255c565b810181811067ffffffffffffffff821117156125c4576125c361256d565b5b80604052505050565b60006125d7612385565b90506125e3828261259c565b919050565b600067ffffffffffffffff8211156126035761260261256d565b5b61260c8261255c565b9050602081019050919050565b82818337600083830152505050565b600061263b612636846125e8565b6125cd565b90508281526020810184848401111561265757612656612557565b5b612662848285612619565b509392505050565b600082601f83011261267f5761267e612552565b5b813561268f848260208601612628565b91505092915050565b6000602082840312156126ae576126ad61238f565b5b600082013567ffffffffffffffff8111156126cc576126cb612394565b5b6126d88482850161266a565b91505092915050565b6000602082840312156126f7576126f661238f565b5b600061270584828501612418565b91505092915050565b600081519050919050565b600082825260208201905092915050565b60005b8381101561274857808201518184015260208101905061272d565b83811115612757576000848401525b50505050565b60006127688261270e565b6127728185612719565b935061278281856020860161272a565b61278b8161255c565b840191505092915050565b600060208201905081810360008301526127b0818461275d565b905092915050565b600067ffffffffffffffff8211156127d3576127d261256d565b5b602082029050602081019050919050565b600080fd5b60006127fc6127f7846127b8565b6125cd565b9050808382526020820190506020840283018581111561281f5761281e6127e4565b5b835b8181101561284857806128348882612418565b845260208401935050602081019050612821565b5050509392505050565b600082601f83011261286757612866612552565b5b81356128778482602086016127e9565b91505092915050565b600067ffffffffffffffff82111561289b5761289a61256d565b5b6128a48261255c565b9050602081019050919050565b60006128c46128bf84612880565b6125cd565b9050828152602081018484840111156128e0576128df612557565b5b6128eb848285612619565b509392505050565b600082601f83011261290857612907612552565b5b81356129188482602086016128b1565b91505092915050565b600080600080600060a0868803121561293d5761293c61238f565b5b600061294b888289016123e2565b955050602061295c888289016123e2565b945050604086013567ffffffffffffffff81111561297d5761297c612394565b5b61298988828901612852565b935050606086013567ffffffffffffffff8111156129aa576129a9612394565b5b6129b688828901612852565b925050608086013567ffffffffffffffff8111156129d7576129d6612394565b5b6129e3888289016128f3565b9150509295509295909350565b600067ffffffffffffffff821115612a0b57612a0a61256d565b5b602082029050602081019050919050565b6000612a2f612a2a846129f0565b6125cd565b90508083825260208201905060208402830185811115612a5257612a516127e4565b5b835b81811015612a7b5780612a6788826123e2565b845260208401935050602081019050612a54565b5050509392505050565b600082601f830112612a9a57612a99612552565b5b8135612aaa848260208601612a1c565b91505092915050565b60008060408385031215612aca57612ac961238f565b5b600083013567ffffffffffffffff811115612ae857612ae7612394565b5b612af485828601612a85565b925050602083013567ffffffffffffffff811115612b1557612b14612394565b5b612b2185828601612852565b9150509250929050565b600081519050919050565b600082825260208201905092915050565b6000819050602082019050919050565b612b60816123f7565b82525050565b6000612b728383612b57565b60208301905092915050565b6000602082019050919050565b6000612b9682612b2b565b612ba08185612b36565b9350612bab83612b47565b8060005b83811015612bdc578151612bc38882612b66565b9750612bce83612b7e565b925050600181019050612baf565b5085935050505092915050565b60006020820190508181036000830152612c038184612b8b565b905092915050565b600080600060608486031215612c2457612c2361238f565b5b6000612c32868287016123e2565b9350506020612c4386828701612418565b9250506040612c5486828701612418565b9150509250925092565b60008060408385031215612c7557612c7461238f565b5b6000612c83858286016123e2565b925050602083013567ffffffffffffffff811115612ca457612ca3612394565b5b612cb0858286016128f3565b9150509250929050565b612cc3816123b9565b82525050565b6000602082019050612cde6000830184612cba565b92915050565b612ced8161251c565b8114612cf857600080fd5b50565b600081359050612d0a81612ce4565b92915050565b60008060408385031215612d2757612d2661238f565b5b6000612d35858286016123e2565b9250506020612d4685828601612cfb565b9150509250929050565b60008060408385031215612d6757612d6661238f565b5b6000612d75858286016123e2565b9250506020612d86858286016123e2565b9150509250929050565b600080600080600060a08688031215612dac57612dab61238f565b5b6000612dba888289016123e2565b9550506020612dcb888289016123e2565b9450506040612ddc88828901612418565b9350506060612ded88828901612418565b925050608086013567ffffffffffffffff811115612e0e57612e0d612394565b5b612e1a888289016128f3565b9150509295509295909350565b600060208284031215612e3d57612e3c61238f565b5b6000612e4b848285016123e2565b91505092915050565b7f455243313135353a2061646472657373207a65726f206973206e6f742061207660008201527f616c6964206f776e657200000000000000000000000000000000000000000000602082015250565b6000612eb0602a83612719565b9150612ebb82612e54565b604082019050919050565b60006020820190508181036000830152612edf81612ea3565b9050919050565b7f4e487b7100000000000000000000000000000000000000000000000000000000600052602260045260246000fd5b60006002820490506001821680612f2d57607f821691505b602082108103612f4057612f3f612ee6565b5b50919050565b7f546f6b656e206973206e6f7420612054616d6f00000000000000000000000000600082015250565b6000612f7c601383612719565b9150612f8782612f46565b602082019050919050565b60006020820190508181036000830152612fab81612f6f565b9050919050565b7f54616d6f20686173207374617276656420746f20646561746800000000000000600082015250565b6000612fe8601983612719565b9150612ff382612fb2565b602082019050919050565b6000602082019050818103600083015261301781612fdb565b9050919050565b7f4e487b7100000000000000000000000000000000000000000000000000000000600052601160045260246000fd5b6000613058826123f7565b9150613063836123f7565b9250828210156130765761307561301e565b5b828203905092915050565b7f546f6d6120697320746f6f20746972656420726561637420746f207065747300600082015250565b60006130b7601f83612719565b91506130c282613081565b602082019050919050565b600060208201905081810360008301526130e6816130aa565b9050919050565b60006130f8826123f7565b9150613103836123f7565b9250827fffffffffffffffffffffffffffffffffffffffffffffffffffffffffffffffff038211156131385761313761301e565b5b828201905092915050565b7f455243313135353a2063616c6c6572206973206e6f7420746f6b656e206f776e60008201527f6572206e6f7220617070726f7665640000000000000000000000000000000000602082015250565b600061319f602f83612719565b91506131aa82613143565b604082019050919050565b600060208201905081810360008301526131ce81613192565b9050919050565b7f455243313135353a206163636f756e747320616e6420696473206c656e67746860008201527f206d69736d617463680000000000000000000000000000000000000000000000602082015250565b6000613231602983612719565b915061323c826131d5565b604082019050919050565b6000602082019050818103600083015261326081613224565b9050919050565b7f4e487b7100000000000000000000000000000000000000000000000000000000600052603260045260246000fd5b60006132a1826123f7565b91507fffffffffffffffffffffffffffffffffffffffffffffffffffffffffffffffff82036132d3576132d261301e565b5b600182019050919050565b7f496e7375666669656e7420616d6f756e74206f6620666f6f6400000000000000600082015250565b6000613314601983612719565b915061331f826132de565b602082019050919050565b6000602082019050818103600083015261334381613307565b9050919050565b7f546f6d6120697320746f6f2066756c6c20746f20656174206d6f726500000000600082015250565b6000613380601c83612719565b915061338b8261334a565b602082019050919050565b600060208201905081810360008301526133af81613373565b9050919050565b7f4163636f756e7420646f6573206e6f74206f776e20616e206567670000000000600082015250565b60006133ec601b83612719565b91506133f7826133b6565b602082019050919050565b6000602082019050818103600083015261341b816133df565b9050919050565b7f4f776e61626c653a206e6577206f776e657220697320746865207a65726f206160008201527f6464726573730000000000000000000000000000000000000000000000000000602082015250565b600061347e602683612719565b915061348982613422565b604082019050919050565b600060208201905081810360008301526134ad81613471565b9050919050565b7f546f6d6120697320746f6f20687964726174656420746f206472696e6b000000600082015250565b60006134ea601d83612719565b91506134f5826134b4565b602082019050919050565b60006020820190508181036000830152613519816134dd565b9050919050565b7f4f776e61626c653a2063616c6c6572206973206e6f7420746865206f776e6572600082015250565b6000613556602083612719565b915061356182613520565b602082019050919050565b6000602082019050818103600083015261358581613549565b9050919050565b60008190508160005260206000209050919050565b60006020601f8301049050919050565b600082821b905092915050565b6000600883026135ee7fffffffffffffffffffffffffffffffffffffffffffffffffffffffffffffffff826135b1565b6135f886836135b1565b95508019841693508086168417925050509392505050565b6000819050919050565b600061363561363061362b846123f7565b613610565b6123f7565b9050919050565b6000819050919050565b61364f8361361a565b61366361365b8261363c565b8484546135be565b825550505050565b600090565b61367861366b565b613683818484613646565b505050565b5b818110156136a75761369c600082613670565b600181019050613689565b5050565b601f8211156136ec576136bd8161358c565b6136c6846135a1565b810160208510156136d5578190505b6136e96136e1856135a1565b830182613688565b50505b505050565b600082821c905092915050565b600061370f600019846008026136f1565b1980831691505092915050565b600061372883836136fe565b9150826002028217905092915050565b6137418261270e565b67ffffffffffffffff81111561375a5761375961256d565b5b6137648254612f15565b61376f8282856136ab565b600060209050601f8311600181146137a25760008415613790578287015190505b61379a858261371c565b865550613802565b601f1984166137b08661358c565b60005b828110156137d8578489015182556001820191506020850194506020810190506137b3565b868310156137f557848901516137f1601f8916826136fe565b8355505b6001600288020188555050505b505050505050565b7f455243313135353a206d696e7420746f20746865207a65726f2061646472657360008201527f7300000000000000000000000000000000000000000000000000000000000000602082015250565b6000613866602183612719565b91506138718261380a565b604082019050919050565b6000602082019050818103600083015261389581613859565b9050919050565b60006040820190506138b1600083018561246d565b6138be602083018461246d565b9392505050565b7f455243313135353a2069647320616e6420616d6f756e7473206c656e6774682060008201527f6d69736d61746368000000000000000000000000000000000000000000000000602082015250565b6000613921602883612719565b915061392c826138c5565b604082019050919050565b6000602082019050818103600083015261395081613914565b9050919050565b7f455243313135353a207472616e7366657220746f20746865207a65726f20616460008201527f6472657373000000000000000000000000000000000000000000000000000000602082015250565b60006139b3602583612719565b91506139be82613957565b604082019050919050565b600060208201905081810360008301526139e2816139a6565b9050919050565b7f455243313135353a20696e73756666696369656e742062616c616e636520666f60008201527f72207472616e7366657200000000000000000000000000000000000000000000602082015250565b6000613a45602a83612719565b9150613a50826139e9565b604082019050919050565b60006020820190508181036000830152613a7481613a38565b9050919050565b60006040820190508181036000830152613a958185612b8b565b90508181036020830152613aa98184612b8b565b90509392505050565b7f455243313135353a206275726e2066726f6d20746865207a65726f206164647260008201527f6573730000000000000000000000000000000000000000000000000000000000602082015250565b6000613b0e602383612719565b9150613b1982613ab2565b604082019050919050565b60006020820190508181036000830152613b3d81613b01565b9050919050565b7f455243313135353a206275726e20616d6f756e7420657863656564732062616c60008201527f616e636500000000000000000000000000000000000000000000000000000000602082015250565b6000613ba0602483612719565b9150613bab82613b44565b604082019050919050565b60006020820190508181036000830152613bcf81613b93565b9050919050565b7f455243313135353a2073657474696e6720617070726f76616c2073746174757360008201527f20666f722073656c660000000000000000000000000000000000000000000000602082015250565b6000613c32602983612719565b9150613c3d82613bd6565b604082019050919050565b60006020820190508181036000830152613c6181613c25565b9050919050565b600081519050919050565b600082825260208201905092915050565b6000613c8f82613c68565b613c998185613c73565b9350613ca981856020860161272a565b613cb28161255c565b840191505092915050565b600060a082019050613cd26000830188612cba565b613cdf6020830187612cba565b613cec604083018661246d565b613cf9606083018561246d565b8181036080830152613d0b8184613c84565b90509695505050505050565b600081519050613d26816124c3565b92915050565b600060208284031215613d4257613d4161238f565b5b6000613d5084828501613d17565b91505092915050565b60008160e01c9050919050565b600060033d1115613d855760046000803e613d82600051613d59565b90505b90565b600060443d10613e1557613d9a612385565b60043d036004823e80513d602482011167ffffffffffffffff82111715613dc2575050613e15565b808201805167ffffffffffffffff811115613de05750505050613e15565b80602083010160043d038501811115613dfd575050505050613e15565b613e0c8260200185018661259c565b82955050505050505b90565b7f455243313135353a207472616e7366657220746f206e6f6e204552433131353560008201527f526563656976657220696d706c656d656e746572000000000000000000000000602082015250565b6000613e74603483612719565b9150613e7f82613e18565b604082019050919050565b60006020820190508181036000830152613ea381613e67565b9050919050565b7f455243313135353a204552433131353552656365697665722072656a6563746560008201527f6420746f6b656e73000000000000000000000000000000000000000000000000602082015250565b6000613f06602883612719565b9150613f1182613eaa565b604082019050919050565b60006020820190508181036000830152613f3581613ef9565b9050919050565b600060a082019050613f516000830188612cba565b613f5e6020830187612cba565b8181036040830152613f708186612b8b565b90508181036060830152613f848185612b8b565b90508181036080830152613f988184613c84565b90509695505050505050565b7f455243313135353a206275726e20616d6f756e74206578636565647320746f7460008201527f616c537570706c79000000000000000000000000000000000000000000000000602082015250565b6000614000602883612719565b915061400b82613fa4565b604082019050919050565b6000602082019050818103600083015261402f81613ff3565b905091905056fea2646970667358221220b1ef27db85644dbca5f09fb53186c2a641730d040691430349331fc0b4c4ba5864736f6c634300080f0033",
  "immutableReferences": {},
  "source": "// SPDX-License-Identifier: MIT\npragma solidity ^0.8.4;\n\nimport \"@openzeppelin/contracts/token/ERC1155/ERC1155.sol\";\nimport \"@openzeppelin/contracts/access/Ownable.sol\";\nimport \"@openzeppelin/contracts/token/ERC1155/extensions/ERC1155Supply.sol\";\n\ncontract Tamoblockhi is ERC1155, Ownable, ERC1155Supply {\n\n    uint8 private FOOD_TOKEN_ID = 0;\n    uint8 private POOP_TOKEN_ID = 1;\n    uint8 private WATER_TOKEN_ID = 2;\n    uint8 private LOVE_TOKEN_ID = 3;\n    uint8 private EGG_TOKEN_ID = 4;\n\n    uint256 private TAMO_MIN_TOKEN_ID = 10;\n    uint256 private tamoCurrentId = TAMO_MIN_TOKEN_ID;\n\n    // Blocks added to the starvation counter\n    uint32 private blocksPerFoodToken = 6395;\n    // Blocks added to the dehydration counter\n    uint32 private blocksPerWaterToken = 6395;\n    // Blocks added to the tired counter after a pet\n    uint32 private blocksTiredPerPet = 1000;\n    // Blocks added to the tired counter after a feed\n    uint32 private blocksTiredPerFeed = 3000;\n\n    uint32 private maxBlocksBeforeStarvation = 249405; // ~3 days\n    uint32 private maxBlocksBeforeDehydration = 249405; // ~3 days\n    uint32 private maxBlocksBeforeExhausted = 6395; // 1 day\n\n    mapping(uint256 => uint256) private starvationBlock;\n    mapping(uint256 => uint256) private dehydrationBlock;\n    mapping(uint256 => uint256) private tiredUntilBlock;\n\n    constructor() ERC1155(\"\") {}\n\n    function setURI(string memory newuri) public onlyOwner {\n        _setURI(newuri);\n    }\n\n    // The following functions are overrides required by Solidity.\n\n    function _beforeTokenTransfer(address operator, address from, address to, uint256[] memory ids, uint256[] memory amounts, bytes memory data)\n        internal\n        override(ERC1155, ERC1155Supply)\n    {\n        super._beforeTokenTransfer(operator, from, to, ids, amounts, data);\n    }\n\n    function hatch(\n        address account,\n        bytes memory data\n    ) public {\n        require(balanceOf(account, EGG_TOKEN_ID) >= 1, \"Account does not own an egg\");\n        tamoCurrentId++;\n        _mint(account, tamoCurrentId, 1, data);\n\n        // Starting parameters after hatch\n        starvationBlock[tamoCurrentId] = block.number + blocksPerFoodToken; // 1 day\n        tiredUntilBlock[tamoCurrentId] = block.number; // 3 hours\n        _burn(account, EGG_TOKEN_ID, 1); // Spend the egg\n    }\n\n    function feed(\n        address account,\n        uint256 tokenId,\n        uint256 foodAmount\n    ) public onlyAlive(tokenId) {\n        require(balanceOf(account, FOOD_TOKEN_ID) >= foodAmount, \"Insuffient amount of food\");\n        uint256 starvationBlocks = starvationBlock[tokenId] - block.number;\n        require(starvationBlocks > maxBlocksBeforeStarvation, \"Toma is too full to eat more\");\n\n        starvationBlock[tokenId] += blocksPerFoodToken;\n        tiredUntilBlock[tokenId] += blocksTiredPerFeed;\n        _burn(account, FOOD_TOKEN_ID, foodAmount); // Spend the food\n    }\n\n    function water(\n        address account,\n        uint256 tokenId,\n        uint256 waterAmount\n    ) public onlyAlive(tokenId) {\n        require(balanceOf(account, WATER_TOKEN_ID) >= waterAmount, \"Insuffient amount of food\");\n        uint256 dehydrationBlocks = dehydrationBlock[tokenId] - block.number;\n        require(dehydrationBlocks > maxBlocksBeforeDehydration, \"Toma is too hydrated to drink\");\n\n        dehydrationBlock[tokenId] += blocksPerWaterToken;\n        _burn(account, FOOD_TOKEN_ID, waterAmount);\n    }\n\n    function pet(\n        address account,\n        uint256 tokenId\n    ) public onlyAlive(tokenId) {\n        // TODO should anyone be allowed to pet any Toma?\n        uint256 remainingBlocksTired = tiredUntilBlock[tokenId] - block.number;\n        require(remainingBlocksTired >= maxBlocksBeforeExhausted, \"Toma is too tired react to pets\");\n\n        _mint(account, LOVE_TOKEN_ID, 1, \"\");\n        tiredUntilBlock[tokenId] += blocksTiredPerPet;\n    }\n\n    modifier onlyAlive(uint256 tokenId) {\n        require(tokenId >= TAMO_MIN_TOKEN_ID, \"Token is not a Tamo\");\n        require(starvationBlock[tokenId] < block.number, \"Tamo has starved to death\");\n        _;\n    }\n}",
  "sourcePath": "/Users/jmalfara/Documents/tamoblockhi/contracts/Tomablockhi.sol",
  "compiler": {
    "name": "solc",
    "version": "0.8.15+commit.e14f2714.Emscripten.clang"
  },
  "schemaVersion": "3.4.8",
  "updatedAt": "2022-07-27T12:48:27.917Z",
  "devdoc": {
    "kind": "dev",
    "methods": {
      "balanceOf(address,uint256)": {
        "details": "See {IERC1155-balanceOf}. Requirements: - `account` cannot be the zero address."
      },
      "balanceOfBatch(address[],uint256[])": {
        "details": "See {IERC1155-balanceOfBatch}. Requirements: - `accounts` and `ids` must have the same length."
      },
      "exists(uint256)": {
        "details": "Indicates whether any token exist with a given id, or not."
      },
      "isApprovedForAll(address,address)": {
        "details": "See {IERC1155-isApprovedForAll}."
      },
      "owner()": {
        "details": "Returns the address of the current owner."
      },
      "renounceOwnership()": {
        "details": "Leaves the contract without owner. It will not be possible to call `onlyOwner` functions anymore. Can only be called by the current owner. NOTE: Renouncing ownership will leave the contract without an owner, thereby removing any functionality that is only available to the owner."
      },
      "safeBatchTransferFrom(address,address,uint256[],uint256[],bytes)": {
        "details": "See {IERC1155-safeBatchTransferFrom}."
      },
      "safeTransferFrom(address,address,uint256,uint256,bytes)": {
        "details": "See {IERC1155-safeTransferFrom}."
      },
      "setApprovalForAll(address,bool)": {
        "details": "See {IERC1155-setApprovalForAll}."
      },
      "supportsInterface(bytes4)": {
        "details": "See {IERC165-supportsInterface}."
      },
      "totalSupply(uint256)": {
        "details": "Total amount of tokens in with a given id."
      },
      "transferOwnership(address)": {
        "details": "Transfers ownership of the contract to a new account (`newOwner`). Can only be called by the current owner."
      },
      "uri(uint256)": {
        "details": "See {IERC1155MetadataURI-uri}. This implementation returns the same URI for *all* token types. It relies on the token type ID substitution mechanism https://eips.ethereum.org/EIPS/eip-1155#metadata[defined in the EIP]. Clients calling this function must replace the `\\{id\\}` substring with the actual token type ID."
      }
    },
    "version": 1
  },
  "userdoc": {
    "kind": "user",
    "methods": {},
    "version": 1
  }
}